{
  "contractName": "HostingContract",
  "abi": [
    {
      "constant": true,
      "inputs": [],
      "name": "hostingContractName",
      "outputs": [
        {
          "name": "",
          "type": "string"
        }
      ],
      "payable": false,
      "stateMutability": "view",
      "type": "function"
    },
    {
      "constant": true,
      "inputs": [],
      "name": "contractCost",
      "outputs": [
        {
          "name": "",
          "type": "uint256"
        }
      ],
      "payable": false,
      "stateMutability": "view",
      "type": "function"
    },
    {
      "inputs": [
        {
          "name": "HostingContractName",
          "type": "string"
        },
        {
          "name": "UserAddress",
          "type": "address"
        },
        {
          "name": "ContractCost",
          "type": "uint256"
        }
      ],
      "payable": true,
      "stateMutability": "payable",
      "type": "constructor"
    },
    {
      "constant": false,
      "inputs": [],
      "name": "deleteContract",
      "outputs": [],
      "payable": false,
      "stateMutability": "nonpayable",
      "type": "function"
    }
  ],
  "bytecode": "0x608060405260405161048638038061048683398101806040528101908080518201929190602001805190602001909291908051906020019092919050505033600160006101000a81548173ffffffffffffffffffffffffffffffffffffffff021916908373ffffffffffffffffffffffffffffffffffffffff16021790555081600260006101000a81548173ffffffffffffffffffffffffffffffffffffffff021916908373ffffffffffffffffffffffffffffffffffffffff16021790555082600090805190602001906100d59291906100e5565b508060038190555050505061018a565b828054600181600116156101000203166002900490600052602060002090601f016020900481019282601f1061012657805160ff1916838001178555610154565b82800160010185558215610154579182015b82811115610153578251825591602001919060010190610138565b5b5090506101619190610165565b5090565b61018791905b8082111561018357600081600090555060010161016b565b5090565b90565b6102ed806101996000396000f300608060405260043610610057576000357c0100000000000000000000000000000000000000000000000000000000900463ffffffff1680630e3f73341461005c5780635a58cd4c146100ec578063fd8ba93514610103575b600080fd5b34801561006857600080fd5b5061007161012e565b6040518080602001828103825283818151815260200191508051906020019080838360005b838110156100b1578082015181840152602081019050610096565b50505050905090810190601f1680156100de5780820380516001836020036101000a031916815260200191505b509250505060405180910390f35b3480156100f857600080fd5b506101016101cc565b005b34801561010f57600080fd5b506101186102bb565b6040518082815260200191505060405180910390f35b60008054600181600116156101000203166002900480601f0160208091040260200160405190810160405280929190818152602001828054600181600116156101000203166002900480156101c45780601f10610199576101008083540402835291602001916101c4565b820191906000526020600020905b8154815290600101906020018083116101a757829003601f168201915b505050505081565b600160009054906101000a900473ffffffffffffffffffffffffffffffffffffffff1673ffffffffffffffffffffffffffffffffffffffff163373ffffffffffffffffffffffffffffffffffffffff1614151561022857600080fd5b600260009054906101000a900473ffffffffffffffffffffffffffffffffffffffff1673ffffffffffffffffffffffffffffffffffffffff163373ffffffffffffffffffffffffffffffffffffffff1614156102b957600260009054906101000a900473ffffffffffffffffffffffffffffffffffffffff1673ffffffffffffffffffffffffffffffffffffffff16ff5b565b600354815600a165627a7a72305820108a2159b742d9abd2e00a613813297f82a676cf9c8a493a3cd5f01d85cfff030029",
  "source": "pragma solidity ^0.4.21; contract HostingContract {\n    function deleteContract() public onlyOwner{\n        if (msg.sender == operator) selfdestruct(operator);\n    }\n    string public hostingContractName;\n    address internal owner; // owner of the contract\n    address internal operator; // operator or control contract\n    uint256 public contractCost;\n \n    function HostingContract (string HostingContractName, address UserAddress, uint256 ContractCost) public payable{\n        owner = msg.sender;\n        operator = UserAddress;\n        hostingContractName = HostingContractName;\n        contractCost = ContractCost;\n    }\n    \n    modifier onlyOwner()\n    {\n       if (msg.sender != owner) revert();\n       _;\n    }\n    modifier onlyOwnerOrOperator()\n    {\n       if (msg.sender != owner && msg.sender != operator) revert();\n       _;\n    }\n}\ncontract ethoFSDashboard {\n    function deleteContract() public onlyOwner {\n        selfdestruct(owner);\n    }\n    uint256 public hostingCost;\n    uint32 public userCount;\n    address internal owner; // owner of the contract\n    address internal operator; // operator or control contract\n    mapping (address => userAccount) public userAccounts;\n    address[] userAccountAddresses;\n    struct userAccount {\n        address userAddress;\n        string accountName;\n        mapping (address => hostingContract) hostingContracts;\n        uint32 activeContractCount;\n        uint32 totalContractCount;\n        address[] hostingContractAddresses;\n    }\n    struct hostingContract {\n        string hostingContractName;\n        uint256 deployedBlockHeight;\n        uint256 expirationBlockHeight;\n        uint32 contractStorageUsed;\n        uint32 ContentHashCount;\n        string[] contentHashArray;\n        mapping (string => string) contentHashMap;\n    }\n    function ethoFSDashboard () public {\n        owner = msg.sender;\n        operator = msg.sender;\n        userCount = 0;\n        hostingCost = 1000000000000000000;\n    }\n    function ScrubContractList() public {\n        uint i = 0;\n        while (i < (userAccountAddresses.length)) {\n            userAccount storage userAccountIterator = userAccounts[userAccountAddresses[i]];\n            uint j = 0;\n            while (j < (userAccountIterator.hostingContractAddresses.length)) {\n                hostingContract storage hostingContractIterator = userAccountIterator.hostingContracts[userAccountIterator.hostingContractAddresses[j]];\n                if(block.number > hostingContractIterator.expirationBlockHeight) {\n                    RemoveHostingContract(userAccountAddresses[i], userAccountIterator.hostingContractAddresses[j]);\n                }\n                j++;\n            }\n            i++;\n        }\n    }\n    function SetHostingCost(uint256 set) public onlyOwnerOrOperator {\n        hostingCost = set;\n    }\n    function SetUserCount(uint32 set) public onlyOwnerOrOperator {\n        userCount = set;\n    }\n    function CalculateHostingContractCost(uint32 ContractSize, uint32 ContractDuration) internal returns (uint256 value) {\n        return (((ContractSize / 1048576) * hostingCost) * (ContractDuration / 46522));\n    }\n    function CheckAccountExistence(address UserAddress) public view returns(bool) {\n         if(userAccounts[UserAddress].userAddress == address(0x0)) {\n             return false;\n         } \n         return true;\n    }\n    function AddNewUser(address UserAddress, string AccountName) public onlyOwnerOrOperator {\n        userAccount memory newUserAcccount = userAccount({userAddress:UserAddress, accountName:AccountName, activeContractCount:0, totalContractCount:0, hostingContractAddresses: new address[](0)});\n        userAccounts[UserAddress] = newUserAcccount;\n        userAccountAddresses.push(UserAddress);\n        userCount++;\n    }\n    function RemoveUser(address UserAddress) public onlyOwnerOrOperator {\n        delete userAccounts[UserAddress];\n        RemoveUserByValue(UserAddress);\n        userCount--;\n    }\n    function CreateHostingContract (string HostingContractName, uint256 contractCost) private returns(address value){\n        HostingContract newContractAddress = (new HostingContract).value(contractCost)(HostingContractName, msg.sender, contractCost);\n        return newContractAddress;\n    }  \n    function AddHostingContract(address UserAddress, string HostingContractName, uint32 HostingContractDuration, uint32 TotalContractSize) public onlyOwnerOrOperator returns(address NewContractAddress){\n        address newContractAddress = CreateHostingContract (HostingContractName, CalculateHostingContractCost(TotalContractSize, HostingContractDuration));\n        hostingContract memory newHostingContract = hostingContract({hostingContractName:HostingContractName, deployedBlockHeight:block.number, expirationBlockHeight:block.number + HostingContractDuration, contractStorageUsed:TotalContractSize, contentHashArray: new string[](0), ContentHashCount: 0});\n        userAccounts[UserAddress].hostingContracts[newContractAddress] = newHostingContract;\n        userAccounts[UserAddress].hostingContractAddresses.push(newContractAddress);\n        userAccounts[UserAddress].activeContractCount++;\n        userAccounts[UserAddress].totalContractCount++;\n        return newContractAddress;\n    }\n    function AddContentHash(address UserAddress, address HostingContractAddress, string newContentHash, string newContentPath) public onlyOwnerOrOperator {\n        userAccounts[UserAddress].hostingContracts[HostingContractAddress].contentHashMap[newContentHash] = newContentPath;\n        userAccounts[UserAddress].hostingContracts[HostingContractAddress].contentHashArray.push(newContentHash);\n        userAccounts[UserAddress].hostingContracts[HostingContractAddress].ContentHashCount++;\n    }\n    function RemoveHostingContract(address UserAddress, address HostingContractAddress) public onlyOwnerOrOperator {\n        HostingContract contractToDelete = HostingContract(HostingContractAddress);\n        contractToDelete.deleteContract();\n        delete userAccounts[UserAddress].hostingContracts[HostingContractAddress];\n        RemoveByValue(UserAddress, HostingContractAddress);\n        userAccounts[UserAddress].activeContractCount--;\n        userAccounts[UserAddress].totalContractCount--;\n    }\n    function ExtendHostingContract(address UserAddress, address HostingContractAddress, uint32 HostingContractExtensionDuration) public onlyOwnerOrOperator {\n        userAccounts[UserAddress].hostingContracts[HostingContractAddress].expirationBlockHeight = userAccounts[UserAddress].hostingContracts[HostingContractAddress].expirationBlockHeight + HostingContractExtensionDuration;\n    }\n    function GetContentHash(address UserAddress, uint ArrayKey, uint HashArrayKey) public onlyOwnerOrOperator constant returns(string ContentHash) {\n        address ArrayValue = FindArrayValue(UserAddress, ArrayKey);\n        return userAccounts[UserAddress].hostingContracts[ArrayValue].contentHashArray[HashArrayKey];\n    }\n    function GetContentPath(address UserAddress, uint ArrayKey, string ContentHash) public onlyOwnerOrOperator constant returns(string ContentPath) {\n        address ArrayValue = FindArrayValue(UserAddress, ArrayKey);\n        return userAccounts[UserAddress].hostingContracts[ArrayValue].contentHashMap[ContentHash];\n    } \n    function GetContentHashCount(address UserAddress, uint ArrayKey) public onlyOwnerOrOperator constant returns(uint32 value) {\n        address ArrayValue = FindArrayValue(UserAddress, ArrayKey);\n        return userAccounts[UserAddress].hostingContracts[ArrayValue].ContentHashCount;\n    }\n    function GetUserAccountAddress(address UserAddress) public onlyOwnerOrOperator constant returns(address value) {\n        return userAccounts[UserAddress].userAddress;\n    }\n    function GetUserAccountName(address UserAddress) public onlyOwnerOrOperator constant returns(string value) {\n        return userAccounts[UserAddress].accountName;\n    }\n    function GetUserAccountActiveContractCount(address UserAddress) public onlyOwnerOrOperator constant returns(uint32 value) {\n        return userAccounts[UserAddress].activeContractCount;\n    }\n    function GetUserAccountTotalContractCount(address UserAddress) public onlyOwnerOrOperator constant returns(uint32 value) {\n        return userAccounts[UserAddress].totalContractCount;\n    }\n    function GetHostingContractDeployedBlockHeight(address UserAddress, uint ArrayKey) public onlyOwnerOrOperator constant returns(uint256 value) {\n        address ArrayValue = FindArrayValue(UserAddress, ArrayKey);\n        return userAccounts[UserAddress].hostingContracts[ArrayValue].deployedBlockHeight;\n    } \n    function GetHostingContractExpirationBlockHeight(address UserAddress, uint ArrayKey) public onlyOwnerOrOperator constant returns(uint256 value) {\n        address ArrayValue = FindArrayValue(UserAddress, ArrayKey);\n        return userAccounts[UserAddress].hostingContracts[ArrayValue].expirationBlockHeight;\n    } \n    function GetHostingContractStorageUsed(address UserAddress, uint ArrayKey) public onlyOwnerOrOperator constant returns(uint32 value) {\n        address ArrayValue = FindArrayValue(UserAddress, ArrayKey);\n        return userAccounts[UserAddress].hostingContracts[ArrayValue].contractStorageUsed;\n    }\n    function GetHostingContractName(address UserAddress, uint ArrayKey) public onlyOwnerOrOperator constant returns(string value) {\n        address ArrayValue = FindArrayValue(UserAddress, ArrayKey);\n        return userAccounts[UserAddress].hostingContracts[ArrayValue].hostingContractName;\n    } \n    function GetHostingContractAddress(address UserAddress, uint ArrayKey) public onlyOwnerOrOperator constant returns(address value) {\n        address ArrayValue = FindArrayValue(UserAddress, ArrayKey);\n        return ArrayValue;\n    }   \n    function FindArrayValue(address UserAddress, uint ArrayKey) private constant returns (address value) {\n        return userAccounts[UserAddress].hostingContractAddresses[ArrayKey];\n    }\n    function FindArrayKey(address UserAddress, address HostingContactAddress) private constant returns (uint) {\n        uint i = 0;\n        while (keccak256(userAccounts[UserAddress].hostingContractAddresses[i]) != keccak256(HostingContactAddress)) {\n            i++;\n        }\n        return i;\n    }\n    function FindUserAddressArrayKey(address UserAddress) private constant returns (uint) {\n        uint i = 0;\n        while (keccak256(userAccountAddresses[i]) != keccak256(UserAddress)) {\n            i++;\n        }\n        return i;\n    }\n    function RemoveUserByValue(address UserAddress) private {\n        uint i = FindUserAddressArrayKey(UserAddress);\n        RemoveUserByIndex(i);\n    }\n    function RemoveUserByIndex(uint i) private {\n        while (i < (userAccountAddresses.length - 1)) {\n            userAccountAddresses[i] = userAccountAddresses[i+1];\n            i++;\n        }\n        userAccountAddresses.length--;\n    }\n    function RemoveByValue(address UserAddress, address HostingContractAddress) private {\n        uint i = FindArrayKey(UserAddress, HostingContractAddress);\n        RemoveByIndex(UserAddress, i);\n    }\n    function RemoveByIndex(address UserAddress, uint i) private {\n        while (i < (userAccounts[UserAddress].hostingContractAddresses.length - 1)) {\n            userAccounts[UserAddress].hostingContractAddresses[i] = userAccounts[UserAddress].hostingContractAddresses[i+1];\n            i++;\n        }\n        userAccounts[UserAddress].hostingContractAddresses.length--;\n    }\n    modifier onlyOwner()\n    {\n       if (msg.sender != owner) revert();\n       _;\n    }\n    modifier onlyOwnerOrOperator()\n    {\n       if (msg.sender != owner && msg.sender != operator) revert();\n       _;\n    }\n    function changeOperator(address newOperator) public onlyOwner\n    {\n       operator = newOperator;\n    }\n}\n",
  "sourcePath": "/home/ether1node/contracts/dashboard/contracts/ethoFSDashboard.sol",
  "compiler": {
    "name": "solc",
    "version": "0.4.24+commit.e67f0147.Emscripten.clang"
  },
  "schemaVersion": "2.0.1",
  "updatedAt": "2018-11-26T18:55:39.624Z"
}