{
  "contractName": "ethoFSController",
  "abi": [
    {
      "inputs": [],
      "payable": false,
      "stateMutability": "nonpayable",
      "type": "constructor"
    },
    {
      "constant": false,
      "inputs": [],
      "name": "deleteContract",
      "outputs": [],
      "payable": false,
      "stateMutability": "nonpayable",
      "type": "function"
    },
    {
      "constant": false,
      "inputs": [
        {
          "name": "set",
          "type": "address"
        }
      ],
      "name": "SetAccountCollectionAddress",
      "outputs": [],
      "payable": false,
      "stateMutability": "nonpayable",
      "type": "function"
    },
    {
      "constant": false,
      "inputs": [
        {
          "name": "hostingCost",
          "type": "uint256"
        }
      ],
      "name": "SetHostingCost",
      "outputs": [],
      "payable": false,
      "stateMutability": "nonpayable",
      "type": "function"
    },
    {
      "constant": false,
      "inputs": [
        {
          "name": "pinStorageAddress",
          "type": "address"
        }
      ],
      "name": "SetPinStorageAddress",
      "outputs": [],
      "payable": false,
      "stateMutability": "nonpayable",
      "type": "function"
    },
    {
      "constant": false,
      "inputs": [
        {
          "name": "ethoFSDashboardAddress",
          "type": "address"
        }
      ],
      "name": "SetEthoFSDashboardAddress",
      "outputs": [],
      "payable": false,
      "stateMutability": "nonpayable",
      "type": "function"
    },
    {
      "constant": false,
      "inputs": [
        {
          "name": "ethoFSHostingContractsAddress",
          "type": "address"
        }
      ],
      "name": "SetEthoFSHostingContractsAddress",
      "outputs": [],
      "payable": false,
      "stateMutability": "nonpayable",
      "type": "function"
    },
    {
      "constant": false,
      "inputs": [
        {
          "name": "UserAddress",
          "type": "address"
        },
        {
          "name": "AccountName",
          "type": "string"
        }
      ],
      "name": "AddNewUserOwner",
      "outputs": [],
      "payable": false,
      "stateMutability": "nonpayable",
      "type": "function"
    },
    {
      "constant": false,
      "inputs": [
        {
          "name": "AccountName",
          "type": "string"
        }
      ],
      "name": "AddNewUserPublic",
      "outputs": [],
      "payable": false,
      "stateMutability": "nonpayable",
      "type": "function"
    },
    {
      "constant": false,
      "inputs": [
        {
          "name": "UserAddress",
          "type": "address"
        }
      ],
      "name": "RemoveUserOwner",
      "outputs": [],
      "payable": false,
      "stateMutability": "nonpayable",
      "type": "function"
    },
    {
      "constant": false,
      "inputs": [],
      "name": "RemoveUserPublic",
      "outputs": [],
      "payable": false,
      "stateMutability": "nonpayable",
      "type": "function"
    },
    {
      "constant": false,
      "inputs": [
        {
          "name": "MainContentHash",
          "type": "string"
        },
        {
          "name": "HostingContractName",
          "type": "string"
        },
        {
          "name": "HostingContractDuration",
          "type": "uint32"
        },
        {
          "name": "TotalContractSize",
          "type": "uint32"
        },
        {
          "name": "pinSize",
          "type": "uint32"
        },
        {
          "name": "ContentHashString",
          "type": "string"
        },
        {
          "name": "ContentPathString",
          "type": "string"
        }
      ],
      "name": "AddNewContract",
      "outputs": [],
      "payable": true,
      "stateMutability": "payable",
      "type": "function"
    },
    {
      "constant": false,
      "inputs": [
        {
          "name": "HostingContractAddress",
          "type": "address"
        },
        {
          "name": "MainContentHash",
          "type": "string"
        }
      ],
      "name": "RemoveHostingContract",
      "outputs": [],
      "payable": false,
      "stateMutability": "nonpayable",
      "type": "function"
    },
    {
      "constant": false,
      "inputs": [
        {
          "name": "HostingContractAddress",
          "type": "address"
        },
        {
          "name": "HostingContractExtensionDuration",
          "type": "uint32"
        }
      ],
      "name": "ExtendContract",
      "outputs": [],
      "payable": true,
      "stateMutability": "payable",
      "type": "function"
    },
    {
      "constant": false,
      "inputs": [],
      "name": "ScrubHostingContracts",
      "outputs": [],
      "payable": false,
      "stateMutability": "nonpayable",
      "type": "function"
    },
    {
      "constant": true,
      "inputs": [
        {
          "name": "UserAddress",
          "type": "address"
        }
      ],
      "name": "GetUserAccountName",
      "outputs": [
        {
          "name": "value",
          "type": "string"
        }
      ],
      "payable": false,
      "stateMutability": "view",
      "type": "function"
    },
    {
      "constant": true,
      "inputs": [
        {
          "name": "UserAddress",
          "type": "address"
        }
      ],
      "name": "GetUserAccountActiveContractCount",
      "outputs": [
        {
          "name": "value",
          "type": "uint32"
        }
      ],
      "payable": false,
      "stateMutability": "view",
      "type": "function"
    },
    {
      "constant": true,
      "inputs": [
        {
          "name": "UserAddress",
          "type": "address"
        }
      ],
      "name": "GetUserAccountTotalContractCount",
      "outputs": [
        {
          "name": "value",
          "type": "uint32"
        }
      ],
      "payable": false,
      "stateMutability": "view",
      "type": "function"
    },
    {
      "constant": true,
      "inputs": [
        {
          "name": "UserAddress",
          "type": "address"
        },
        {
          "name": "ArrayKey",
          "type": "uint256"
        }
      ],
      "name": "GetHostingContractAddress",
      "outputs": [
        {
          "name": "value",
          "type": "address"
        }
      ],
      "payable": false,
      "stateMutability": "view",
      "type": "function"
    },
    {
      "constant": true,
      "inputs": [
        {
          "name": "UserAddress",
          "type": "address"
        }
      ],
      "name": "CheckAccountExistence",
      "outputs": [
        {
          "name": "",
          "type": "bool"
        }
      ],
      "payable": false,
      "stateMutability": "view",
      "type": "function"
    },
    {
      "constant": true,
      "inputs": [
        {
          "name": "HostingContractAddress",
          "type": "address"
        }
      ],
      "name": "GetMainContentHash",
      "outputs": [
        {
          "name": "MainContentHash",
          "type": "string"
        }
      ],
      "payable": false,
      "stateMutability": "view",
      "type": "function"
    },
    {
      "constant": true,
      "inputs": [
        {
          "name": "HostingContractAddress",
          "type": "address"
        }
      ],
      "name": "GetContentHashString",
      "outputs": [
        {
          "name": "ContentHashString",
          "type": "string"
        }
      ],
      "payable": false,
      "stateMutability": "view",
      "type": "function"
    },
    {
      "constant": true,
      "inputs": [
        {
          "name": "HostingContractAddress",
          "type": "address"
        }
      ],
      "name": "GetContentPathString",
      "outputs": [
        {
          "name": "ContentPathString",
          "type": "string"
        }
      ],
      "payable": false,
      "stateMutability": "view",
      "type": "function"
    },
    {
      "constant": true,
      "inputs": [
        {
          "name": "HostingContractAddress",
          "type": "address"
        }
      ],
      "name": "GetHostingContractDeployedBlockHeight",
      "outputs": [
        {
          "name": "value",
          "type": "uint256"
        }
      ],
      "payable": false,
      "stateMutability": "view",
      "type": "function"
    },
    {
      "constant": true,
      "inputs": [
        {
          "name": "HostingContractAddress",
          "type": "address"
        }
      ],
      "name": "GetHostingContractExpirationBlockHeight",
      "outputs": [
        {
          "name": "value",
          "type": "uint256"
        }
      ],
      "payable": false,
      "stateMutability": "view",
      "type": "function"
    },
    {
      "constant": true,
      "inputs": [
        {
          "name": "HostingContractAddress",
          "type": "address"
        }
      ],
      "name": "GetHostingContractStorageUsed",
      "outputs": [
        {
          "name": "value",
          "type": "uint32"
        }
      ],
      "payable": false,
      "stateMutability": "view",
      "type": "function"
    },
    {
      "constant": true,
      "inputs": [
        {
          "name": "HostingContractAddress",
          "type": "address"
        }
      ],
      "name": "GetHostingContractName",
      "outputs": [
        {
          "name": "value",
          "type": "string"
        }
      ],
      "payable": false,
      "stateMutability": "view",
      "type": "function"
    },
    {
      "constant": false,
      "inputs": [
        {
          "name": "newOperator",
          "type": "address"
        }
      ],
      "name": "changeOperator",
      "outputs": [],
      "payable": false,
      "stateMutability": "nonpayable",
      "type": "function"
    }
  ],
  "bytecode": "0x608060405234801561001057600080fd5b50336000806101000a81548173ffffffffffffffffffffffffffffffffffffffff021916908373ffffffffffffffffffffffffffffffffffffffff16021790555033600160006101000a81548173ffffffffffffffffffffffffffffffffffffffff021916908373ffffffffffffffffffffffffffffffffffffffff160217905550674563918244f400006006819055506128dc806100b06000396000f30060806040526004361061015f576000357c0100000000000000000000000000000000000000000000000000000000900463ffffffff16806306394c9b146101645780630bbeb35b1461018d5780632c3027a7146101b657806331e8db11146101f3578063403169ac1461021c578063415dfefa146102595780634a6b2fa31461029657806357618e1d146102bf5780635a58cd4c146102e857806361268dc9146102ff57806366b7004c1461031657806368e15933146103535780638e097614146103905780638f490daf146103cd578063978a627a146103f65780639b0a9add1461041f578063aa8da20b1461045c578063af7bbf5a14610485578063b18759de146104c2578063c8ac5fe8146104eb578063ccb726b114610514578063d0cd251314610530578063d19237631461056d578063d420a7e614610584578063d4f0d929146105a0578063e42f0027146105dd578063e6dc78171461061a575b600080fd5b34801561017057600080fd5b5061018b60048036036101869190810190612134565b610657565b005b34801561019957600080fd5b506101b460048036036101af9190810190612134565b6106f6565b005b3480156101c257600080fd5b506101dd60048036036101d89190810190612134565b6107fd565b6040516101ea919061263f565b60405180910390f35b3480156101ff57600080fd5b5061021a600480360361021591908101906123fb565b6108cf565b005b34801561022857600080fd5b50610243600480360361023e9190810190612134565b6109dd565b6040516102509190612729565b60405180910390f35b34801561026557600080fd5b50610280600480360361027b9190810190612134565b610aaf565b60405161028d9190612729565b60405180910390f35b3480156102a257600080fd5b506102bd60048036036102b89190810190612186565b610b81565b005b3480156102cb57600080fd5b506102e660048036036102e19190810190612186565b610c8b565b005b3480156102f457600080fd5b506102fd610eed565b005b34801561030b57600080fd5b50610314610f82565b005b34801561032257600080fd5b5061033d60048036036103389190810190612134565b611022565b60405161034a9190612744565b60405180910390f35b34801561035f57600080fd5b5061037a600480360361037591908101906121da565b6110f4565b60405161038791906124e8565b60405180910390f35b34801561039c57600080fd5b506103b760048036036103b29190810190612134565b6111c9565b6040516103c4919061265a565b60405180910390f35b3480156103d957600080fd5b506103f460048036036103ef9190810190612134565b6112a0565b005b34801561040257600080fd5b5061041d60048036036104189190810190612134565b61133f565b005b34801561042b57600080fd5b5061044660048036036104419190810190612134565b6113de565b6040516104539190612744565b60405180910390f35b34801561046857600080fd5b50610483600480360361047e9190810190612134565b6114b0565b005b34801561049157600080fd5b506104ac60048036036104a79190810190612134565b61154f565b6040516104b9919061265a565b60405180910390f35b3480156104ce57600080fd5b506104e960048036036104e4919081019061227b565b611626565b005b3480156104f757600080fd5b50610512600480360361050d9190810190612134565b6116d4565b005b61052e600480360361052991908101906122fd565b6118c5565b005b34801561053c57600080fd5b5061055760048036036105529190810190612134565b611b42565b604051610564919061265a565b60405180910390f35b34801561057957600080fd5b50610582611c19565b005b61059e60048036036105999190810190612216565b611cc4565b005b3480156105ac57600080fd5b506105c760048036036105c29190810190612134565b611d7c565b6040516105d49190612744565b60405180910390f35b3480156105e957600080fd5b5061060460048036036105ff9190810190612134565b611e4e565b604051610611919061265a565b60405180910390f35b34801561062657600080fd5b50610641600480360361063c9190810190612134565b611f25565b60405161064e919061265a565b60405180910390f35b6000809054906101000a900473ffffffffffffffffffffffffffffffffffffffff1673ffffffffffffffffffffffffffffffffffffffff163373ffffffffffffffffffffffffffffffffffffffff161415156106b257600080fd5b80600160006101000a81548173ffffffffffffffffffffffffffffffffffffffff021916908373ffffffffffffffffffffffffffffffffffffffff16021790555050565b6000809054906101000a900473ffffffffffffffffffffffffffffffffffffffff1673ffffffffffffffffffffffffffffffffffffffff163373ffffffffffffffffffffffffffffffffffffffff1614151561075157600080fd5b600460009054906101000a900473ffffffffffffffffffffffffffffffffffffffff1673ffffffffffffffffffffffffffffffffffffffff16630ad8e54a826040518263ffffffff167c01000000000000000000000000000000000000000000000000000000000281526004016107c891906124e8565b600060405180830381600087803b1580156107e257600080fd5b505af11580156107f6573d6000803e3d6000fd5b5050505050565b6000600460009054906101000a900473ffffffffffffffffffffffffffffffffffffffff1673ffffffffffffffffffffffffffffffffffffffff16632c3027a7836040518263ffffffff167c010000000000000000000000000000000000000000000000000000000002815260040161087691906124e8565b602060405180830381600087803b15801561089057600080fd5b505af11580156108a4573d6000803e3d6000fd5b505050506040513d601f19601f820116820180604052506108c89190810190612252565b9050919050565b6000809054906101000a900473ffffffffffffffffffffffffffffffffffffffff1673ffffffffffffffffffffffffffffffffffffffff163373ffffffffffffffffffffffffffffffffffffffff1614151561092a57600080fd5b600560009054906101000a900473ffffffffffffffffffffffffffffffffffffffff1673ffffffffffffffffffffffffffffffffffffffff16630b6ff6dd826040518263ffffffff167c01000000000000000000000000000000000000000000000000000000000281526004016109a19190612729565b600060405180830381600087803b1580156109bb57600080fd5b505af11580156109cf573d6000803e3d6000fd5b505050508060068190555050565b6000600560009054906101000a900473ffffffffffffffffffffffffffffffffffffffff1673ffffffffffffffffffffffffffffffffffffffff1663403169ac836040518263ffffffff167c0100000000000000000000000000000000000000000000000000000000028152600401610a5691906124e8565b602060405180830381600087803b158015610a7057600080fd5b505af1158015610a84573d6000803e3d6000fd5b505050506040513d601f19601f82011682018060405250610aa89190810190612424565b9050919050565b6000600560009054906101000a900473ffffffffffffffffffffffffffffffffffffffff1673ffffffffffffffffffffffffffffffffffffffff1663415dfefa836040518263ffffffff167c0100000000000000000000000000000000000000000000000000000000028152600401610b2891906124e8565b602060405180830381600087803b158015610b4257600080fd5b505af1158015610b56573d6000803e3d6000fd5b505050506040513d601f19601f82011682018060405250610b7a9190810190612424565b9050919050565b6000809054906101000a900473ffffffffffffffffffffffffffffffffffffffff1673ffffffffffffffffffffffffffffffffffffffff163373ffffffffffffffffffffffffffffffffffffffff16141515610bdc57600080fd5b600460009054906101000a900473ffffffffffffffffffffffffffffffffffffffff1673ffffffffffffffffffffffffffffffffffffffff1663a8f2efd883836040518363ffffffff167c0100000000000000000000000000000000000000000000000000000000028152600401610c559291906125bd565b600060405180830381600087803b158015610c6f57600080fd5b505af1158015610c83573d6000803e3d6000fd5b505050505050565b6000600560009054906101000a900473ffffffffffffffffffffffffffffffffffffffff1673ffffffffffffffffffffffffffffffffffffffff1663782d8e063385600260009054906101000a900473ffffffffffffffffffffffffffffffffffffffff166040518463ffffffff167c0100000000000000000000000000000000000000000000000000000000028152600401610d2a9392919061252c565b602060405180830381600087803b158015610d4457600080fd5b505af1158015610d58573d6000803e3d6000fd5b505050506040513d601f19601f82011682018060405250610d7c9190810190612252565b9050600115158115151415610ee057600460009054906101000a900473ffffffffffffffffffffffffffffffffffffffff1673ffffffffffffffffffffffffffffffffffffffff166349d590ef33856040518363ffffffff167c0100000000000000000000000000000000000000000000000000000000028152600401610e04929190612503565b600060405180830381600087803b158015610e1e57600080fd5b505af1158015610e32573d6000803e3d6000fd5b50505050600360009054906101000a900473ffffffffffffffffffffffffffffffffffffffff1673ffffffffffffffffffffffffffffffffffffffff16633f0854a7836040518263ffffffff167c0100000000000000000000000000000000000000000000000000000000028152600401610ead919061265a565b600060405180830381600087803b158015610ec757600080fd5b505af1158015610edb573d6000803e3d6000fd5b505050505b610ee8610f82565b505050565b6000809054906101000a900473ffffffffffffffffffffffffffffffffffffffff1673ffffffffffffffffffffffffffffffffffffffff163373ffffffffffffffffffffffffffffffffffffffff16141515610f4857600080fd5b6000809054906101000a900473ffffffffffffffffffffffffffffffffffffffff1673ffffffffffffffffffffffffffffffffffffffff16ff5b600560009054906101000a900473ffffffffffffffffffffffffffffffffffffffff1673ffffffffffffffffffffffffffffffffffffffff1663359a198b6040518163ffffffff167c0100000000000000000000000000000000000000000000000000000000028152600401600060405180830381600087803b15801561100857600080fd5b505af115801561101c573d6000803e3d6000fd5b50505050565b6000600560009054906101000a900473ffffffffffffffffffffffffffffffffffffffff1673ffffffffffffffffffffffffffffffffffffffff166366b7004c836040518263ffffffff167c010000000000000000000000000000000000000000000000000000000002815260040161109b91906124e8565b602060405180830381600087803b1580156110b557600080fd5b505af11580156110c9573d6000803e3d6000fd5b505050506040513d601f19601f820116820180604052506110ed919081019061244d565b9050919050565b6000600460009054906101000a900473ffffffffffffffffffffffffffffffffffffffff1673ffffffffffffffffffffffffffffffffffffffff166368e1593384846040518363ffffffff167c010000000000000000000000000000000000000000000000000000000002815260040161116f9291906125ed565b602060405180830381600087803b15801561118957600080fd5b505af115801561119d573d6000803e3d6000fd5b505050506040513d601f19601f820116820180604052506111c1919081019061215d565b905092915050565b6060600560009054906101000a900473ffffffffffffffffffffffffffffffffffffffff1673ffffffffffffffffffffffffffffffffffffffff16638e097614836040518263ffffffff167c010000000000000000000000000000000000000000000000000000000002815260040161124291906124e8565b600060405180830381600087803b15801561125c57600080fd5b505af1158015611270573d6000803e3d6000fd5b505050506040513d6000823e3d601f19601f8201168201806040525061129991908101906122bc565b9050919050565b6000809054906101000a900473ffffffffffffffffffffffffffffffffffffffff1673ffffffffffffffffffffffffffffffffffffffff163373ffffffffffffffffffffffffffffffffffffffff161415156112fb57600080fd5b80600360006101000a81548173ffffffffffffffffffffffffffffffffffffffff021916908373ffffffffffffffffffffffffffffffffffffffff16021790555050565b6000809054906101000a900473ffffffffffffffffffffffffffffffffffffffff1673ffffffffffffffffffffffffffffffffffffffff163373ffffffffffffffffffffffffffffffffffffffff1614151561139a57600080fd5b80600560006101000a81548173ffffffffffffffffffffffffffffffffffffffff021916908373ffffffffffffffffffffffffffffffffffffffff16021790555050565b6000600460009054906101000a900473ffffffffffffffffffffffffffffffffffffffff1673ffffffffffffffffffffffffffffffffffffffff16639b0a9add836040518263ffffffff167c010000000000000000000000000000000000000000000000000000000002815260040161145791906124e8565b602060405180830381600087803b15801561147157600080fd5b505af1158015611485573d6000803e3d6000fd5b505050506040513d601f19601f820116820180604052506114a9919081019061244d565b9050919050565b6000809054906101000a900473ffffffffffffffffffffffffffffffffffffffff1673ffffffffffffffffffffffffffffffffffffffff163373ffffffffffffffffffffffffffffffffffffffff1614151561150b57600080fd5b80600460006101000a81548173ffffffffffffffffffffffffffffffffffffffff021916908373ffffffffffffffffffffffffffffffffffffffff16021790555050565b6060600560009054906101000a900473ffffffffffffffffffffffffffffffffffffffff1673ffffffffffffffffffffffffffffffffffffffff1663af7bbf5a836040518263ffffffff167c01000000000000000000000000000000000000000000000000000000000281526004016115c891906124e8565b600060405180830381600087803b1580156115e257600080fd5b505af11580156115f6573d6000803e3d6000fd5b505050506040513d6000823e3d601f19601f8201168201806040525061161f91908101906122bc565b9050919050565b600460009054906101000a900473ffffffffffffffffffffffffffffffffffffffff1673ffffffffffffffffffffffffffffffffffffffff1663a8f2efd833836040518363ffffffff167c010000000000000000000000000000000000000000000000000000000002815260040161169f9291906125bd565b600060405180830381600087803b1580156116b957600080fd5b505af11580156116cd573d6000803e3d6000fd5b5050505050565b6000809054906101000a900473ffffffffffffffffffffffffffffffffffffffff1673ffffffffffffffffffffffffffffffffffffffff163373ffffffffffffffffffffffffffffffffffffffff1614151561172f57600080fd5b600560009054906101000a900473ffffffffffffffffffffffffffffffffffffffff1673ffffffffffffffffffffffffffffffffffffffff1663c8ac5fe8826040518263ffffffff167c01000000000000000000000000000000000000000000000000000000000281526004016117a691906124e8565b600060405180830381600087803b1580156117c057600080fd5b505af11580156117d4573d6000803e3d6000fd5b50505050600460009054906101000a900473ffffffffffffffffffffffffffffffffffffffff1673ffffffffffffffffffffffffffffffffffffffff1663c8ac5fe8826040518263ffffffff167c010000000000000000000000000000000000000000000000000000000002815260040161184f91906124e8565b600060405180830381600087803b15801561186957600080fd5b505af115801561187d573d6000803e3d6000fd5b5050505080600260006101000a81548173ffffffffffffffffffffffffffffffffffffffff021916908373ffffffffffffffffffffffffffffffffffffffff16021790555050565b6000600560009054906101000a900473ffffffffffffffffffffffffffffffffffffffff1673ffffffffffffffffffffffffffffffffffffffff16634b8f5af6348a8a8a8a89896040518863ffffffff167c01000000000000000000000000000000000000000000000000000000000281526004016119499695949392919061267c565b6020604051808303818588803b15801561196257600080fd5b505af1158015611976573d6000803e3d6000fd5b50505050506040513d601f19601f8201168201806040525061199b919081019061215d565b9050600073ffffffffffffffffffffffffffffffffffffffff168173ffffffffffffffffffffffffffffffffffffffff16141515611b3057600460009054906101000a900473ffffffffffffffffffffffffffffffffffffffff1673ffffffffffffffffffffffffffffffffffffffff16635719919382338a8a8a6040518663ffffffff167c0100000000000000000000000000000000000000000000000000000000028152600401611a52959493929190612563565b600060405180830381600087803b158015611a6c57600080fd5b505af1158015611a80573d6000803e3d6000fd5b50505050600360009054906101000a900473ffffffffffffffffffffffffffffffffffffffff1673ffffffffffffffffffffffffffffffffffffffff16638d03673189866040518363ffffffff167c0100000000000000000000000000000000000000000000000000000000028152600401611afd9291906126f9565b600060405180830381600087803b158015611b1757600080fd5b505af1158015611b2b573d6000803e3d6000fd5b505050505b611b38610f82565b5050505050505050565b6060600560009054906101000a900473ffffffffffffffffffffffffffffffffffffffff1673ffffffffffffffffffffffffffffffffffffffff1663d0cd2513836040518263ffffffff167c0100000000000000000000000000000000000000000000000000000000028152600401611bbb91906124e8565b600060405180830381600087803b158015611bd557600080fd5b505af1158015611be9573d6000803e3d6000fd5b505050506040513d6000823e3d601f19601f82011682018060405250611c1291908101906122bc565b9050919050565b600460009054906101000a900473ffffffffffffffffffffffffffffffffffffffff1673ffffffffffffffffffffffffffffffffffffffff16630ad8e54a336040518263ffffffff167c0100000000000000000000000000000000000000000000000000000000028152600401611c9091906124e8565b600060405180830381600087803b158015611caa57600080fd5b505af1158015611cbe573d6000803e3d6000fd5b50505050565b600560009054906101000a900473ffffffffffffffffffffffffffffffffffffffff1673ffffffffffffffffffffffffffffffffffffffff1663de5a8ec53484846040518463ffffffff167c0100000000000000000000000000000000000000000000000000000000028152600401611d3e929190612616565b6000604051808303818588803b158015611d5757600080fd5b505af1158015611d6b573d6000803e3d6000fd5b5050505050611d78610f82565b5050565b6000600460009054906101000a900473ffffffffffffffffffffffffffffffffffffffff1673ffffffffffffffffffffffffffffffffffffffff1663d4f0d929836040518263ffffffff167c0100000000000000000000000000000000000000000000000000000000028152600401611df591906124e8565b602060405180830381600087803b158015611e0f57600080fd5b505af1158015611e23573d6000803e3d6000fd5b505050506040513d601f19601f82011682018060405250611e47919081019061244d565b9050919050565b6060600460009054906101000a900473ffffffffffffffffffffffffffffffffffffffff1673ffffffffffffffffffffffffffffffffffffffff1663e42f0027836040518263ffffffff167c0100000000000000000000000000000000000000000000000000000000028152600401611ec791906124e8565b600060405180830381600087803b158015611ee157600080fd5b505af1158015611ef5573d6000803e3d6000fd5b505050506040513d6000823e3d601f19601f82011682018060405250611f1e91908101906122bc565b9050919050565b6060600560009054906101000a900473ffffffffffffffffffffffffffffffffffffffff1673ffffffffffffffffffffffffffffffffffffffff1663e6dc7817836040518263ffffffff167c0100000000000000000000000000000000000000000000000000000000028152600401611f9e91906124e8565b600060405180830381600087803b158015611fb857600080fd5b505af1158015611fcc573d6000803e3d6000fd5b505050506040513d6000823e3d601f19601f82011682018060405250611ff591908101906122bc565b9050919050565b60006120088235612809565b905092915050565b600061201c8251612809565b905092915050565b60006120308251612829565b905092915050565b600082601f830112151561204b57600080fd5b813561205e6120598261278c565b61275f565b9150808252602083016020830185838301111561207a57600080fd5b61208583828461284f565b50505092915050565b600082601f83011215156120a157600080fd5b81516120b46120af8261278c565b61275f565b915080825260208301602083018583830111156120d057600080fd5b6120db83828461285e565b50505092915050565b60006120f08235612835565b905092915050565b60006121048251612835565b905092915050565b6000612118823561283f565b905092915050565b600061212c825161283f565b905092915050565b60006020828403121561214657600080fd5b600061215484828501611ffc565b91505092915050565b60006020828403121561216f57600080fd5b600061217d84828501612010565b91505092915050565b6000806040838503121561219957600080fd5b60006121a785828601611ffc565b925050602083013567ffffffffffffffff8111156121c457600080fd5b6121d085828601612038565b9150509250929050565b600080604083850312156121ed57600080fd5b60006121fb85828601611ffc565b925050602061220c858286016120e4565b9150509250929050565b6000806040838503121561222957600080fd5b600061223785828601611ffc565b92505060206122488582860161210c565b9150509250929050565b60006020828403121561226457600080fd5b600061227284828501612024565b91505092915050565b60006020828403121561228d57600080fd5b600082013567ffffffffffffffff8111156122a757600080fd5b6122b384828501612038565b91505092915050565b6000602082840312156122ce57600080fd5b600082015167ffffffffffffffff8111156122e857600080fd5b6122f48482850161208e565b91505092915050565b600080600080600080600060e0888a03121561231857600080fd5b600088013567ffffffffffffffff81111561233257600080fd5b61233e8a828b01612038565b975050602088013567ffffffffffffffff81111561235b57600080fd5b6123678a828b01612038565b96505060406123788a828b0161210c565b95505060606123898a828b0161210c565b945050608061239a8a828b0161210c565b93505060a088013567ffffffffffffffff8111156123b757600080fd5b6123c38a828b01612038565b92505060c088013567ffffffffffffffff8111156123e057600080fd5b6123ec8a828b01612038565b91505092959891949750929550565b60006020828403121561240d57600080fd5b600061241b848285016120e4565b91505092915050565b60006020828403121561243657600080fd5b6000612444848285016120f8565b91505092915050565b60006020828403121561245f57600080fd5b600061246d84828501612120565b91505092915050565b61247f816127c3565b82525050565b61248e816127e3565b82525050565b600061249f826127b8565b8084526124b381602086016020860161285e565b6124bc81612891565b602085010191505092915050565b6124d3816127ef565b82525050565b6124e2816127f9565b82525050565b60006020820190506124fd6000830184612476565b92915050565b60006040820190506125186000830185612476565b6125256020830184612476565b9392505050565b60006060820190506125416000830186612476565b61254e6020830185612476565b61255b6040830184612476565b949350505050565b600060a0820190506125786000830188612476565b6125856020830187612476565b81810360408301526125978186612494565b90506125a660608301856124d9565b6125b360808301846124d9565b9695505050505050565b60006040820190506125d26000830185612476565b81810360208301526125e48184612494565b90509392505050565b60006040820190506126026000830185612476565b61260f60208301846124ca565b9392505050565b600060408201905061262b6000830185612476565b61263860208301846124d9565b9392505050565b60006020820190506126546000830184612485565b92915050565b600060208201905081810360008301526126748184612494565b905092915050565b600060c08201905081810360008301526126968189612494565b905081810360208301526126aa8188612494565b90506126b960408301876124d9565b6126c660608301866124d9565b81810360808301526126d88185612494565b905081810360a08301526126ec8184612494565b9050979650505050505050565b600060408201905081810360008301526127138185612494565b905061272260208301846124d9565b9392505050565b600060208201905061273e60008301846124ca565b92915050565b600060208201905061275960008301846124d9565b92915050565b6000604051905081810181811067ffffffffffffffff8211171561278257600080fd5b8060405250919050565b600067ffffffffffffffff8211156127a357600080fd5b601f19601f8301169050602081019050919050565b600081519050919050565b600073ffffffffffffffffffffffffffffffffffffffff82169050919050565b60008115159050919050565b6000819050919050565b600063ffffffff82169050919050565b600073ffffffffffffffffffffffffffffffffffffffff82169050919050565b60008115159050919050565b6000819050919050565b600063ffffffff82169050919050565b82818337600083830152505050565b60005b8381101561287c578082015181840152602081019050612861565b8381111561288b576000848401525b50505050565b6000601f19601f83011690509190505600a265627a7a72305820d554a24a90200e154a77b06fa08dcfd63be8327c692f3785a572baf53be84de36c6578706572696d656e74616cf50037",
  "source": "pragma solidity ^0.4.24;\npragma experimental ABIEncoderV2;\n\ninterface ethoFSDashboard {\n    function SetAccountCollectionAddress(address set) external;\n    function AddNewUser(address UserAddress, string AccountName) external;\n    function RemoveUser(address UserAddress) external;\n    function AddHostingContract(address newContractAddress, address UserAddress, string HostingContractName, uint32 HostingContractDuration, uint32 TotalContractSize) external;\n    function RemoveHostingContract(address UserAddress, address HostingContractAddress) external; \n    function GetUserAccountAddress(address UserAddress) external returns(address value);\n    function GetUserAccountName(address UserAddress) external returns(string value);\n    function GetUserAccountActiveContractCount(address UserAddress) external returns(uint32 value); \n    function GetUserAccountTotalContractCount(address UserAddress) external returns(uint32 value); \n    function GetHostingContractAddress(address UserAddress, uint ArrayKey) external returns(address value);\n    function CheckAccountExistence(address UserAddress) external returns(bool);\n}\ninterface ethoFSHostingContracts {\n    function ScrubContractList() external;\n    function SetHostingContractCost(uint256 set) external;\n    //function AddContentHash(uint32 HostingContractAddress, string newContentHash, string newContentPath) external;\n    function ExtendHostingContract(address HostingContractAddress, uint32 HostingContractExtensionDuration) external payable;\n    function GetMainContentHash(address HostingContractAddress) external returns(string MainContentHash);\n    function GetContentHashString(address HostingContractAddress) external returns(string ContentHashString);\n    function GetContentPathString(address HostingContractAddress) external returns(string ContentPathString);\n    //function GetContentHashCount(uint32 HostingContractAddress) external returns(uint32 value);\n    function GetHostingContractDeployedBlockHeight(address HostingContractAddress) external returns(uint256 value);\n    function GetHostingContractExpirationBlockHeight(address HostingContractAddress) external returns(uint256 value);\n    function GetHostingContractStorageUsed(address HostingContractAddress) external returns(uint32 value);\n    function GetHostingContractName(address HostingContractAddress) external returns(string value);\n    function AddHostingContract(string MainContentHash, string HostingContractName, uint32 HostingContractDuration, uint32 TotalContractSize, string ContentHashString, string ContentPathString) external payable returns(address value);\n    function RemoveHostingContract(address CustomerAddress, address HostingContractAddress, address AccountCollectionAddress) external returns(bool value);\n    function SetAccountCollectionAddress(address AccountCollectionAddress) external;\n}\ninterface PinStorage {\n    function PinAdd(string pinToAdd, uint32 pinSize) external;\n    function PinRemove(string pin) external;\n}\ncontract ethoFSController {\n    function deleteContract() public onlyOwner {\n        selfdestruct(owner);\n    }\n\n    address internal owner; // owner of the contract\n    address internal operator; // operator or control contract\n    address AccountCollectionAddress;\n    PinStorage internal PinStorageAddress;\n    ethoFSDashboard internal EthoFSDashboardAddress;\n    ethoFSHostingContracts internal EthoFSHostingContractsAddress;\n    uint256 HostingCost;\n\n//    constructor (address pinStorageAddress, address ethoFSDashboardAddress, address ethoFSHostingContractsAddress) public {\n    constructor () public {\n        owner = msg.sender;\n        operator = msg.sender;\n        HostingCost = 5000000000000000000;    \n        //PinStorageAddress = PinStorage(pinStorageAddress);\n        //EthoFSDashboardAddress = ethoFSDashboard(ethoFSDashboardAddress);\n        //EthoFSHostingContractsAddress = ethoFSHostingContracts(ethoFSHostingContractsAddress);\n    }\n    \n    function SetAccountCollectionAddress(address set) public onlyOwner {\n        EthoFSHostingContractsAddress.SetAccountCollectionAddress(set);\n        EthoFSDashboardAddress.SetAccountCollectionAddress(set);\n        AccountCollectionAddress = set;\n    }\n    function SetHostingCost(uint256 hostingCost) public onlyOwner {\n        EthoFSHostingContractsAddress.SetHostingContractCost(hostingCost);\n        HostingCost = hostingCost;\n    }\n    function SetPinStorageAddress(address pinStorageAddress) public onlyOwner {\n        PinStorageAddress = PinStorage(pinStorageAddress);\n    }\n    function SetEthoFSDashboardAddress(address ethoFSDashboardAddress) public onlyOwner {\n        EthoFSDashboardAddress = ethoFSDashboard(ethoFSDashboardAddress);\n    }\n    function SetEthoFSHostingContractsAddress(address ethoFSHostingContractsAddress) public onlyOwner {\n        EthoFSHostingContractsAddress = ethoFSHostingContracts(ethoFSHostingContractsAddress);\n    }\n    function AddNewUserOwner(address UserAddress, string memory AccountName) public onlyOwner{\n        EthoFSDashboardAddress.AddNewUser(UserAddress, AccountName);\n    }\n    function AddNewUserPublic(string memory AccountName) public {\n        EthoFSDashboardAddress.AddNewUser(msg.sender, AccountName);\n    }\n    function RemoveUserOwner(address UserAddress) public onlyOwner {\n        EthoFSDashboardAddress.RemoveUser(UserAddress);\n    }\n    function RemoveUserPublic() public {\n        EthoFSDashboardAddress.RemoveUser(msg.sender);\n    }\n    function AddNewContract(string MainContentHash, string memory HostingContractName, uint32 HostingContractDuration, uint32 TotalContractSize, uint32 pinSize, string ContentHashString, string ContentPathString) public payable{\n        address newContractAddress = EthoFSHostingContractsAddress.AddHostingContract.value(msg.value)(MainContentHash, HostingContractName, HostingContractDuration, TotalContractSize, ContentHashString, ContentPathString);\n        if(newContractAddress != address(0x0)){\n            EthoFSDashboardAddress.AddHostingContract(newContractAddress, msg.sender, HostingContractName, HostingContractDuration, TotalContractSize);\n            PinStorageAddress.PinAdd(MainContentHash, pinSize);\n        }\n        ScrubHostingContracts();\n    }\n    function RemoveHostingContract(address HostingContractAddress, string MainContentHash) public{\n        bool accountCheck = EthoFSHostingContractsAddress.RemoveHostingContract(msg.sender, HostingContractAddress, AccountCollectionAddress);\n        if(accountCheck == true){\n            EthoFSDashboardAddress.RemoveHostingContract(msg.sender, HostingContractAddress);\n            PinStorageAddress.PinRemove(MainContentHash);\n        }\n        ScrubHostingContracts();\n    }\n    function ExtendContract(address HostingContractAddress, uint32 HostingContractExtensionDuration) public payable{\n        EthoFSHostingContractsAddress.ExtendHostingContract.value(msg.value)(HostingContractAddress, HostingContractExtensionDuration);\n        ScrubHostingContracts();\n    }\n    function ScrubHostingContracts() public {\n        EthoFSHostingContractsAddress.ScrubContractList();\n    }\n    function GetUserAccountName(address UserAddress) public view returns(string value){\n        return EthoFSDashboardAddress.GetUserAccountName(UserAddress);\n    }\n    function GetUserAccountActiveContractCount(address UserAddress) public view returns(uint32 value){\n        return EthoFSDashboardAddress.GetUserAccountActiveContractCount(UserAddress);\n    }\n    function GetUserAccountTotalContractCount(address UserAddress) public view returns(uint32 value){\n        return EthoFSDashboardAddress.GetUserAccountTotalContractCount(UserAddress);\n    }\n    function GetHostingContractAddress(address UserAddress, uint ArrayKey) public view returns(address value){\n        return EthoFSDashboardAddress.GetHostingContractAddress(UserAddress, ArrayKey);\n    }\n    function CheckAccountExistence(address UserAddress) public view returns(bool){\n        return EthoFSDashboardAddress.CheckAccountExistence(UserAddress);\n    }\n    function GetMainContentHash(address HostingContractAddress) public view returns(string MainContentHash){\n        return EthoFSHostingContractsAddress.GetMainContentHash(HostingContractAddress);\n    }\n    function GetContentHashString(address HostingContractAddress) public view returns(string ContentHashString){\n        return EthoFSHostingContractsAddress.GetContentHashString(HostingContractAddress);\n    }\n    function GetContentPathString(address HostingContractAddress) public view returns(string ContentPathString){\n        return EthoFSHostingContractsAddress.GetContentPathString(HostingContractAddress);\n    }\n    function GetHostingContractDeployedBlockHeight(address HostingContractAddress) public view returns(uint256 value){\n        return EthoFSHostingContractsAddress.GetHostingContractDeployedBlockHeight(HostingContractAddress);\n    }\n    function GetHostingContractExpirationBlockHeight(address HostingContractAddress) public view returns(uint256 value){\n        return EthoFSHostingContractsAddress.GetHostingContractExpirationBlockHeight(HostingContractAddress);\n    }\n    function GetHostingContractStorageUsed(address HostingContractAddress) public view returns(uint32 value){\n        return EthoFSHostingContractsAddress.GetHostingContractStorageUsed(HostingContractAddress);\n    }\n    function GetHostingContractName(address HostingContractAddress) public view returns(string value){\n        return EthoFSHostingContractsAddress.GetHostingContractName(HostingContractAddress);\n    }\n\n    modifier onlyOwner() \n    {\n       if (msg.sender != owner) revert();\n       _;\n    }\n    modifier onlyOwnerOrOperator() \n    {\n       if (msg.sender != owner && msg.sender != operator) revert();\n       _;\n    }\n    function changeOperator(address newOperator) public onlyOwner\n    {\n       operator = newOperator;\n    }\n} \n",
  "sourcePath": "/home/ether1node/contracts/controller/contracts/ethoFSController.sol",
  "compiler": {
    "name": "solc",
    "version": "0.4.24+commit.e67f0147.Emscripten.clang"
  },
  "schemaVersion": "2.0.1",
  "updatedAt": "2019-03-02T20:16:43.433Z"
}