{
  "contractName": "ethoFSController",
  "abi": [
    {
      "inputs": [],
      "payable": false,
      "stateMutability": "nonpayable",
      "type": "constructor"
    },
    {
      "constant": false,
      "inputs": [],
      "name": "deleteContract",
      "outputs": [],
      "payable": false,
      "stateMutability": "nonpayable",
      "type": "function"
    },
    {
      "constant": false,
      "inputs": [
        {
          "name": "set",
          "type": "address"
        }
      ],
      "name": "SetAccountCollectionAddress",
      "outputs": [],
      "payable": false,
      "stateMutability": "nonpayable",
      "type": "function"
    },
    {
      "constant": false,
      "inputs": [
        {
          "name": "hostingCost",
          "type": "uint256"
        }
      ],
      "name": "SetHostingCost",
      "outputs": [],
      "payable": false,
      "stateMutability": "nonpayable",
      "type": "function"
    },
    {
      "constant": false,
      "inputs": [
        {
          "name": "pinStorageAddress",
          "type": "address"
        }
      ],
      "name": "SetPinStorageAddress",
      "outputs": [],
      "payable": false,
      "stateMutability": "nonpayable",
      "type": "function"
    },
    {
      "constant": false,
      "inputs": [
        {
          "name": "ethoFSDashboardAddress",
          "type": "address"
        }
      ],
      "name": "SetEthoFSDashboardAddress",
      "outputs": [],
      "payable": false,
      "stateMutability": "nonpayable",
      "type": "function"
    },
    {
      "constant": false,
      "inputs": [
        {
          "name": "ethoFSHostingContractsAddress",
          "type": "address"
        }
      ],
      "name": "SetEthoFSHostingContractsAddress",
      "outputs": [],
      "payable": false,
      "stateMutability": "nonpayable",
      "type": "function"
    },
    {
      "constant": false,
      "inputs": [
        {
          "name": "UserAddress",
          "type": "address"
        },
        {
          "name": "AccountName",
          "type": "string"
        }
      ],
      "name": "AddNewUser",
      "outputs": [],
      "payable": false,
      "stateMutability": "nonpayable",
      "type": "function"
    },
    {
      "constant": false,
      "inputs": [
        {
          "name": "UserAddress",
          "type": "address"
        }
      ],
      "name": "RemoveUser",
      "outputs": [],
      "payable": false,
      "stateMutability": "nonpayable",
      "type": "function"
    },
    {
      "constant": false,
      "inputs": [
        {
          "name": "MainContentHash",
          "type": "string"
        },
        {
          "name": "HostingContractName",
          "type": "string"
        },
        {
          "name": "HostingContractDuration",
          "type": "uint32"
        },
        {
          "name": "TotalContractSize",
          "type": "uint32"
        },
        {
          "name": "pinSize",
          "type": "uint32"
        },
        {
          "name": "ContentHashString",
          "type": "string"
        },
        {
          "name": "ContentPathString",
          "type": "string"
        }
      ],
      "name": "AddNewContract",
      "outputs": [],
      "payable": true,
      "stateMutability": "payable",
      "type": "function"
    },
    {
      "constant": false,
      "inputs": [
        {
          "name": "HostingContractAddress",
          "type": "address"
        },
        {
          "name": "MainContentHash",
          "type": "string"
        }
      ],
      "name": "RemoveHostingContract",
      "outputs": [],
      "payable": false,
      "stateMutability": "nonpayable",
      "type": "function"
    },
    {
      "constant": false,
      "inputs": [
        {
          "name": "HostingContractAddress",
          "type": "address"
        },
        {
          "name": "HostingContractExtensionDuration",
          "type": "uint32"
        }
      ],
      "name": "ExtendContract",
      "outputs": [],
      "payable": false,
      "stateMutability": "nonpayable",
      "type": "function"
    },
    {
      "constant": false,
      "inputs": [],
      "name": "ScrubHostingContracts",
      "outputs": [],
      "payable": false,
      "stateMutability": "nonpayable",
      "type": "function"
    },
    {
      "constant": true,
      "inputs": [
        {
          "name": "UserAddress",
          "type": "address"
        }
      ],
      "name": "GetUserAccountName",
      "outputs": [
        {
          "name": "value",
          "type": "string"
        }
      ],
      "payable": false,
      "stateMutability": "view",
      "type": "function"
    },
    {
      "constant": true,
      "inputs": [
        {
          "name": "UserAddress",
          "type": "address"
        }
      ],
      "name": "GetUserAccountActiveContractCount",
      "outputs": [
        {
          "name": "value",
          "type": "uint32"
        }
      ],
      "payable": false,
      "stateMutability": "view",
      "type": "function"
    },
    {
      "constant": true,
      "inputs": [
        {
          "name": "UserAddress",
          "type": "address"
        }
      ],
      "name": "GetUserAccountTotalContractCount",
      "outputs": [
        {
          "name": "value",
          "type": "uint32"
        }
      ],
      "payable": false,
      "stateMutability": "view",
      "type": "function"
    },
    {
      "constant": true,
      "inputs": [
        {
          "name": "UserAddress",
          "type": "address"
        },
        {
          "name": "ArrayKey",
          "type": "uint256"
        }
      ],
      "name": "GetHostingContractAddress",
      "outputs": [
        {
          "name": "value",
          "type": "address"
        }
      ],
      "payable": false,
      "stateMutability": "view",
      "type": "function"
    },
    {
      "constant": true,
      "inputs": [
        {
          "name": "UserAddress",
          "type": "address"
        }
      ],
      "name": "CheckAccountExistence",
      "outputs": [
        {
          "name": "",
          "type": "bool"
        }
      ],
      "payable": false,
      "stateMutability": "view",
      "type": "function"
    },
    {
      "constant": true,
      "inputs": [
        {
          "name": "HostingContractAddress",
          "type": "address"
        }
      ],
      "name": "GetMainContentHash",
      "outputs": [
        {
          "name": "MainContentHash",
          "type": "string"
        }
      ],
      "payable": false,
      "stateMutability": "view",
      "type": "function"
    },
    {
      "constant": true,
      "inputs": [
        {
          "name": "HostingContractAddress",
          "type": "address"
        }
      ],
      "name": "GetContentHashString",
      "outputs": [
        {
          "name": "ContentHashString",
          "type": "string"
        }
      ],
      "payable": false,
      "stateMutability": "view",
      "type": "function"
    },
    {
      "constant": true,
      "inputs": [
        {
          "name": "HostingContractAddress",
          "type": "address"
        }
      ],
      "name": "GetContentPathString",
      "outputs": [
        {
          "name": "ContentPathString",
          "type": "string"
        }
      ],
      "payable": false,
      "stateMutability": "view",
      "type": "function"
    },
    {
      "constant": true,
      "inputs": [
        {
          "name": "HostingContractAddress",
          "type": "address"
        }
      ],
      "name": "GetHostingContractDeployedBlockHeight",
      "outputs": [
        {
          "name": "value",
          "type": "uint256"
        }
      ],
      "payable": false,
      "stateMutability": "view",
      "type": "function"
    },
    {
      "constant": true,
      "inputs": [
        {
          "name": "HostingContractAddress",
          "type": "address"
        }
      ],
      "name": "GetHostingContractExpirationBlockHeight",
      "outputs": [
        {
          "name": "value",
          "type": "uint256"
        }
      ],
      "payable": false,
      "stateMutability": "view",
      "type": "function"
    },
    {
      "constant": true,
      "inputs": [
        {
          "name": "HostingContractAddress",
          "type": "address"
        }
      ],
      "name": "GetHostingContractStorageUsed",
      "outputs": [
        {
          "name": "value",
          "type": "uint32"
        }
      ],
      "payable": false,
      "stateMutability": "view",
      "type": "function"
    },
    {
      "constant": true,
      "inputs": [
        {
          "name": "HostingContractAddress",
          "type": "address"
        }
      ],
      "name": "GetHostingContractName",
      "outputs": [
        {
          "name": "value",
          "type": "string"
        }
      ],
      "payable": false,
      "stateMutability": "view",
      "type": "function"
    },
    {
      "constant": false,
      "inputs": [
        {
          "name": "newOperator",
          "type": "address"
        }
      ],
      "name": "changeOperator",
      "outputs": [],
      "payable": false,
      "stateMutability": "nonpayable",
      "type": "function"
    }
  ],
  "bytecode": "0x608060405234801561001057600080fd5b50336000806101000a81548173ffffffffffffffffffffffffffffffffffffffff021916908373ffffffffffffffffffffffffffffffffffffffff16021790555033600160006101000a81548173ffffffffffffffffffffffffffffffffffffffff021916908373ffffffffffffffffffffffffffffffffffffffff160217905550674563918244f40000600681905550612586806100b06000396000f300608060405260043610610149576000357c0100000000000000000000000000000000000000000000000000000000900463ffffffff16806306394c9b1461014e5780630ad8e54a146101775780632c3027a7146101a057806331e8db11146101dd578063403169ac14610206578063415dfefa1461024357806357618e1d146102805780635a58cd4c146102a957806361268dc9146102c057806366b7004c146102d757806368e15933146103145780638e097614146103515780638f490daf1461038e578063978a627a146103b75780639b0a9add146103e0578063a8f2efd81461041d578063aa8da20b14610446578063af7bbf5a1461046f578063c8ac5fe8146104ac578063ccb726b1146104d5578063d0cd2513146104f1578063d420a7e61461052e578063d4f0d92914610557578063e42f002714610594578063e6dc7817146105d1575b600080fd5b34801561015a57600080fd5b5061017560048036036101709190810190611e56565b61060e565b005b34801561018357600080fd5b5061019e60048036036101999190810190611e56565b6106ad565b005b3480156101ac57600080fd5b506101c760048036036101c29190810190611e56565b610759565b6040516101d491906122e9565b60405180910390f35b3480156101e957600080fd5b5061020460048036036101ff91908101906120dc565b61082b565b005b34801561021257600080fd5b5061022d60048036036102289190810190611e56565b610939565b60405161023a91906123d3565b60405180910390f35b34801561024f57600080fd5b5061026a60048036036102659190810190611e56565b610a0b565b60405161027791906123d3565b60405180910390f35b34801561028c57600080fd5b506102a760048036036102a29190810190611ea8565b610add565b005b3480156102b557600080fd5b506102be610d02565b005b3480156102cc57600080fd5b506102d5610d97565b005b3480156102e357600080fd5b506102fe60048036036102f99190810190611e56565b610e37565b60405161030b91906123ee565b60405180910390f35b34801561032057600080fd5b5061033b60048036036103369190810190611efc565b610f09565b60405161034891906121c9565b60405180910390f35b34801561035d57600080fd5b5061037860048036036103739190810190611e56565b610fde565b6040516103859190612304565b60405180910390f35b34801561039a57600080fd5b506103b560048036036103b09190810190611e56565b6110b5565b005b3480156103c357600080fd5b506103de60048036036103d99190810190611e56565b611154565b005b3480156103ec57600080fd5b5061040760048036036104029190810190611e56565b6111f3565b60405161041491906123ee565b60405180910390f35b34801561042957600080fd5b50610444600480360361043f9190810190611ea8565b6112c5565b005b34801561045257600080fd5b5061046d60048036036104689190810190611e56565b611374565b005b34801561047b57600080fd5b5061049660048036036104919190810190611e56565b611413565b6040516104a39190612304565b60405180910390f35b3480156104b857600080fd5b506104d360048036036104ce9190810190611e56565b6114ea565b005b6104ef60048036036104ea9190810190611fde565b6116db565b005b3480156104fd57600080fd5b5061051860048036036105139190810190611e56565b611918565b6040516105259190612304565b60405180910390f35b34801561053a57600080fd5b5061055560048036036105509190810190611f38565b6119ef565b005b34801561056357600080fd5b5061057e60048036036105799190810190611e56565b611a9e565b60405161058b91906123ee565b60405180910390f35b3480156105a057600080fd5b506105bb60048036036105b69190810190611e56565b611b70565b6040516105c89190612304565b60405180910390f35b3480156105dd57600080fd5b506105f860048036036105f39190810190611e56565b611c47565b6040516106059190612304565b60405180910390f35b6000809054906101000a900473ffffffffffffffffffffffffffffffffffffffff1673ffffffffffffffffffffffffffffffffffffffff163373ffffffffffffffffffffffffffffffffffffffff1614151561066957600080fd5b80600160006101000a81548173ffffffffffffffffffffffffffffffffffffffff021916908373ffffffffffffffffffffffffffffffffffffffff16021790555050565b600460009054906101000a900473ffffffffffffffffffffffffffffffffffffffff1673ffffffffffffffffffffffffffffffffffffffff16630ad8e54a826040518263ffffffff167c010000000000000000000000000000000000000000000000000000000002815260040161072491906121c9565b600060405180830381600087803b15801561073e57600080fd5b505af1158015610752573d6000803e3d6000fd5b5050505050565b6000600460009054906101000a900473ffffffffffffffffffffffffffffffffffffffff1673ffffffffffffffffffffffffffffffffffffffff16632c3027a7836040518263ffffffff167c01000000000000000000000000000000000000000000000000000000000281526004016107d291906121c9565b602060405180830381600087803b1580156107ec57600080fd5b505af1158015610800573d6000803e3d6000fd5b505050506040513d601f19601f820116820180604052506108249190810190611f74565b9050919050565b6000809054906101000a900473ffffffffffffffffffffffffffffffffffffffff1673ffffffffffffffffffffffffffffffffffffffff163373ffffffffffffffffffffffffffffffffffffffff1614151561088657600080fd5b600560009054906101000a900473ffffffffffffffffffffffffffffffffffffffff1673ffffffffffffffffffffffffffffffffffffffff16630b6ff6dd826040518263ffffffff167c01000000000000000000000000000000000000000000000000000000000281526004016108fd91906123d3565b600060405180830381600087803b15801561091757600080fd5b505af115801561092b573d6000803e3d6000fd5b505050508060068190555050565b6000600560009054906101000a900473ffffffffffffffffffffffffffffffffffffffff1673ffffffffffffffffffffffffffffffffffffffff1663403169ac836040518263ffffffff167c01000000000000000000000000000000000000000000000000000000000281526004016109b291906121c9565b602060405180830381600087803b1580156109cc57600080fd5b505af11580156109e0573d6000803e3d6000fd5b505050506040513d601f19601f82011682018060405250610a049190810190612105565b9050919050565b6000600560009054906101000a900473ffffffffffffffffffffffffffffffffffffffff1673ffffffffffffffffffffffffffffffffffffffff1663415dfefa836040518263ffffffff167c0100000000000000000000000000000000000000000000000000000000028152600401610a8491906121c9565b602060405180830381600087803b158015610a9e57600080fd5b505af1158015610ab2573d6000803e3d6000fd5b505050506040513d601f19601f82011682018060405250610ad69190810190612105565b9050919050565b600560009054906101000a900473ffffffffffffffffffffffffffffffffffffffff1673ffffffffffffffffffffffffffffffffffffffff166349d590ef83600260009054906101000a900473ffffffffffffffffffffffffffffffffffffffff166040518363ffffffff167c0100000000000000000000000000000000000000000000000000000000028152600401610b789291906121e4565b600060405180830381600087803b158015610b9257600080fd5b505af1158015610ba6573d6000803e3d6000fd5b50505050600460009054906101000a900473ffffffffffffffffffffffffffffffffffffffff1673ffffffffffffffffffffffffffffffffffffffff166349d590ef33846040518363ffffffff167c0100000000000000000000000000000000000000000000000000000000028152600401610c239291906121e4565b600060405180830381600087803b158015610c3d57600080fd5b505af1158015610c51573d6000803e3d6000fd5b50505050600360009054906101000a900473ffffffffffffffffffffffffffffffffffffffff1673ffffffffffffffffffffffffffffffffffffffff16633f0854a7826040518263ffffffff167c0100000000000000000000000000000000000000000000000000000000028152600401610ccc9190612304565b600060405180830381600087803b158015610ce657600080fd5b505af1158015610cfa573d6000803e3d6000fd5b505050505050565b6000809054906101000a900473ffffffffffffffffffffffffffffffffffffffff1673ffffffffffffffffffffffffffffffffffffffff163373ffffffffffffffffffffffffffffffffffffffff16141515610d5d57600080fd5b6000809054906101000a900473ffffffffffffffffffffffffffffffffffffffff1673ffffffffffffffffffffffffffffffffffffffff16ff5b600560009054906101000a900473ffffffffffffffffffffffffffffffffffffffff1673ffffffffffffffffffffffffffffffffffffffff1663359a198b6040518163ffffffff167c0100000000000000000000000000000000000000000000000000000000028152600401600060405180830381600087803b158015610e1d57600080fd5b505af1158015610e31573d6000803e3d6000fd5b50505050565b6000600560009054906101000a900473ffffffffffffffffffffffffffffffffffffffff1673ffffffffffffffffffffffffffffffffffffffff166366b7004c836040518263ffffffff167c0100000000000000000000000000000000000000000000000000000000028152600401610eb091906121c9565b602060405180830381600087803b158015610eca57600080fd5b505af1158015610ede573d6000803e3d6000fd5b505050506040513d601f19601f82011682018060405250610f02919081019061212e565b9050919050565b6000600460009054906101000a900473ffffffffffffffffffffffffffffffffffffffff1673ffffffffffffffffffffffffffffffffffffffff166368e1593384846040518363ffffffff167c0100000000000000000000000000000000000000000000000000000000028152600401610f84929190612297565b602060405180830381600087803b158015610f9e57600080fd5b505af1158015610fb2573d6000803e3d6000fd5b505050506040513d601f19601f82011682018060405250610fd69190810190611e7f565b905092915050565b6060600560009054906101000a900473ffffffffffffffffffffffffffffffffffffffff1673ffffffffffffffffffffffffffffffffffffffff16638e097614836040518263ffffffff167c010000000000000000000000000000000000000000000000000000000002815260040161105791906121c9565b600060405180830381600087803b15801561107157600080fd5b505af1158015611085573d6000803e3d6000fd5b505050506040513d6000823e3d601f19601f820116820180604052506110ae9190810190611f9d565b9050919050565b6000809054906101000a900473ffffffffffffffffffffffffffffffffffffffff1673ffffffffffffffffffffffffffffffffffffffff163373ffffffffffffffffffffffffffffffffffffffff1614151561111057600080fd5b80600360006101000a81548173ffffffffffffffffffffffffffffffffffffffff021916908373ffffffffffffffffffffffffffffffffffffffff16021790555050565b6000809054906101000a900473ffffffffffffffffffffffffffffffffffffffff1673ffffffffffffffffffffffffffffffffffffffff163373ffffffffffffffffffffffffffffffffffffffff161415156111af57600080fd5b80600560006101000a81548173ffffffffffffffffffffffffffffffffffffffff021916908373ffffffffffffffffffffffffffffffffffffffff16021790555050565b6000600460009054906101000a900473ffffffffffffffffffffffffffffffffffffffff1673ffffffffffffffffffffffffffffffffffffffff16639b0a9add836040518263ffffffff167c010000000000000000000000000000000000000000000000000000000002815260040161126c91906121c9565b602060405180830381600087803b15801561128657600080fd5b505af115801561129a573d6000803e3d6000fd5b505050506040513d601f19601f820116820180604052506112be919081019061212e565b9050919050565b600460009054906101000a900473ffffffffffffffffffffffffffffffffffffffff1673ffffffffffffffffffffffffffffffffffffffff1663a8f2efd883836040518363ffffffff167c010000000000000000000000000000000000000000000000000000000002815260040161133e929190612267565b600060405180830381600087803b15801561135857600080fd5b505af115801561136c573d6000803e3d6000fd5b505050505050565b6000809054906101000a900473ffffffffffffffffffffffffffffffffffffffff1673ffffffffffffffffffffffffffffffffffffffff163373ffffffffffffffffffffffffffffffffffffffff161415156113cf57600080fd5b80600460006101000a81548173ffffffffffffffffffffffffffffffffffffffff021916908373ffffffffffffffffffffffffffffffffffffffff16021790555050565b6060600560009054906101000a900473ffffffffffffffffffffffffffffffffffffffff1673ffffffffffffffffffffffffffffffffffffffff1663af7bbf5a836040518263ffffffff167c010000000000000000000000000000000000000000000000000000000002815260040161148c91906121c9565b600060405180830381600087803b1580156114a657600080fd5b505af11580156114ba573d6000803e3d6000fd5b505050506040513d6000823e3d601f19601f820116820180604052506114e39190810190611f9d565b9050919050565b6000809054906101000a900473ffffffffffffffffffffffffffffffffffffffff1673ffffffffffffffffffffffffffffffffffffffff163373ffffffffffffffffffffffffffffffffffffffff1614151561154557600080fd5b600560009054906101000a900473ffffffffffffffffffffffffffffffffffffffff1673ffffffffffffffffffffffffffffffffffffffff1663c8ac5fe8826040518263ffffffff167c01000000000000000000000000000000000000000000000000000000000281526004016115bc91906121c9565b600060405180830381600087803b1580156115d657600080fd5b505af11580156115ea573d6000803e3d6000fd5b50505050600460009054906101000a900473ffffffffffffffffffffffffffffffffffffffff1673ffffffffffffffffffffffffffffffffffffffff1663c8ac5fe8826040518263ffffffff167c010000000000000000000000000000000000000000000000000000000002815260040161166591906121c9565b600060405180830381600087803b15801561167f57600080fd5b505af1158015611693573d6000803e3d6000fd5b5050505080600260006101000a81548173ffffffffffffffffffffffffffffffffffffffff021916908373ffffffffffffffffffffffffffffffffffffffff16021790555050565b6000600560009054906101000a900473ffffffffffffffffffffffffffffffffffffffff1673ffffffffffffffffffffffffffffffffffffffff16634b8f5af68989898988886040518763ffffffff167c010000000000000000000000000000000000000000000000000000000002815260040161175e96959493929190612326565b602060405180830381600087803b15801561177857600080fd5b505af115801561178c573d6000803e3d6000fd5b505050506040513d601f19601f820116820180604052506117b09190810190611e7f565b9050600460009054906101000a900473ffffffffffffffffffffffffffffffffffffffff1673ffffffffffffffffffffffffffffffffffffffff16635719919382338a8a8a6040518663ffffffff167c010000000000000000000000000000000000000000000000000000000002815260040161183195949392919061220d565b600060405180830381600087803b15801561184b57600080fd5b505af115801561185f573d6000803e3d6000fd5b50505050600360009054906101000a900473ffffffffffffffffffffffffffffffffffffffff1673ffffffffffffffffffffffffffffffffffffffff16638d03673189866040518363ffffffff167c01000000000000000000000000000000000000000000000000000000000281526004016118dc9291906123a3565b600060405180830381600087803b1580156118f657600080fd5b505af115801561190a573d6000803e3d6000fd5b505050505050505050505050565b6060600560009054906101000a900473ffffffffffffffffffffffffffffffffffffffff1673ffffffffffffffffffffffffffffffffffffffff1663d0cd2513836040518263ffffffff167c010000000000000000000000000000000000000000000000000000000002815260040161199191906121c9565b600060405180830381600087803b1580156119ab57600080fd5b505af11580156119bf573d6000803e3d6000fd5b505050506040513d6000823e3d601f19601f820116820180604052506119e89190810190611f9d565b9050919050565b600560009054906101000a900473ffffffffffffffffffffffffffffffffffffffff1673ffffffffffffffffffffffffffffffffffffffff1663de5a8ec583836040518363ffffffff167c0100000000000000000000000000000000000000000000000000000000028152600401611a689291906122c0565b600060405180830381600087803b158015611a8257600080fd5b505af1158015611a96573d6000803e3d6000fd5b505050505050565b6000600460009054906101000a900473ffffffffffffffffffffffffffffffffffffffff1673ffffffffffffffffffffffffffffffffffffffff1663d4f0d929836040518263ffffffff167c0100000000000000000000000000000000000000000000000000000000028152600401611b1791906121c9565b602060405180830381600087803b158015611b3157600080fd5b505af1158015611b45573d6000803e3d6000fd5b505050506040513d601f19601f82011682018060405250611b69919081019061212e565b9050919050565b6060600460009054906101000a900473ffffffffffffffffffffffffffffffffffffffff1673ffffffffffffffffffffffffffffffffffffffff1663e42f0027836040518263ffffffff167c0100000000000000000000000000000000000000000000000000000000028152600401611be991906121c9565b600060405180830381600087803b158015611c0357600080fd5b505af1158015611c17573d6000803e3d6000fd5b505050506040513d6000823e3d601f19601f82011682018060405250611c409190810190611f9d565b9050919050565b6060600560009054906101000a900473ffffffffffffffffffffffffffffffffffffffff1673ffffffffffffffffffffffffffffffffffffffff1663e6dc7817836040518263ffffffff167c0100000000000000000000000000000000000000000000000000000000028152600401611cc091906121c9565b600060405180830381600087803b158015611cda57600080fd5b505af1158015611cee573d6000803e3d6000fd5b505050506040513d6000823e3d601f19601f82011682018060405250611d179190810190611f9d565b9050919050565b6000611d2a82356124b3565b905092915050565b6000611d3e82516124b3565b905092915050565b6000611d5282516124d3565b905092915050565b600082601f8301121515611d6d57600080fd5b8135611d80611d7b82612436565b612409565b91508082526020830160208301858383011115611d9c57600080fd5b611da78382846124f9565b50505092915050565b600082601f8301121515611dc357600080fd5b8151611dd6611dd182612436565b612409565b91508082526020830160208301858383011115611df257600080fd5b611dfd838284612508565b50505092915050565b6000611e1282356124df565b905092915050565b6000611e2682516124df565b905092915050565b6000611e3a82356124e9565b905092915050565b6000611e4e82516124e9565b905092915050565b600060208284031215611e6857600080fd5b6000611e7684828501611d1e565b91505092915050565b600060208284031215611e9157600080fd5b6000611e9f84828501611d32565b91505092915050565b60008060408385031215611ebb57600080fd5b6000611ec985828601611d1e565b925050602083013567ffffffffffffffff811115611ee657600080fd5b611ef285828601611d5a565b9150509250929050565b60008060408385031215611f0f57600080fd5b6000611f1d85828601611d1e565b9250506020611f2e85828601611e06565b9150509250929050565b60008060408385031215611f4b57600080fd5b6000611f5985828601611d1e565b9250506020611f6a85828601611e2e565b9150509250929050565b600060208284031215611f8657600080fd5b6000611f9484828501611d46565b91505092915050565b600060208284031215611faf57600080fd5b600082015167ffffffffffffffff811115611fc957600080fd5b611fd584828501611db0565b91505092915050565b600080600080600080600060e0888a031215611ff957600080fd5b600088013567ffffffffffffffff81111561201357600080fd5b61201f8a828b01611d5a565b975050602088013567ffffffffffffffff81111561203c57600080fd5b6120488a828b01611d5a565b96505060406120598a828b01611e2e565b955050606061206a8a828b01611e2e565b945050608061207b8a828b01611e2e565b93505060a088013567ffffffffffffffff81111561209857600080fd5b6120a48a828b01611d5a565b92505060c088013567ffffffffffffffff8111156120c157600080fd5b6120cd8a828b01611d5a565b91505092959891949750929550565b6000602082840312156120ee57600080fd5b60006120fc84828501611e06565b91505092915050565b60006020828403121561211757600080fd5b600061212584828501611e1a565b91505092915050565b60006020828403121561214057600080fd5b600061214e84828501611e42565b91505092915050565b6121608161246d565b82525050565b61216f8161248d565b82525050565b600061218082612462565b808452612194816020860160208601612508565b61219d8161253b565b602085010191505092915050565b6121b481612499565b82525050565b6121c3816124a3565b82525050565b60006020820190506121de6000830184612157565b92915050565b60006040820190506121f96000830185612157565b6122066020830184612157565b9392505050565b600060a0820190506122226000830188612157565b61222f6020830187612157565b81810360408301526122418186612175565b905061225060608301856121ba565b61225d60808301846121ba565b9695505050505050565b600060408201905061227c6000830185612157565b818103602083015261228e8184612175565b90509392505050565b60006040820190506122ac6000830185612157565b6122b960208301846121ab565b9392505050565b60006040820190506122d56000830185612157565b6122e260208301846121ba565b9392505050565b60006020820190506122fe6000830184612166565b92915050565b6000602082019050818103600083015261231e8184612175565b905092915050565b600060c08201905081810360008301526123408189612175565b905081810360208301526123548188612175565b905061236360408301876121ba565b61237060608301866121ba565b81810360808301526123828185612175565b905081810360a08301526123968184612175565b9050979650505050505050565b600060408201905081810360008301526123bd8185612175565b90506123cc60208301846121ba565b9392505050565b60006020820190506123e860008301846121ab565b92915050565b600060208201905061240360008301846121ba565b92915050565b6000604051905081810181811067ffffffffffffffff8211171561242c57600080fd5b8060405250919050565b600067ffffffffffffffff82111561244d57600080fd5b601f19601f8301169050602081019050919050565b600081519050919050565b600073ffffffffffffffffffffffffffffffffffffffff82169050919050565b60008115159050919050565b6000819050919050565b600063ffffffff82169050919050565b600073ffffffffffffffffffffffffffffffffffffffff82169050919050565b60008115159050919050565b6000819050919050565b600063ffffffff82169050919050565b82818337600083830152505050565b60005b8381101561252657808201518184015260208101905061250b565b83811115612535576000848401525b50505050565b6000601f19601f83011690509190505600a265627a7a72305820e6ac40aaec5cb70f04dd7a12a6aa75bfc8299cce16fca440c7315645f33388986c6578706572696d656e74616cf50037",
  "source": "pragma solidity ^0.4.24;\npragma experimental ABIEncoderV2;\n\ninterface ethoFSDashboard {\n    function SetAccountCollectionAddress(address set) external;\n    function AddNewUser(address UserAddress, string AccountName) external;\n    function RemoveUser(address UserAddress) external;\n    function AddHostingContract(address newContractAddress, address UserAddress, string HostingContractName, uint32 HostingContractDuration, uint32 TotalContractSize) external;\n    function RemoveHostingContract(address UserAddress, address HostingContractAddress) external; \n    function GetUserAccountAddress(address UserAddress) external returns(address value);\n    function GetUserAccountName(address UserAddress) external returns(string value);\n    function GetUserAccountActiveContractCount(address UserAddress) external returns(uint32 value); \n    function GetUserAccountTotalContractCount(address UserAddress) external returns(uint32 value); \n    function GetHostingContractAddress(address UserAddress, uint ArrayKey) external returns(address value);\n    function CheckAccountExistence(address UserAddress) external returns(bool);\n}\ninterface ethoFSHostingContracts {\n    function ScrubContractList() external;\n    function SetHostingContractCost(uint256 set) external;\n    //function AddContentHash(uint32 HostingContractAddress, string newContentHash, string newContentPath) external;\n    function ExtendHostingContract(address HostingContractAddress, uint32 HostingContractExtensionDuration) external payable;\n    function GetMainContentHash(address HostingContractAddress) external returns(string MainContentHash);\n    function GetContentHashString(address HostingContractAddress) external returns(string ContentHashString);\n    function GetContentPathString(address HostingContractAddress) external returns(string ContentPathString);\n    //function GetContentHashCount(uint32 HostingContractAddress) external returns(uint32 value);\n    function GetHostingContractDeployedBlockHeight(address HostingContractAddress) external returns(uint256 value);\n    function GetHostingContractExpirationBlockHeight(address HostingContractAddress) external returns(uint256 value);\n    function GetHostingContractStorageUsed(address HostingContractAddress) external returns(uint32 value);\n    function GetHostingContractName(address HostingContractAddress) external returns(string value);\n    function AddHostingContract(string MainContentHash, string HostingContractName, uint32 HostingContractDuration, uint32 TotalContractSize, string ContentHashString, string ContentPathString) external returns(address value);\n    function RemoveHostingContract(address HostingContractAddress, address AccountCollectionAddress) external;\n    function SetAccountCollectionAddress(address AccountCollectionAddress) external;\n}\ninterface PinStorage {\n    function PinAdd(string pinToAdd, uint32 pinSize) external;\n    function PinRemove(string pin) external;\n}\ncontract ethoFSController {\n    function deleteContract() public onlyOwner {\n        selfdestruct(owner);\n    }\n\n    address internal owner; // owner of the contract\n    address internal operator; // operator or control contract\n    address AccountCollectionAddress;\n    PinStorage internal PinStorageAddress;\n    ethoFSDashboard internal EthoFSDashboardAddress;\n    ethoFSHostingContracts internal EthoFSHostingContractsAddress;\n    uint256 HostingCost;\n\n//    constructor (address pinStorageAddress, address ethoFSDashboardAddress, address ethoFSHostingContractsAddress) public {\n    constructor () public {\n        owner = msg.sender;\n        operator = msg.sender;\n        HostingCost = 5000000000000000000;    \n        //PinStorageAddress = PinStorage(pinStorageAddress);\n        //EthoFSDashboardAddress = ethoFSDashboard(ethoFSDashboardAddress);\n        //EthoFSHostingContractsAddress = ethoFSHostingContracts(ethoFSHostingContractsAddress);\n    }\n    \n    function SetAccountCollectionAddress(address set) public onlyOwner {\n        EthoFSHostingContractsAddress.SetAccountCollectionAddress(set);\n        EthoFSDashboardAddress.SetAccountCollectionAddress(set);\n        AccountCollectionAddress = set;\n    }\n    function SetHostingCost(uint256 hostingCost) public onlyOwner {\n        EthoFSHostingContractsAddress.SetHostingContractCost(hostingCost);\n        HostingCost = hostingCost;\n    }\n    function SetPinStorageAddress(address pinStorageAddress) public onlyOwner {\n        PinStorageAddress = PinStorage(pinStorageAddress);\n    }\n    function SetEthoFSDashboardAddress(address ethoFSDashboardAddress) public onlyOwner {\n        EthoFSDashboardAddress = ethoFSDashboard(ethoFSDashboardAddress);\n    }\n    function SetEthoFSHostingContractsAddress(address ethoFSHostingContractsAddress) public onlyOwner {\n        EthoFSHostingContractsAddress = ethoFSHostingContracts(ethoFSHostingContractsAddress);\n    }\n    function AddNewUser(address UserAddress, string memory AccountName) public{\n        EthoFSDashboardAddress.AddNewUser(UserAddress, AccountName);\n    }\n    function RemoveUser(address UserAddress) public{\n        EthoFSDashboardAddress.RemoveUser(UserAddress);\n    }\n    function AddNewContract(string MainContentHash, string memory HostingContractName, uint32 HostingContractDuration, uint32 TotalContractSize, uint32 pinSize, string ContentHashString, string ContentPathString) public payable{\n        address newContractAddress = EthoFSHostingContractsAddress.AddHostingContract(MainContentHash, HostingContractName, HostingContractDuration, TotalContractSize, ContentHashString, ContentPathString);\n        EthoFSDashboardAddress.AddHostingContract(newContractAddress, msg.sender, HostingContractName, HostingContractDuration, TotalContractSize);\n        PinStorageAddress.PinAdd(MainContentHash, pinSize);\n/*\n        uint i = 0;\n        while (i < (tempHashArray.length)) {\n            AddContentHash(newContractAddress, tempHashArray[i], tempPathArray[i]); \n            PinStorageAddress.PinAdd(tempHashArray[i], pinSize);\n            i++;\n        }\n*/\n    }\n/*\n    function AddContentHash(address HostingContractAddress, string newContentHash, string newContentPath) public{\n        EthoFSHostingContractsAddress.AddContentHash(HostingContractAddress, newContentHash, newContentPath);\n    }\n*/\n    function RemoveHostingContract(address HostingContractAddress, string MainContentHash) public{\n        EthoFSHostingContractsAddress.RemoveHostingContract(HostingContractAddress, AccountCollectionAddress);\n        EthoFSDashboardAddress.RemoveHostingContract(msg.sender, HostingContractAddress);\n        PinStorageAddress.PinRemove(MainContentHash);\n/*\n        uint i = 0;\n        while (i < (tempHashArray.length)) {\n            PinStorageAddress.PinRemove(tempHashArray[i]);\n            i++;\n        }\n*/\n    }\n    function ExtendContract(address HostingContractAddress, uint32 HostingContractExtensionDuration) public{\n        EthoFSHostingContractsAddress.ExtendHostingContract(HostingContractAddress, HostingContractExtensionDuration);\n    }\n    function ScrubHostingContracts() public {\n        EthoFSHostingContractsAddress.ScrubContractList();\n    }\n    function GetUserAccountName(address UserAddress) public view returns(string value){\n        return EthoFSDashboardAddress.GetUserAccountName(UserAddress);\n    }\n    function GetUserAccountActiveContractCount(address UserAddress) public view returns(uint32 value){\n        return EthoFSDashboardAddress.GetUserAccountActiveContractCount(UserAddress);\n    }\n    function GetUserAccountTotalContractCount(address UserAddress) public view returns(uint32 value){\n        return EthoFSDashboardAddress.GetUserAccountTotalContractCount(UserAddress);\n    }\n    function GetHostingContractAddress(address UserAddress, uint ArrayKey) public view returns(address value){\n        return EthoFSDashboardAddress.GetHostingContractAddress(UserAddress, ArrayKey);\n    }\n    function CheckAccountExistence(address UserAddress) public view returns(bool){\n        return EthoFSDashboardAddress.CheckAccountExistence(UserAddress);\n    }\n    function GetMainContentHash(address HostingContractAddress) public view returns(string MainContentHash){\n        return EthoFSHostingContractsAddress.GetMainContentHash(HostingContractAddress);\n    }\n    function GetContentHashString(address HostingContractAddress) public view returns(string ContentHashString){\n        return EthoFSHostingContractsAddress.GetContentHashString(HostingContractAddress);\n    }\n    function GetContentPathString(address HostingContractAddress) public view returns(string ContentPathString){\n        return EthoFSHostingContractsAddress.GetContentPathString(HostingContractAddress);\n    }\n/*\n    function GetContentHashCount(address HostingContractAddress) public view returns(uint32 value){\n        return EthoFSHostingContractsAddress.GetContentHashCount(HostingContractAddress);\n    }\n*/\n    function GetHostingContractDeployedBlockHeight(address HostingContractAddress) public view returns(uint256 value){\n        return EthoFSHostingContractsAddress.GetHostingContractDeployedBlockHeight(HostingContractAddress);\n    }\n    function GetHostingContractExpirationBlockHeight(address HostingContractAddress) public view returns(uint256 value){\n        return EthoFSHostingContractsAddress.GetHostingContractExpirationBlockHeight(HostingContractAddress);\n    }\n    function GetHostingContractStorageUsed(address HostingContractAddress) public view returns(uint32 value){\n        return EthoFSHostingContractsAddress.GetHostingContractStorageUsed(HostingContractAddress);\n    }\n    function GetHostingContractName(address HostingContractAddress) public view returns(string value){\n        return EthoFSHostingContractsAddress.GetHostingContractName(HostingContractAddress);\n    }\n\n    modifier onlyOwner() \n    {\n       if (msg.sender != owner) revert();\n       _;\n    }\n    modifier onlyOwnerOrOperator() \n    {\n       if (msg.sender != owner && msg.sender != operator) revert();\n       _;\n    }\n    function changeOperator(address newOperator) public onlyOwner\n    {\n       operator = newOperator;\n    }\n} \n",
  "sourcePath": "/home/ether1node/contracts/ethofs/contracts/ethoFSController.sol",
  "compiler": {
    "name": "solc",
    "version": "0.4.24+commit.e67f0147.Emscripten.clang"
  },
  "schemaVersion": "2.0.1",
  "updatedAt": "2018-11-28T20:38:28.714Z"
}