{
  "contractName": "ethoFSDashboard",
  "abi": [
    {
      "constant": true,
      "inputs": [],
      "name": "userCount",
      "outputs": [
        {
          "name": "",
          "type": "uint32"
        }
      ],
      "payable": false,
      "stateMutability": "view",
      "type": "function"
    },
    {
      "constant": true,
      "inputs": [
        {
          "name": "",
          "type": "address"
        }
      ],
      "name": "userAccounts",
      "outputs": [
        {
          "name": "userAddress",
          "type": "address"
        },
        {
          "name": "accountName",
          "type": "string"
        },
        {
          "name": "activeContractCount",
          "type": "uint32"
        },
        {
          "name": "totalContractCount",
          "type": "uint32"
        }
      ],
      "payable": false,
      "stateMutability": "view",
      "type": "function"
    },
    {
      "constant": true,
      "inputs": [],
      "name": "hostingCost",
      "outputs": [
        {
          "name": "",
          "type": "uint256"
        }
      ],
      "payable": false,
      "stateMutability": "view",
      "type": "function"
    },
    {
      "inputs": [],
      "payable": false,
      "stateMutability": "nonpayable",
      "type": "constructor"
    },
    {
      "constant": false,
      "inputs": [],
      "name": "deleteContract",
      "outputs": [],
      "payable": false,
      "stateMutability": "nonpayable",
      "type": "function"
    },
    {
      "constant": false,
      "inputs": [
        {
          "name": "set",
          "type": "uint32"
        }
      ],
      "name": "SetUserCount",
      "outputs": [],
      "payable": false,
      "stateMutability": "nonpayable",
      "type": "function"
    },
    {
      "constant": false,
      "inputs": [
        {
          "name": "set",
          "type": "address"
        }
      ],
      "name": "SetAccountCollectionAddress",
      "outputs": [],
      "payable": false,
      "stateMutability": "nonpayable",
      "type": "function"
    },
    {
      "constant": true,
      "inputs": [
        {
          "name": "UserAddress",
          "type": "address"
        }
      ],
      "name": "CheckAccountExistence",
      "outputs": [
        {
          "name": "",
          "type": "bool"
        }
      ],
      "payable": false,
      "stateMutability": "view",
      "type": "function"
    },
    {
      "constant": false,
      "inputs": [
        {
          "name": "UserAddress",
          "type": "address"
        },
        {
          "name": "AccountName",
          "type": "string"
        }
      ],
      "name": "AddNewUser",
      "outputs": [],
      "payable": false,
      "stateMutability": "nonpayable",
      "type": "function"
    },
    {
      "constant": false,
      "inputs": [
        {
          "name": "UserAddress",
          "type": "address"
        }
      ],
      "name": "RemoveUser",
      "outputs": [],
      "payable": false,
      "stateMutability": "nonpayable",
      "type": "function"
    },
    {
      "constant": false,
      "inputs": [
        {
          "name": "newContractAddress",
          "type": "address"
        },
        {
          "name": "UserAddress",
          "type": "address"
        },
        {
          "name": "HostingContractName",
          "type": "string"
        },
        {
          "name": "HostingContractDuration",
          "type": "uint32"
        },
        {
          "name": "TotalContractSize",
          "type": "uint32"
        }
      ],
      "name": "AddHostingContract",
      "outputs": [
        {
          "name": "NewContractAddress",
          "type": "address"
        }
      ],
      "payable": false,
      "stateMutability": "nonpayable",
      "type": "function"
    },
    {
      "constant": false,
      "inputs": [
        {
          "name": "UserAddress",
          "type": "address"
        },
        {
          "name": "HostingContractAddress",
          "type": "address"
        }
      ],
      "name": "RemoveHostingContract",
      "outputs": [],
      "payable": false,
      "stateMutability": "nonpayable",
      "type": "function"
    },
    {
      "constant": true,
      "inputs": [
        {
          "name": "UserAddress",
          "type": "address"
        }
      ],
      "name": "GetUserAccountAddress",
      "outputs": [
        {
          "name": "value",
          "type": "address"
        }
      ],
      "payable": false,
      "stateMutability": "view",
      "type": "function"
    },
    {
      "constant": true,
      "inputs": [
        {
          "name": "UserAddress",
          "type": "address"
        }
      ],
      "name": "GetUserAccountName",
      "outputs": [
        {
          "name": "value",
          "type": "string"
        }
      ],
      "payable": false,
      "stateMutability": "view",
      "type": "function"
    },
    {
      "constant": true,
      "inputs": [
        {
          "name": "UserAddress",
          "type": "address"
        }
      ],
      "name": "GetUserAccountActiveContractCount",
      "outputs": [
        {
          "name": "value",
          "type": "uint32"
        }
      ],
      "payable": false,
      "stateMutability": "view",
      "type": "function"
    },
    {
      "constant": true,
      "inputs": [
        {
          "name": "UserAddress",
          "type": "address"
        }
      ],
      "name": "GetUserAccountTotalContractCount",
      "outputs": [
        {
          "name": "value",
          "type": "uint32"
        }
      ],
      "payable": false,
      "stateMutability": "view",
      "type": "function"
    },
    {
      "constant": true,
      "inputs": [
        {
          "name": "UserAddress",
          "type": "address"
        },
        {
          "name": "ArrayKey",
          "type": "uint256"
        }
      ],
      "name": "GetHostingContractAddress",
      "outputs": [
        {
          "name": "value",
          "type": "address"
        }
      ],
      "payable": false,
      "stateMutability": "view",
      "type": "function"
    },
    {
      "constant": false,
      "inputs": [
        {
          "name": "newOperator",
          "type": "address"
        }
      ],
      "name": "changeOperator",
      "outputs": [],
      "payable": false,
      "stateMutability": "nonpayable",
      "type": "function"
    }
  ],
  "bytecode": "0x608060405234801561001057600080fd5b5033600160046101000a81548173ffffffffffffffffffffffffffffffffffffffff021916908373ffffffffffffffffffffffffffffffffffffffff16021790555033600260006101000a81548173ffffffffffffffffffffffffffffffffffffffff021916908373ffffffffffffffffffffffffffffffffffffffff1602179055506000600160006101000a81548163ffffffff021916908363ffffffff160217905550674563918244f400006000819055506123ca806100d36000396000f3006080604052600436106100f1576000357c0100000000000000000000000000000000000000000000000000000000900463ffffffff16806306394c9b146100f657806307973ccf146101395780630ad8e54a146101705780632c1ca1ac146101b35780632c3027a71461023657806349d590ef146102915780635251d91c146102f457806357199193146104095780635a58cd4c1461051257806368e15933146105295780637cdda87e146105b657806397e36c63146105e95780639b0a9add14610614578063a8f2efd814610677578063c8ac5fe814610700578063d4f0d92914610743578063e42f0027146107a6575b600080fd5b34801561010257600080fd5b50610137600480360381019080803573ffffffffffffffffffffffffffffffffffffffff169060200190929190505050610862565b005b34801561014557600080fd5b5061014e610902565b604051808263ffffffff1663ffffffff16815260200191505060405180910390f35b34801561017c57600080fd5b506101b1600480360381019080803573ffffffffffffffffffffffffffffffffffffffff169060200190929190505050610918565b005b3480156101bf57600080fd5b506101f4600480360381019080803573ffffffffffffffffffffffffffffffffffffffff169060200190929190505050610acd565b604051808273ffffffffffffffffffffffffffffffffffffffff1673ffffffffffffffffffffffffffffffffffffffff16815260200191505060405180910390f35b34801561024257600080fd5b50610277600480360381019080803573ffffffffffffffffffffffffffffffffffffffff169060200190929190505050610bef565b604051808215151515815260200191505060405180910390f35b34801561029d57600080fd5b506102f2600480360381019080803573ffffffffffffffffffffffffffffffffffffffff169060200190929190803573ffffffffffffffffffffffffffffffffffffffff169060200190929190505050610c9a565b005b34801561030057600080fd5b50610335600480360381019080803573ffffffffffffffffffffffffffffffffffffffff169060200190929190505050610e65565b604051808573ffffffffffffffffffffffffffffffffffffffff1673ffffffffffffffffffffffffffffffffffffffff168152602001806020018463ffffffff1663ffffffff1681526020018363ffffffff1663ffffffff168152602001828103825285818151815260200191508051906020019080838360005b838110156103cb5780820151818401526020810190506103b0565b50505050905090810190601f1680156103f85780820380516001836020036101000a031916815260200191505b509550505050505060405180910390f35b34801561041557600080fd5b506104d0600480360381019080803573ffffffffffffffffffffffffffffffffffffffff169060200190929190803573ffffffffffffffffffffffffffffffffffffffff169060200190929190803590602001908201803590602001908080601f0160208091040260200160405190810160405280939291908181526020018383808284378201915050505050509192919290803563ffffffff169060200190929190803563ffffffff169060200190929190505050610f6d565b604051808273ffffffffffffffffffffffffffffffffffffffff1673ffffffffffffffffffffffffffffffffffffffff16815260200191505060405180910390f35b34801561051e57600080fd5b506105276111cd565b005b34801561053557600080fd5b50610574600480360381019080803573ffffffffffffffffffffffffffffffffffffffff16906020019092919080359060200190929190505050611264565b604051808273ffffffffffffffffffffffffffffffffffffffff1673ffffffffffffffffffffffffffffffffffffffff16815260200191505060405180910390f35b3480156105c257600080fd5b506105e7600480360381019080803563ffffffff169060200190929190505050611333565b005b3480156105f557600080fd5b506105fe61140d565b6040518082815260200191505060405180910390f35b34801561062057600080fd5b50610655600480360381019080803573ffffffffffffffffffffffffffffffffffffffff169060200190929190505050611413565b604051808263ffffffff1663ffffffff16815260200191505060405180910390f35b34801561068357600080fd5b506106fe600480360381019080803573ffffffffffffffffffffffffffffffffffffffff169060200190929190803590602001908201803590602001908080601f0160208091040260200160405190810160405280939291908181526020018383808284378201915050505050509192919290505050611525565b005b34801561070c57600080fd5b50610741600480360381019080803573ffffffffffffffffffffffffffffffffffffffff169060200190929190505050611819565b005b34801561074f57600080fd5b50610784600480360381019080803573ffffffffffffffffffffffffffffffffffffffff169060200190929190505050611913565b604051808263ffffffff1663ffffffff16815260200191505060405180910390f35b3480156107b257600080fd5b506107e7600480360381019080803573ffffffffffffffffffffffffffffffffffffffff169060200190929190505050611a25565b6040518080602001828103825283818151815260200191508051906020019080838360005b8381101561082757808201518184015260208101905061080c565b50505050905090810190601f1680156108545780820380516001836020036101000a031916815260200191505b509250505060405180910390f35b600160049054906101000a900473ffffffffffffffffffffffffffffffffffffffff1673ffffffffffffffffffffffffffffffffffffffff163373ffffffffffffffffffffffffffffffffffffffff161415156108be57600080fd5b80600260006101000a81548173ffffffffffffffffffffffffffffffffffffffff021916908373ffffffffffffffffffffffffffffffffffffffff16021790555050565b600160009054906101000a900463ffffffff1681565b600160049054906101000a900473ffffffffffffffffffffffffffffffffffffffff1673ffffffffffffffffffffffffffffffffffffffff163373ffffffffffffffffffffffffffffffffffffffff16141580156109c45750600260009054906101000a900473ffffffffffffffffffffffffffffffffffffffff1673ffffffffffffffffffffffffffffffffffffffff163373ffffffffffffffffffffffffffffffffffffffff1614155b156109ce57600080fd5b600460008273ffffffffffffffffffffffffffffffffffffffff1673ffffffffffffffffffffffffffffffffffffffff168152602001908152602001600020600080820160006101000a81549073ffffffffffffffffffffffffffffffffffffffff0219169055600182016000610a459190612145565b6002820160006101000a81549063ffffffff02191690556002820160046101000a81549063ffffffff0219169055600382016000610a83919061218d565b5050610a8e81611bbf565b6001600081819054906101000a900463ffffffff16809291906001900391906101000a81548163ffffffff021916908363ffffffff1602179055505050565b6000600160049054906101000a900473ffffffffffffffffffffffffffffffffffffffff1673ffffffffffffffffffffffffffffffffffffffff163373ffffffffffffffffffffffffffffffffffffffff1614158015610b7b5750600260009054906101000a900473ffffffffffffffffffffffffffffffffffffffff1673ffffffffffffffffffffffffffffffffffffffff163373ffffffffffffffffffffffffffffffffffffffff1614155b15610b8557600080fd5b600460008373ffffffffffffffffffffffffffffffffffffffff1673ffffffffffffffffffffffffffffffffffffffff16815260200190815260200160002060000160009054906101000a900473ffffffffffffffffffffffffffffffffffffffff169050919050565b60008073ffffffffffffffffffffffffffffffffffffffff16600460008473ffffffffffffffffffffffffffffffffffffffff1673ffffffffffffffffffffffffffffffffffffffff16815260200190815260200160002060000160009054906101000a900473ffffffffffffffffffffffffffffffffffffffff1673ffffffffffffffffffffffffffffffffffffffff161415610c905760009050610c95565b600190505b919050565b6000600160049054906101000a900473ffffffffffffffffffffffffffffffffffffffff1673ffffffffffffffffffffffffffffffffffffffff163373ffffffffffffffffffffffffffffffffffffffff1614158015610d485750600260009054906101000a900473ffffffffffffffffffffffffffffffffffffffff1673ffffffffffffffffffffffffffffffffffffffff163373ffffffffffffffffffffffffffffffffffffffff1614155b15610d5257600080fd5b610d5c8383611bd9565b9050610d688382611d22565b600460008473ffffffffffffffffffffffffffffffffffffffff1673ffffffffffffffffffffffffffffffffffffffff168152602001908152602001600020600201600081819054906101000a900463ffffffff16809291906001900391906101000a81548163ffffffff021916908363ffffffff16021790555050600460008473ffffffffffffffffffffffffffffffffffffffff1673ffffffffffffffffffffffffffffffffffffffff168152602001908152602001600020600201600481819054906101000a900463ffffffff16809291906001900391906101000a81548163ffffffff021916908363ffffffff16021790555050505050565b60046020528060005260406000206000915090508060000160009054906101000a900473ffffffffffffffffffffffffffffffffffffffff1690806001018054600181600116156101000203166002900480601f016020809104026020016040519081016040528092919081815260200182805460018160011615610100020316600290048015610f375780601f10610f0c57610100808354040283529160200191610f37565b820191906000526020600020905b815481529060010190602001808311610f1a57829003601f168201915b5050505050908060020160009054906101000a900463ffffffff16908060020160049054906101000a900463ffffffff16905084565b6000600160049054906101000a900473ffffffffffffffffffffffffffffffffffffffff1673ffffffffffffffffffffffffffffffffffffffff163373ffffffffffffffffffffffffffffffffffffffff161415801561101b5750600260009054906101000a900473ffffffffffffffffffffffffffffffffffffffff1673ffffffffffffffffffffffffffffffffffffffff163373ffffffffffffffffffffffffffffffffffffffff1614155b1561102557600080fd5b600460008673ffffffffffffffffffffffffffffffffffffffff1673ffffffffffffffffffffffffffffffffffffffff1681526020019081526020016000206003018690806001815401808255809150509060018203906000526020600020016000909192909190916101000a81548173ffffffffffffffffffffffffffffffffffffffff021916908373ffffffffffffffffffffffffffffffffffffffff16021790555050600460008673ffffffffffffffffffffffffffffffffffffffff1673ffffffffffffffffffffffffffffffffffffffff168152602001908152602001600020600201600081819054906101000a900463ffffffff168092919060010191906101000a81548163ffffffff021916908363ffffffff16021790555050600460008673ffffffffffffffffffffffffffffffffffffffff1673ffffffffffffffffffffffffffffffffffffffff168152602001908152602001600020600201600481819054906101000a900463ffffffff168092919060010191906101000a81548163ffffffff021916908363ffffffff1602179055505085905095945050505050565b600160049054906101000a900473ffffffffffffffffffffffffffffffffffffffff1673ffffffffffffffffffffffffffffffffffffffff163373ffffffffffffffffffffffffffffffffffffffff1614151561122957600080fd5b600160049054906101000a900473ffffffffffffffffffffffffffffffffffffffff1673ffffffffffffffffffffffffffffffffffffffff16ff5b600080600160049054906101000a900473ffffffffffffffffffffffffffffffffffffffff1673ffffffffffffffffffffffffffffffffffffffff163373ffffffffffffffffffffffffffffffffffffffff16141580156113135750600260009054906101000a900473ffffffffffffffffffffffffffffffffffffffff1673ffffffffffffffffffffffffffffffffffffffff163373ffffffffffffffffffffffffffffffffffffffff1614155b1561131d57600080fd5b6113278484611eee565b90508091505092915050565b600160049054906101000a900473ffffffffffffffffffffffffffffffffffffffff1673ffffffffffffffffffffffffffffffffffffffff163373ffffffffffffffffffffffffffffffffffffffff16141580156113df5750600260009054906101000a900473ffffffffffffffffffffffffffffffffffffffff1673ffffffffffffffffffffffffffffffffffffffff163373ffffffffffffffffffffffffffffffffffffffff1614155b156113e957600080fd5b80600160006101000a81548163ffffffff021916908363ffffffff16021790555050565b60005481565b6000600160049054906101000a900473ffffffffffffffffffffffffffffffffffffffff1673ffffffffffffffffffffffffffffffffffffffff163373ffffffffffffffffffffffffffffffffffffffff16141580156114c15750600260009054906101000a900473ffffffffffffffffffffffffffffffffffffffff1673ffffffffffffffffffffffffffffffffffffffff163373ffffffffffffffffffffffffffffffffffffffff1614155b156114cb57600080fd5b600460008373ffffffffffffffffffffffffffffffffffffffff1673ffffffffffffffffffffffffffffffffffffffff16815260200190815260200160002060020160049054906101000a900463ffffffff169050919050565b61152d6121ae565b600160049054906101000a900473ffffffffffffffffffffffffffffffffffffffff1673ffffffffffffffffffffffffffffffffffffffff163373ffffffffffffffffffffffffffffffffffffffff16141580156115d95750600260009054906101000a900473ffffffffffffffffffffffffffffffffffffffff1673ffffffffffffffffffffffffffffffffffffffff163373ffffffffffffffffffffffffffffffffffffffff1614155b156115e357600080fd5b60a0604051908101604052808473ffffffffffffffffffffffffffffffffffffffff168152602001838152602001600063ffffffff168152602001600063ffffffff168152602001600060405190808252806020026020018201604052801561165b5781602001602082028038833980820191505090505b50815250905080600460008573ffffffffffffffffffffffffffffffffffffffff1673ffffffffffffffffffffffffffffffffffffffff16815260200190815260200160002060008201518160000160006101000a81548173ffffffffffffffffffffffffffffffffffffffff021916908373ffffffffffffffffffffffffffffffffffffffff1602179055506020820151816001019080519060200190611704929190612200565b5060408201518160020160006101000a81548163ffffffff021916908363ffffffff16021790555060608201518160020160046101000a81548163ffffffff021916908363ffffffff160217905550608082015181600301908051906020019061176f929190612280565b5090505060058390806001815401808255809150509060018203906000526020600020016000909192909190916101000a81548173ffffffffffffffffffffffffffffffffffffffff021916908373ffffffffffffffffffffffffffffffffffffffff160217905550506001600081819054906101000a900463ffffffff168092919060010191906101000a81548163ffffffff021916908363ffffffff16021790555050505050565b600160049054906101000a900473ffffffffffffffffffffffffffffffffffffffff1673ffffffffffffffffffffffffffffffffffffffff163373ffffffffffffffffffffffffffffffffffffffff16141580156118c55750600260009054906101000a900473ffffffffffffffffffffffffffffffffffffffff1673ffffffffffffffffffffffffffffffffffffffff163373ffffffffffffffffffffffffffffffffffffffff1614155b156118cf57600080fd5b80600360006101000a81548173ffffffffffffffffffffffffffffffffffffffff021916908373ffffffffffffffffffffffffffffffffffffffff16021790555050565b6000600160049054906101000a900473ffffffffffffffffffffffffffffffffffffffff1673ffffffffffffffffffffffffffffffffffffffff163373ffffffffffffffffffffffffffffffffffffffff16141580156119c15750600260009054906101000a900473ffffffffffffffffffffffffffffffffffffffff1673ffffffffffffffffffffffffffffffffffffffff163373ffffffffffffffffffffffffffffffffffffffff1614155b156119cb57600080fd5b600460008373ffffffffffffffffffffffffffffffffffffffff1673ffffffffffffffffffffffffffffffffffffffff16815260200190815260200160002060020160009054906101000a900463ffffffff169050919050565b6060600160049054906101000a900473ffffffffffffffffffffffffffffffffffffffff1673ffffffffffffffffffffffffffffffffffffffff163373ffffffffffffffffffffffffffffffffffffffff1614158015611ad35750600260009054906101000a900473ffffffffffffffffffffffffffffffffffffffff1673ffffffffffffffffffffffffffffffffffffffff163373ffffffffffffffffffffffffffffffffffffffff1614155b15611add57600080fd5b600460008373ffffffffffffffffffffffffffffffffffffffff1673ffffffffffffffffffffffffffffffffffffffff1681526020019081526020016000206001018054600181600116156101000203166002900480601f016020809104026020016040519081016040528092919081815260200182805460018160011615610100020316600290048015611bb35780601f10611b8857610100808354040283529160200191611bb3565b820191906000526020600020905b815481529060010190602001808311611b9657829003601f168201915b50505050509050919050565b6000611bca82611f72565b9050611bd58161207a565b5050565b600080600090505b82604051808273ffffffffffffffffffffffffffffffffffffffff1673ffffffffffffffffffffffffffffffffffffffff166c01000000000000000000000000028152601401915050604051809103902060001916600460008673ffffffffffffffffffffffffffffffffffffffff1673ffffffffffffffffffffffffffffffffffffffff16815260200190815260200160002060030182815481101515611c8557fe5b9060005260206000200160009054906101000a900473ffffffffffffffffffffffffffffffffffffffff16604051808273ffffffffffffffffffffffffffffffffffffffff1673ffffffffffffffffffffffffffffffffffffffff166c01000000000000000000000000028152601401915050604051809103902060001916141515611d18578080600101915050611be1565b8091505092915050565b5b6001600460008473ffffffffffffffffffffffffffffffffffffffff1673ffffffffffffffffffffffffffffffffffffffff1681526020019081526020016000206003018054905003811015611e9457600460008373ffffffffffffffffffffffffffffffffffffffff1673ffffffffffffffffffffffffffffffffffffffff16815260200190815260200160002060030160018201815481101515611dc557fe5b9060005260206000200160009054906101000a900473ffffffffffffffffffffffffffffffffffffffff16600460008473ffffffffffffffffffffffffffffffffffffffff1673ffffffffffffffffffffffffffffffffffffffff16815260200190815260200160002060030182815481101515611e3f57fe5b9060005260206000200160006101000a81548173ffffffffffffffffffffffffffffffffffffffff021916908373ffffffffffffffffffffffffffffffffffffffff1602179055508080600101915050611d23565b600460008373ffffffffffffffffffffffffffffffffffffffff1673ffffffffffffffffffffffffffffffffffffffff168152602001908152602001600020600301805480919060019003611ee9919061230a565b505050565b6000600460008473ffffffffffffffffffffffffffffffffffffffff1673ffffffffffffffffffffffffffffffffffffffff16815260200190815260200160002060030182815481101515611f3f57fe5b9060005260206000200160009054906101000a900473ffffffffffffffffffffffffffffffffffffffff16905092915050565b600080600090505b82604051808273ffffffffffffffffffffffffffffffffffffffff1673ffffffffffffffffffffffffffffffffffffffff166c01000000000000000000000000028152601401915050604051809103902060001916600582815481101515611fde57fe5b9060005260206000200160009054906101000a900473ffffffffffffffffffffffffffffffffffffffff16604051808273ffffffffffffffffffffffffffffffffffffffff1673ffffffffffffffffffffffffffffffffffffffff166c01000000000000000000000000028152601401915050604051809103902060001916141515612071578080600101915050611f7a565b80915050919050565b5b60016005805490500381101561212c5760056001820181548110151561209d57fe5b9060005260206000200160009054906101000a900473ffffffffffffffffffffffffffffffffffffffff166005828154811015156120d757fe5b9060005260206000200160006101000a81548173ffffffffffffffffffffffffffffffffffffffff021916908373ffffffffffffffffffffffffffffffffffffffff160217905550808060010191505061207b565b6005805480919060019003612141919061230a565b5050565b50805460018160011615610100020316600290046000825580601f1061216b575061218a565b601f0160209004906000526020600020908101906121899190612336565b5b50565b50805460008255906000526020600020908101906121ab9190612336565b50565b60a060405190810160405280600073ffffffffffffffffffffffffffffffffffffffff16815260200160608152602001600063ffffffff168152602001600063ffffffff168152602001606081525090565b828054600181600116156101000203166002900490600052602060002090601f016020900481019282601f1061224157805160ff191683800117855561226f565b8280016001018555821561226f579182015b8281111561226e578251825591602001919060010190612253565b5b50905061227c9190612336565b5090565b8280548282559060005260206000209081019282156122f9579160200282015b828111156122f85782518260006101000a81548173ffffffffffffffffffffffffffffffffffffffff021916908373ffffffffffffffffffffffffffffffffffffffff160217905550916020019190600101906122a0565b5b509050612306919061235b565b5090565b815481835581811115612331578183600052602060002091820191016123309190612336565b5b505050565b61235891905b8082111561235457600081600090555060010161233c565b5090565b90565b61239b91905b8082111561239757600081816101000a81549073ffffffffffffffffffffffffffffffffffffffff021916905550600101612361565b5090565b905600a165627a7a723058203427fd992576315c315c4fced260d3c8a00612c0f6455acbdf9f94f2660d2c170029",
  "source": "pragma solidity ^0.4.21;\n\ncontract ethoFSDashboard {\n    function deleteContract() public onlyOwner {\n        selfdestruct(owner);\n    }\n\n    uint256 public hostingCost;\n    uint32 public userCount;\n    address internal owner; // owner of the contract\n    address internal operator; // operator or control contract\n    address accountCollectionAddress;\n    mapping (address => userAccount) public userAccounts;\n    address[] userAccountAddresses;\n    struct userAccount {\n        address userAddress;\n        string accountName;\n        uint32 activeContractCount;\n        uint32 totalContractCount;\n        address[] hostingContractAddresses;\n    }\n    function ethoFSDashboard () public {\n        owner = msg.sender;\n        operator = msg.sender;\n        userCount = 0;\n        hostingCost = 5000000000000000000;\n    }\n    function SetUserCount(uint32 set) public onlyOwnerOrOperator {\n        userCount = set;\n    }\n    function SetAccountCollectionAddress(address set) public onlyOwnerOrOperator {\n        accountCollectionAddress = set;\n    }\n    function CheckAccountExistence(address UserAddress) public view returns(bool) {\n         if(userAccounts[UserAddress].userAddress == address(0x0)) {\n             return false;\n         } \n         return true;\n    }\n    function AddNewUser(address UserAddress, string AccountName) public onlyOwnerOrOperator {\n        userAccount memory newUserAcccount = userAccount({userAddress:UserAddress, accountName:AccountName, activeContractCount:0, totalContractCount:0, hostingContractAddresses: new address[](0)});\n        userAccounts[UserAddress] = newUserAcccount;\n        userAccountAddresses.push(UserAddress);\n        userCount++;\n    }\n    function RemoveUser(address UserAddress) public onlyOwnerOrOperator {\n        delete userAccounts[UserAddress];\n        RemoveUserByValue(UserAddress);\n        userCount--;\n    }\n    function AddHostingContract(address newContractAddress, address UserAddress, string HostingContractName, uint32 HostingContractDuration, uint32 TotalContractSize) public onlyOwnerOrOperator returns(address NewContractAddress){\n        userAccounts[UserAddress].hostingContractAddresses.push(newContractAddress);\n        userAccounts[UserAddress].activeContractCount++;\n        userAccounts[UserAddress].totalContractCount++;\n        return newContractAddress;\n    }\n    function RemoveHostingContract(address UserAddress, address HostingContractAddress) public onlyOwnerOrOperator {\n        uint i = FindArrayKey(UserAddress, HostingContractAddress);\n        RemoveByIndex(UserAddress, i);\n        userAccounts[UserAddress].activeContractCount--;\n        userAccounts[UserAddress].totalContractCount--;\n    }\n    function GetUserAccountAddress(address UserAddress) public onlyOwnerOrOperator constant returns(address value) {\n        return userAccounts[UserAddress].userAddress;\n    }\n    function GetUserAccountName(address UserAddress) public onlyOwnerOrOperator constant returns(string value) {\n        return userAccounts[UserAddress].accountName;\n    }\n    function GetUserAccountActiveContractCount(address UserAddress) public onlyOwnerOrOperator constant returns(uint32 value) {\n        return userAccounts[UserAddress].activeContractCount;\n    }\n    function GetUserAccountTotalContractCount(address UserAddress) public onlyOwnerOrOperator constant returns(uint32 value) {\n        return userAccounts[UserAddress].totalContractCount;\n    }\n    function GetHostingContractAddress(address UserAddress, uint ArrayKey) public onlyOwnerOrOperator constant returns(address value) {\n        address ArrayValue = FindArrayValue(UserAddress, ArrayKey);\n        return ArrayValue;\n    }   \n    function FindArrayValue(address UserAddress, uint ArrayKey) private constant returns (address value) {\n        return userAccounts[UserAddress].hostingContractAddresses[ArrayKey];\n    }\n    function FindArrayKey(address UserAddress, address HostingContactAddress) private constant returns (uint) {\n        uint i = 0;\n        while (keccak256(userAccounts[UserAddress].hostingContractAddresses[i]) != keccak256(HostingContactAddress)) {\n            i++;\n        }\n        return i;\n    }\n    function FindUserAddressArrayKey(address UserAddress) private constant returns (uint) {\n        uint i = 0;\n        while (keccak256(userAccountAddresses[i]) != keccak256(UserAddress)) {\n            i++;\n        }\n        return i;\n    }\n    function RemoveUserByValue(address UserAddress) private {\n        uint i = FindUserAddressArrayKey(UserAddress);\n        RemoveUserByIndex(i);\n    }\n    function RemoveUserByIndex(uint i) private {\n        while (i < (userAccountAddresses.length - 1)) {\n            userAccountAddresses[i] = userAccountAddresses[i+1];\n            i++;\n        }\n        userAccountAddresses.length--;\n    }\n    function RemoveByValue(address UserAddress, address HostingContractAddress) private {\n        uint i = FindArrayKey(UserAddress, HostingContractAddress);\n        RemoveByIndex(UserAddress, i);\n    }\n    function RemoveByIndex(address UserAddress, uint i) private {\n        while (i < (userAccounts[UserAddress].hostingContractAddresses.length - 1)) {\n            userAccounts[UserAddress].hostingContractAddresses[i] = userAccounts[UserAddress].hostingContractAddresses[i+1];\n            i++;\n        }\n        userAccounts[UserAddress].hostingContractAddresses.length--;\n    }\n    modifier onlyOwner()\n    {\n       if (msg.sender != owner) revert();\n       _;\n    }\n    modifier onlyOwnerOrOperator()\n    {\n       if (msg.sender != owner && msg.sender != operator) revert();\n       _;\n    }\n    function changeOperator(address newOperator) public onlyOwner\n    {\n       operator = newOperator;\n    }\n}\n",
  "sourcePath": "/home/ether1node/contracts/ethofs/contracts/ethoFSDashboard.sol",
  "compiler": {
    "name": "solc",
    "version": "0.4.24+commit.e67f0147.Emscripten.clang"
  },
  "schemaVersion": "2.0.1",
  "updatedAt": "2018-11-29T00:37:03.473Z"
}