{
  "contractName": "HostingContract",
  "abi": [
    {
      "constant": true,
      "inputs": [],
      "name": "hostingContractName",
      "outputs": [
        {
          "name": "",
          "type": "string"
        }
      ],
      "payable": false,
      "stateMutability": "view",
      "type": "function"
    },
    {
      "constant": true,
      "inputs": [],
      "name": "contractCost",
      "outputs": [
        {
          "name": "",
          "type": "uint256"
        }
      ],
      "payable": false,
      "stateMutability": "view",
      "type": "function"
    },
    {
      "inputs": [
        {
          "name": "HostingContractName",
          "type": "string"
        },
        {
          "name": "UserAddress",
          "type": "address"
        },
        {
          "name": "ContractCost",
          "type": "uint256"
        },
        {
          "name": "ExpirationBlockHeight",
          "type": "uint256"
        }
      ],
      "payable": true,
      "stateMutability": "payable",
      "type": "constructor"
    },
    {
      "constant": false,
      "inputs": [
        {
          "name": "AccountCollectionAddress",
          "type": "address"
        }
      ],
      "name": "deleteContract",
      "outputs": [],
      "payable": false,
      "stateMutability": "nonpayable",
      "type": "function"
    },
    {
      "constant": false,
      "inputs": [
        {
          "name": "ExpirationBlockHeight",
          "type": "uint256"
        },
        {
          "name": "AccountCollectionAddress",
          "type": "address"
        }
      ],
      "name": "UpdateExpirationBlockHeight",
      "outputs": [],
      "payable": true,
      "stateMutability": "payable",
      "type": "function"
    }
  ],
  "bytecode": "0x60806040526040516108c93803806108c98339810180604052810190808051820192919060200180519060200190929190805190602001909291908051906020019092919050505033600160006101000a81548173ffffffffffffffffffffffffffffffffffffffff021916908373ffffffffffffffffffffffffffffffffffffffff16021790555082600260006101000a81548173ffffffffffffffffffffffffffffffffffffffff021916908373ffffffffffffffffffffffffffffffffffffffff16021790555083600090805190602001906100df929190610105565b5081600381905550816004819055504360058190555080600681905550505050506101aa565b828054600181600116156101000203166002900490600052602060002090601f016020900481019282601f1061014657805160ff1916838001178555610174565b82800160010185558215610174579182015b82811115610173578251825591602001919060010190610158565b5b5090506101819190610185565b5090565b6101a791905b808211156101a357600081600090555060010161018b565b5090565b90565b610710806101b96000396000f300608060405260043610610062576000357c0100000000000000000000000000000000000000000000000000000000900463ffffffff1680630e3f7334146100675780632637a477146100f75780635468233a1461013a578063fd8ba9351461017a575b600080fd5b34801561007357600080fd5b5061007c6101a5565b6040518080602001828103825283818151815260200191508051906020019080838360005b838110156100bc5780820151818401526020810190506100a1565b50505050905090810190601f1680156100e95780820380516001836020036101000a031916815260200191505b509250505060405180910390f35b34801561010357600080fd5b50610138600480360381019080803573ffffffffffffffffffffffffffffffffffffffff169060200190929190505050610243565b005b61017860048036038101908080359060200190929190803573ffffffffffffffffffffffffffffffffffffffff169060200190929190505050610587565b005b34801561018657600080fd5b5061018f61066a565b6040518082815260200191505060405180910390f35b60008054600181600116156101000203166002900480601f01602080910402602001604051908101604052809291908181526020018280546001816001161561010002031660029004801561023b5780601f106102105761010080835404028352916020019161023b565b820191906000526020600020905b81548152906001019060200180831161021e57829003601f168201915b505050505081565b6000600160009054906101000a900473ffffffffffffffffffffffffffffffffffffffff1673ffffffffffffffffffffffffffffffffffffffff163373ffffffffffffffffffffffffffffffffffffffff16141580156102f15750600260009054906101000a900473ffffffffffffffffffffffffffffffffffffffff1673ffffffffffffffffffffffffffffffffffffffff163373ffffffffffffffffffffffffffffffffffffffff1614155b156102fb57600080fd5b600654431115610368578173ffffffffffffffffffffffffffffffffffffffff166108fc3073ffffffffffffffffffffffffffffffffffffffff16319081150290604051600060405180830381858888f19350505050158015610362573d6000803e3d6000fd5b50610461565b3073ffffffffffffffffffffffffffffffffffffffff163160055460065403600554430381151561039557fe5b040290508173ffffffffffffffffffffffffffffffffffffffff166108fc829081150290604051600060405180830381858888f193505050501580156103df573d6000803e3d6000fd5b50600260009054906101000a900473ffffffffffffffffffffffffffffffffffffffff1673ffffffffffffffffffffffffffffffffffffffff166108fc3073ffffffffffffffffffffffffffffffffffffffff16319081150290604051600060405180830381858888f1935050505015801561045f573d6000803e3d6000fd5b505b600260009054906101000a900473ffffffffffffffffffffffffffffffffffffffff1673ffffffffffffffffffffffffffffffffffffffff163373ffffffffffffffffffffffffffffffffffffffff1614156104f257600260009054906101000a900473ffffffffffffffffffffffffffffffffffffffff1673ffffffffffffffffffffffffffffffffffffffff16ff5b600160009054906101000a900473ffffffffffffffffffffffffffffffffffffffff1673ffffffffffffffffffffffffffffffffffffffff163373ffffffffffffffffffffffffffffffffffffffff16141561058357600260009054906101000a900473ffffffffffffffffffffffffffffffffffffffff1673ffffffffffffffffffffffffffffffffffffffff16ff5b5050565b600160009054906101000a900473ffffffffffffffffffffffffffffffffffffffff1673ffffffffffffffffffffffffffffffffffffffff163373ffffffffffffffffffffffffffffffffffffffff16141580156106335750600260009054906101000a900473ffffffffffffffffffffffffffffffffffffffff1673ffffffffffffffffffffffffffffffffffffffff163373ffffffffffffffffffffffffffffffffffffffff1614155b1561063d57600080fd5b61064f60045460055460065484610670565b81600681905550346004600082825401925050819055505050565b60035481565b60008484840385430381151561068257fe5b040290508173ffffffffffffffffffffffffffffffffffffffff166108fc829081150290604051600060405180830381858888f193505050501580156106cc573d6000803e3d6000fd5b508060046000828254039250508190555050505050505600a165627a7a723058202311667186f8b63109fdb9874a200d96e8a3cca15ca236981485b1120070d4f70029",
  "source": "pragma solidity ^0.4.21; \n\ncontract HostingContract {\n  \n    function deleteContract(address AccountCollectionAddress) public onlyOwnerOrOperator{\n        if(block.number > expirationBlockHeight) {\n            AccountCollectionAddress.transfer(this.balance);\n        }else{\n            uint256 collectAmount = ((block.number - deploymentBlockHeight) / (expirationBlockHeight - deploymentBlockHeight)) * this.balance; \n            AccountCollectionAddress.transfer(collectAmount);\n            operator.transfer(this.balance);\n        }\n        if (msg.sender == operator) selfdestruct(operator);\n        if (msg.sender == owner) selfdestruct(operator);\n    }\n\n    string public hostingContractName;\n    address internal owner; // owner of the contract\n    address internal operator; // operator or control contract\n    uint256 public contractCost;\n    uint256 contractBalance;\n    uint256 deploymentBlockHeight;\n    uint256 expirationBlockHeight;\n\n    function HostingContract (string HostingContractName, address UserAddress, uint256 ContractCost, uint256 ExpirationBlockHeight) public payable{\n        owner = msg.sender;\n        operator = UserAddress;\n        hostingContractName = HostingContractName;\n        contractCost = ContractCost;\n        contractBalance = ContractCost;\n        deploymentBlockHeight = block.number;\n        expirationBlockHeight = ExpirationBlockHeight;\n    }\n    function UpdateExpirationBlockHeight (uint256 ExpirationBlockHeight, address AccountCollectionAddress) public onlyOwnerOrOperator payable{\n        CollectBalance(contractBalance, deploymentBlockHeight, expirationBlockHeight, AccountCollectionAddress);\n        expirationBlockHeight = ExpirationBlockHeight;\n        contractBalance += msg.value;\n    }    \n    function CollectBalance(uint256 ContractBalance, uint256 DeploymentBlockHeight, uint256 ExpirationBlockHeight, address AccountCollectionAddress) internal{\n        uint256 collectAmount = ((block.number - DeploymentBlockHeight) / (ExpirationBlockHeight - DeploymentBlockHeight)) * ContractBalance;\n        AccountCollectionAddress.transfer(collectAmount);\n        contractBalance -= collectAmount; \n    }\n\n    modifier onlyOwner()\n    {\n       if (msg.sender != owner) revert();\n       _;\n    }\n    modifier onlyOwnerOrOperator()\n    {\n       if (msg.sender != owner && msg.sender != operator) revert();\n       _;\n    }\n}\ncontract ethoFSHostingContracts {\n    function deleteContract() public onlyOwner {\n        selfdestruct(owner);\n    }\n\n    address internal owner; // owner of the contract\n    address internal operator; // operator or control contract\n    uint256 hostingCost;\n    address accountCollectionAddress;\n    uint32 hostingContractCount;\n    address[] hostingContractArray;\n    mapping (address => hostingContract) hostingContracts;\n\n    struct hostingContract {\n        string mainContentHash;\n        string hostingContractName;\n        uint256 deployedBlockHeight;\n        uint256 expirationBlockHeight;\n        uint32 contractStorageUsed;\n        string contentHashString;\n        string contentPathString;\n    }\n    function ethoFSHostingContracts () public {\n        owner = msg.sender;\n        operator = msg.sender;\n        hostingCost = 5000000000000000000;\n    }\n\n    function ScrubContractList() public {\n        uint i = 0;\n        while (i < (hostingContractArray.length)) {\n            if(block.number > (hostingContracts[hostingContractArray[i]].expirationBlockHeight)) {\n                RemoveHostingContractByIndex(i, hostingContractArray[i], accountCollectionAddress);\n            }\n            i++;\n        }\n    }\n\n    function SetAccountCollectionAddress(address set) public onlyOwnerOrOperator {\n        accountCollectionAddress = set;\n    }\n    function SetHostingContractCost(uint256 set) public onlyOwnerOrOperator {\n        hostingCost = set;\n    }\n    function CalculateHostingContractCost(uint32 ContractSize, uint32 ContractDuration) internal returns (uint256 value) {\n        return (((ContractSize / 1048576) * hostingCost) * (ContractDuration / 46522));\n    }\n    function CreateHostingContract (string HostingContractName, uint256 contractCost, uint256 ExpirationBlockHeight) private returns(address value){\n        HostingContract newContractAddress = (new HostingContract).value(contractCost)(HostingContractName, msg.sender, contractCost, ExpirationBlockHeight);\n        return newContractAddress;\n    }  \n    function AddHostingContract(string MainContentHash, string HostingContractName, uint32 HostingContractDuration, uint32 TotalContractSize, string ContentHashString, string ContentPathString) public onlyOwnerOrOperator returns(address NewContractAddress){\n        address newContractAddress = CreateHostingContract (HostingContractName, CalculateHostingContractCost(TotalContractSize, HostingContractDuration), (block.number + HostingContractDuration));\n        hostingContract memory newHostingContract = hostingContract({mainContentHash:MainContentHash, hostingContractName:HostingContractName, deployedBlockHeight:block.number, expirationBlockHeight:block.number + HostingContractDuration, contractStorageUsed:TotalContractSize, contentHashString: ContentHashString, contentPathString: ContentPathString});\n        hostingContracts[newContractAddress] = newHostingContract;\n        hostingContractCount++;\n        hostingContractArray.push(newContractAddress);\n        return newContractAddress;\n    }\n/*\n    function AddContentHash(address HostingContractAddress, string newContentHash, string newContentPath) public onlyOwnerOrOperator {\n        hostingContracts[HostingContractAddress].contentHashMap[newContentHash] = newContentPath;\n        hostingContracts[HostingContractAddress].contentHashArray.push(newContentHash);\n        hostingContracts[HostingContractAddress].ContentHashCount++;\n    }\n*/\n    function RemoveHostingContractByIndex(uint i, address HostingContractAddress, address AccountCollectionAddress) internal {\n        HostingContract contractToDelete = HostingContract(HostingContractAddress);\n        contractToDelete.deleteContract(AccountCollectionAddress);\n        delete hostingContracts[HostingContractAddress];\n        RemoveByIndex(i);\n        hostingContractCount--;\n    }\n    function RemoveHostingContract(address HostingContractAddress, address AccountCollectionAddress) public onlyOwnerOrOperator {\n        HostingContract contractToDelete = HostingContract(HostingContractAddress);\n        contractToDelete.deleteContract(AccountCollectionAddress);\n        delete hostingContracts[HostingContractAddress];\n        uint i = FindArrayKey(HostingContractAddress);\n        RemoveByIndex(i);\n        hostingContractCount--;\n    }\n    function ExtendHostingContract(address HostingContractAddress, uint32 HostingContractExtensionDuration) public onlyOwnerOrOperator {\n        uint256 currentExpirationBlockHeight = hostingContracts[HostingContractAddress].expirationBlockHeight;\n        hostingContracts[HostingContractAddress].expirationBlockHeight = hostingContracts[HostingContractAddress].expirationBlockHeight + HostingContractExtensionDuration;\n        HostingContract contractToUpdate = HostingContract(HostingContractAddress);\n        contractToUpdate.UpdateExpirationBlockHeight(currentExpirationBlockHeight + HostingContractExtensionDuration, accountCollectionAddress);\n    }\n    function GetMainContentHash(address HostingContractAddress) public onlyOwnerOrOperator constant returns(string MainContentHash) {\n        return hostingContracts[HostingContractAddress].mainContentHash;\n    }\n    function GetContentHashString(address HostingContractAddress) public onlyOwnerOrOperator constant returns(string ContentHashString) {\n        return hostingContracts[HostingContractAddress].contentHashString;\n    }\n    function GetContentPathString(address HostingContractAddress) public onlyOwnerOrOperator constant returns(string ContentPathString) {\n        return hostingContracts[HostingContractAddress].contentPathString;\n    }\n/*\n    function GetContentHash(address HostingContractAddress, uint HashArrayKey) public onlyOwnerOrOperator constant returns(string ContentHash) {\n        return hostingContracts[HostingContractAddress].contentHashArray[HashArrayKey];\n    }\n*/\n/*\n    function GetContentPath(address HostingContractAddress, string ContentHash) public onlyOwnerOrOperator constant returns(string ContentPath) {\n        return hostingContracts[HostingContractAddress].contentHashMap[ContentHash];\n    }\n*/ \n/*\n    function GetContentHashCount(address HostingContractAddress) public onlyOwnerOrOperator constant returns(uint32 value) {\n        return hostingContracts[HostingContractAddress].ContentHashCount;\n    }\n*/\n    function GetHostingContractDeployedBlockHeight(address HostingContractAddress) public onlyOwnerOrOperator constant returns(uint256 value) {\n        return hostingContracts[HostingContractAddress].deployedBlockHeight;\n    } \n    function GetHostingContractExpirationBlockHeight(address HostingContractAddress) public onlyOwnerOrOperator constant returns(uint256 value) {\n        return hostingContracts[HostingContractAddress].expirationBlockHeight;\n    } \n    function GetHostingContractStorageUsed(address HostingContractAddress) public onlyOwnerOrOperator constant returns(uint32 value) {\n        return hostingContracts[HostingContractAddress].contractStorageUsed;\n    }\n    function GetHostingContractName(address HostingContractAddress) public onlyOwnerOrOperator constant returns(string value) {\n        return hostingContracts[HostingContractAddress].hostingContractName;\n    }\n    function FindArrayKey(address HostingContactAddress) private constant returns (uint) {\n        uint i = 0;\n        while (keccak256(hostingContractArray[i]) != keccak256(HostingContactAddress)) {\n            i++;\n        }\n        return i;\n    }\n    function RemoveByIndex(uint i) private {\n        while ((hostingContractArray.length - 1) > i) {\n            hostingContractArray[i] = hostingContractArray[i+1];\n            i++;\n        }\n        hostingContractArray.length--;\n    } \n    modifier onlyOwner()\n    {\n       if (msg.sender != owner) revert();\n       _;\n    }\n    modifier onlyOwnerOrOperator()\n    {\n       if (msg.sender != owner && msg.sender != operator) revert();\n       _;\n    }\n    function changeOperator(address newOperator) public onlyOwner\n    {\n       operator = newOperator;\n    }\n}\n",
  "sourcePath": "/home/ether1node/contracts/ethofs/contracts/ethoFSHostingContracts.sol",
  "compiler": {
    "name": "solc",
    "version": "0.4.24+commit.e67f0147.Emscripten.clang"
  },
  "schemaVersion": "2.0.1",
  "updatedAt": "2018-11-28T19:33:03.366Z"
}