{
  "contractName": "ethoFSHostingContracts",
  "abi": [
    {
      "inputs": [],
      "payable": false,
      "stateMutability": "nonpayable",
      "type": "constructor"
    },
    {
      "constant": false,
      "inputs": [],
      "name": "deleteHostingContracts",
      "outputs": [],
      "payable": false,
      "stateMutability": "nonpayable",
      "type": "function"
    },
    {
      "constant": false,
      "inputs": [],
      "name": "ScrubContractList",
      "outputs": [],
      "payable": false,
      "stateMutability": "nonpayable",
      "type": "function"
    },
    {
      "constant": false,
      "inputs": [
        {
          "name": "set",
          "type": "address"
        }
      ],
      "name": "SetAccountCollectionAddress",
      "outputs": [],
      "payable": false,
      "stateMutability": "nonpayable",
      "type": "function"
    },
    {
      "constant": false,
      "inputs": [
        {
          "name": "set",
          "type": "uint256"
        }
      ],
      "name": "SetHostingContractCost",
      "outputs": [],
      "payable": false,
      "stateMutability": "nonpayable",
      "type": "function"
    },
    {
      "constant": false,
      "inputs": [
        {
          "name": "set",
          "type": "uint256"
        }
      ],
      "name": "SetScrubLength",
      "outputs": [],
      "payable": false,
      "stateMutability": "nonpayable",
      "type": "function"
    },
    {
      "constant": false,
      "inputs": [
        {
          "name": "MainContentHash",
          "type": "string"
        },
        {
          "name": "HostingContractName",
          "type": "string"
        },
        {
          "name": "HostingContractDuration",
          "type": "uint32"
        },
        {
          "name": "TotalContractSize",
          "type": "uint32"
        },
        {
          "name": "ContentHashString",
          "type": "string"
        },
        {
          "name": "ContentPathString",
          "type": "string"
        }
      ],
      "name": "AddHostingContract",
      "outputs": [
        {
          "name": "NewContractAddress",
          "type": "address"
        }
      ],
      "payable": true,
      "stateMutability": "payable",
      "type": "function"
    },
    {
      "constant": false,
      "inputs": [
        {
          "name": "customerAddress",
          "type": "address"
        },
        {
          "name": "HostingContractAddress",
          "type": "address"
        },
        {
          "name": "AccountCollectionAddress",
          "type": "address"
        }
      ],
      "name": "RemoveHostingContract",
      "outputs": [
        {
          "name": "",
          "type": "bool"
        }
      ],
      "payable": false,
      "stateMutability": "nonpayable",
      "type": "function"
    },
    {
      "constant": false,
      "inputs": [
        {
          "name": "HostingContractAddress",
          "type": "address"
        },
        {
          "name": "HostingContractExtensionDuration",
          "type": "uint32"
        }
      ],
      "name": "ExtendHostingContract",
      "outputs": [],
      "payable": true,
      "stateMutability": "payable",
      "type": "function"
    },
    {
      "constant": false,
      "inputs": [
        {
          "name": "HostingContractAddress",
          "type": "address"
        },
        {
          "name": "NewContractName",
          "type": "string"
        }
      ],
      "name": "ChangeHostingContractName",
      "outputs": [],
      "payable": false,
      "stateMutability": "nonpayable",
      "type": "function"
    },
    {
      "constant": true,
      "inputs": [
        {
          "name": "HostingContractAddress",
          "type": "address"
        }
      ],
      "name": "GetMainContentHash",
      "outputs": [
        {
          "name": "MainContentHash",
          "type": "string"
        }
      ],
      "payable": false,
      "stateMutability": "view",
      "type": "function"
    },
    {
      "constant": true,
      "inputs": [
        {
          "name": "HostingContractAddress",
          "type": "address"
        }
      ],
      "name": "GetContentHashString",
      "outputs": [
        {
          "name": "ContentHashString",
          "type": "string"
        }
      ],
      "payable": false,
      "stateMutability": "view",
      "type": "function"
    },
    {
      "constant": true,
      "inputs": [
        {
          "name": "HostingContractAddress",
          "type": "address"
        }
      ],
      "name": "GetContentPathString",
      "outputs": [
        {
          "name": "ContentPathString",
          "type": "string"
        }
      ],
      "payable": false,
      "stateMutability": "view",
      "type": "function"
    },
    {
      "constant": true,
      "inputs": [
        {
          "name": "HostingContractAddress",
          "type": "address"
        }
      ],
      "name": "GetHostingContractDeployedBlockHeight",
      "outputs": [
        {
          "name": "value",
          "type": "uint256"
        }
      ],
      "payable": false,
      "stateMutability": "view",
      "type": "function"
    },
    {
      "constant": true,
      "inputs": [
        {
          "name": "HostingContractAddress",
          "type": "address"
        }
      ],
      "name": "GetHostingContractExpirationBlockHeight",
      "outputs": [
        {
          "name": "value",
          "type": "uint256"
        }
      ],
      "payable": false,
      "stateMutability": "view",
      "type": "function"
    },
    {
      "constant": true,
      "inputs": [
        {
          "name": "HostingContractAddress",
          "type": "address"
        }
      ],
      "name": "GetHostingContractStorageUsed",
      "outputs": [
        {
          "name": "value",
          "type": "uint32"
        }
      ],
      "payable": false,
      "stateMutability": "view",
      "type": "function"
    },
    {
      "constant": true,
      "inputs": [
        {
          "name": "HostingContractAddress",
          "type": "address"
        }
      ],
      "name": "GetHostingContractName",
      "outputs": [
        {
          "name": "value",
          "type": "string"
        }
      ],
      "payable": false,
      "stateMutability": "view",
      "type": "function"
    },
    {
      "constant": false,
      "inputs": [
        {
          "name": "newOperator",
          "type": "address"
        }
      ],
      "name": "changeOperator",
      "outputs": [],
      "payable": false,
      "stateMutability": "nonpayable",
      "type": "function"
    }
  ],
  "bytecode": "0x608060405234801561001057600080fd5b50336000806101000a81548173ffffffffffffffffffffffffffffffffffffffff021916908373ffffffffffffffffffffffffffffffffffffffff16021790555033600160006101000a81548173ffffffffffffffffffffffffffffffffffffffff021916908373ffffffffffffffffffffffffffffffffffffffff160217905550674563918244f40000600481905550600060028190555060646003819055506137a9806100c06000396000f30060806040526004361062000103576000357c0100000000000000000000000000000000000000000000000000000000900463ffffffff16806306394c9b14620001085780630b6ff6dd146200014e578063359a198b146200017e578063403169ac1462000198578063415dfefa14620001f25780634b8f5af6146200024c57806366b7004c14620003dc578063681400641462000442578063782d8e0614620004725780637c84498014620005105780638e097614146200052a578063af7bbf5a14620005ec578063c8ac5fe814620006ae578063d0cd251314620006f4578063de5a8ec514620007b6578063e0784ff914620007fe578063e6dc7817146200088a575b600080fd5b3480156200011557600080fd5b506200014c600480360381019080803573ffffffffffffffffffffffffffffffffffffffff1690602001909291905050506200094c565b005b3480156200015b57600080fd5b506200017c60048036038101908080359060200190929190505050620009ec565b005b3480156200018b57600080fd5b506200019662000aad565b005b348015620001a557600080fd5b50620001dc600480360381019080803573ffffffffffffffffffffffffffffffffffffffff16906020019092919050505062000d1c565b6040518082815260200191505060405180910390f35b348015620001ff57600080fd5b5062000236600480360381019080803573ffffffffffffffffffffffffffffffffffffffff16906020019092919050505062000e1f565b6040518082815260200191505060405180910390f35b6200039a600480360381019080803590602001908201803590602001908080601f0160208091040260200160405190810160405280939291908181526020018383808284378201915050505050509192919290803590602001908201803590602001908080601f0160208091040260200160405190810160405280939291908181526020018383808284378201915050505050509192919290803563ffffffff169060200190929190803563ffffffff169060200190929190803590602001908201803590602001908080601f0160208091040260200160405190810160405280939291908181526020018383808284378201915050505050509192919290803590602001908201803590602001908080601f016020809104026020016040519081016040528093929190818152602001838380828437820191505050505050919291929050505062000f22565b604051808273ffffffffffffffffffffffffffffffffffffffff1673ffffffffffffffffffffffffffffffffffffffff16815260200191505060405180910390f35b348015620003e957600080fd5b5062000420600480360381019080803573ffffffffffffffffffffffffffffffffffffffff16906020019092919050505062001361565b604051808263ffffffff1663ffffffff16815260200191505060405180910390f35b3480156200044f57600080fd5b50620004706004803603810190808035906020019092919050505062001474565b005b3480156200047f57600080fd5b50620004f6600480360381019080803573ffffffffffffffffffffffffffffffffffffffff169060200190929190803573ffffffffffffffffffffffffffffffffffffffff169060200190929190803573ffffffffffffffffffffffffffffffffffffffff16906020019092919050505062001535565b604051808215151515815260200191505060405180910390f35b3480156200051d57600080fd5b5062000528620018a1565b005b3480156200053757600080fd5b506200056e600480360381019080803573ffffffffffffffffffffffffffffffffffffffff16906020019092919050505062001937565b6040518080602001828103825283818151815260200191508051906020019080838360005b83811015620005b057808201518184015260208101905062000593565b50505050905090810190601f168015620005de5780820380516001836020036101000a031916815260200191505b509250505060405180910390f35b348015620005f957600080fd5b5062000630600480360381019080803573ffffffffffffffffffffffffffffffffffffffff16906020019092919050505062001ad6565b6040518080602001828103825283818151815260200191508051906020019080838360005b838110156200067257808201518184015260208101905062000655565b50505050905090810190601f168015620006a05780820380516001836020036101000a031916815260200191505b509250505060405180910390f35b348015620006bb57600080fd5b50620006f2600480360381019080803573ffffffffffffffffffffffffffffffffffffffff16906020019092919050505062001c75565b005b3480156200070157600080fd5b5062000738600480360381019080803573ffffffffffffffffffffffffffffffffffffffff16906020019092919050505062001d70565b6040518080602001828103825283818151815260200191508051906020019080838360005b838110156200077a5780820151818401526020810190506200075d565b50505050905090810190601f168015620007a85780820380516001836020036101000a031916815260200191505b509250505060405180910390f35b620007fc600480360381019080803573ffffffffffffffffffffffffffffffffffffffff169060200190929190803563ffffffff16906020019092919050505062001f0f565b005b3480156200080b57600080fd5b5062000888600480360381019080803573ffffffffffffffffffffffffffffffffffffffff169060200190929190803590602001908201803590602001908080601f0160208091040260200160405190810160405280939291908181526020018383808284378201915050505050509192919290505050620021fe565b005b3480156200089757600080fd5b50620008ce600480360381019080803573ffffffffffffffffffffffffffffffffffffffff169060200190929190505050620023b0565b6040518080602001828103825283818151815260200191508051906020019080838360005b8381101562000910578082015181840152602081019050620008f3565b50505050905090810190601f1680156200093e5780820380516001836020036101000a031916815260200191505b509250505060405180910390f35b6000809054906101000a900473ffffffffffffffffffffffffffffffffffffffff1673ffffffffffffffffffffffffffffffffffffffff163373ffffffffffffffffffffffffffffffffffffffff16141515620009a857600080fd5b80600160006101000a81548173ffffffffffffffffffffffffffffffffffffffff021916908373ffffffffffffffffffffffffffffffffffffffff16021790555050565b6000809054906101000a900473ffffffffffffffffffffffffffffffffffffffff1673ffffffffffffffffffffffffffffffffffffffff163373ffffffffffffffffffffffffffffffffffffffff161415801562000a985750600160009054906101000a900473ffffffffffffffffffffffffffffffffffffffff1673ffffffffffffffffffffffffffffffffffffffff163373ffffffffffffffffffffffffffffffffffffffff1614155b1562000aa357600080fd5b8060048190555050565b600080600060025492506003546002540191505b6006805490508310801562000ad557508183105b1562000cf2576007600060068581548110151562000aef57fe5b9060005260206000200160009054906101000a900473ffffffffffffffffffffffffffffffffffffffff1673ffffffffffffffffffffffffffffffffffffffff1673ffffffffffffffffffffffffffffffffffffffff1681526020019081526020016000206003015443111562000bcf5762000bc98360068581548110151562000b7557fe5b9060005260206000200160009054906101000a900473ffffffffffffffffffffffffffffffffffffffff16600560009054906101000a900473ffffffffffffffffffffffffffffffffffffffff166200254f565b62000ce4565b60068381548110151562000bdf57fe5b9060005260206000200160009054906101000a900473ffffffffffffffffffffffffffffffffffffffff1690508073ffffffffffffffffffffffffffffffffffffffff16638a9a4137600560009054906101000a900473ffffffffffffffffffffffffffffffffffffffff166040518263ffffffff167c0100000000000000000000000000000000000000000000000000000000028152600401808273ffffffffffffffffffffffffffffffffffffffff1673ffffffffffffffffffffffffffffffffffffffff168152602001915050600060405180830381600087803b15801562000cca57600080fd5b505af115801562000cdf573d6000803e3d6000fd5b505050505b828060010193505062000ac1565b6006805490508310151562000d0f57600060028190555062000d17565b826002819055505b505050565b60008060009054906101000a900473ffffffffffffffffffffffffffffffffffffffff1673ffffffffffffffffffffffffffffffffffffffff163373ffffffffffffffffffffffffffffffffffffffff161415801562000dca5750600160009054906101000a900473ffffffffffffffffffffffffffffffffffffffff1673ffffffffffffffffffffffffffffffffffffffff163373ffffffffffffffffffffffffffffffffffffffff1614155b1562000dd557600080fd5b600760008373ffffffffffffffffffffffffffffffffffffffff1673ffffffffffffffffffffffffffffffffffffffff168152602001908152602001600020600301549050919050565b60008060009054906101000a900473ffffffffffffffffffffffffffffffffffffffff1673ffffffffffffffffffffffffffffffffffffffff163373ffffffffffffffffffffffffffffffffffffffff161415801562000ecd5750600160009054906101000a900473ffffffffffffffffffffffffffffffffffffffff1673ffffffffffffffffffffffffffffffffffffffff163373ffffffffffffffffffffffffffffffffffffffff1614155b1562000ed857600080fd5b600760008373ffffffffffffffffffffffffffffffffffffffff1673ffffffffffffffffffffffffffffffffffffffff168152602001908152602001600020600201549050919050565b600080600062000f3162002929565b6000809054906101000a900473ffffffffffffffffffffffffffffffffffffffff1673ffffffffffffffffffffffffffffffffffffffff163373ffffffffffffffffffffffffffffffffffffffff161415801562000fdd5750600160009054906101000a900473ffffffffffffffffffffffffffffffffffffffff1673ffffffffffffffffffffffffffffffffffffffff163373ffffffffffffffffffffffffffffffffffffffff1614155b1562000fe857600080fd5b62000ff4878962002707565b92508234101515620013075734308a32868c63ffffffff164301620010186200296d565b808673ffffffffffffffffffffffffffffffffffffffff1673ffffffffffffffffffffffffffffffffffffffff168152602001806020018573ffffffffffffffffffffffffffffffffffffffff1673ffffffffffffffffffffffffffffffffffffffff168152602001848152602001838152602001828103825286818151815260200191508051906020019080838360005b83811015620010c7578082015181840152602081019050620010aa565b50505050905090810190601f168015620010f55780820380516001836020036101000a031916815260200191505b5096505050505050506040518091039082f0801580156200111a573d6000803e3d6000fd5b509050915060e0604051908101604052808b81526020018a81526020014381526020018963ffffffff16430181526020018863ffffffff16815260200187815260200186815250905080600760008473ffffffffffffffffffffffffffffffffffffffff1673ffffffffffffffffffffffffffffffffffffffff1681526020019081526020016000206000820151816000019080519060200190620011c19291906200297e565b506020820151816001019080519060200190620011e09291906200297e565b50604082015181600201556060820151816003015560808201518160040160006101000a81548163ffffffff021916908363ffffffff16021790555060a08201518160050190805190602001906200123a9291906200297e565b5060c0820151816006019080519060200190620012599291906200297e565b509050506005601481819054906101000a900463ffffffff168092919060010191906101000a81548163ffffffff021916908363ffffffff1602179055505060068290806001815401808255809150509060018203906000526020600020016000909192909190916101000a81548173ffffffffffffffffffffffffffffffffffffffff021916908373ffffffffffffffffffffffffffffffffffffffff1602179055505081935062001354565b3373ffffffffffffffffffffffffffffffffffffffff166108fc349081150290604051600060405180830381858888f193505050501580156200134e573d6000803e3d6000fd5b50600093505b5050509695505050505050565b60008060009054906101000a900473ffffffffffffffffffffffffffffffffffffffff1673ffffffffffffffffffffffffffffffffffffffff163373ffffffffffffffffffffffffffffffffffffffff16141580156200140f5750600160009054906101000a900473ffffffffffffffffffffffffffffffffffffffff1673ffffffffffffffffffffffffffffffffffffffff163373ffffffffffffffffffffffffffffffffffffffff1614155b156200141a57600080fd5b600760008373ffffffffffffffffffffffffffffffffffffffff1673ffffffffffffffffffffffffffffffffffffffff16815260200190815260200160002060040160009054906101000a900463ffffffff169050919050565b6000809054906101000a900473ffffffffffffffffffffffffffffffffffffffff1673ffffffffffffffffffffffffffffffffffffffff163373ffffffffffffffffffffffffffffffffffffffff1614158015620015205750600160009054906101000a900473ffffffffffffffffffffffffffffffffffffffff1673ffffffffffffffffffffffffffffffffffffffff163373ffffffffffffffffffffffffffffffffffffffff1614155b156200152b57600080fd5b8060038190555050565b6000806000806000809054906101000a900473ffffffffffffffffffffffffffffffffffffffff1673ffffffffffffffffffffffffffffffffffffffff163373ffffffffffffffffffffffffffffffffffffffff1614158015620015e75750600160009054906101000a900473ffffffffffffffffffffffffffffffffffffffff1673ffffffffffffffffffffffffffffffffffffffff163373ffffffffffffffffffffffffffffffffffffffff1614155b15620015f257600080fd5b8592508273ffffffffffffffffffffffffffffffffffffffff16630b6d50986040518163ffffffff167c0100000000000000000000000000000000000000000000000000000000028152600401602060405180830381600087803b1580156200165a57600080fd5b505af11580156200166f573d6000803e3d6000fd5b505050506040513d60208110156200168657600080fd5b810190808051906020019092919050505091508173ffffffffffffffffffffffffffffffffffffffff168773ffffffffffffffffffffffffffffffffffffffff16141562001892578273ffffffffffffffffffffffffffffffffffffffff16632637a477866040518263ffffffff167c0100000000000000000000000000000000000000000000000000000000028152600401808273ffffffffffffffffffffffffffffffffffffffff1673ffffffffffffffffffffffffffffffffffffffff168152602001915050600060405180830381600087803b1580156200176a57600080fd5b505af11580156200177f573d6000803e3d6000fd5b50505050600760008773ffffffffffffffffffffffffffffffffffffffff1673ffffffffffffffffffffffffffffffffffffffff16815260200190815260200160002060008082016000620017d5919062002a05565b600182016000620017e7919062002a05565b600282016000905560038201600090556004820160006101000a81549063ffffffff021916905560058201600062001820919062002a05565b60068201600062001832919062002a05565b50506200183f866200274d565b90506200184c8162002858565b6005601481819054906101000a900463ffffffff16809291906001900391906101000a81548163ffffffff021916908363ffffffff160217905550506001935062001897565b600093505b5050509392505050565b6000809054906101000a900473ffffffffffffffffffffffffffffffffffffffff1673ffffffffffffffffffffffffffffffffffffffff163373ffffffffffffffffffffffffffffffffffffffff16141515620018fd57600080fd5b6000809054906101000a900473ffffffffffffffffffffffffffffffffffffffff1673ffffffffffffffffffffffffffffffffffffffff16ff5b60606000809054906101000a900473ffffffffffffffffffffffffffffffffffffffff1673ffffffffffffffffffffffffffffffffffffffff163373ffffffffffffffffffffffffffffffffffffffff1614158015620019e55750600160009054906101000a900473ffffffffffffffffffffffffffffffffffffffff1673ffffffffffffffffffffffffffffffffffffffff163373ffffffffffffffffffffffffffffffffffffffff1614155b15620019f057600080fd5b600760008373ffffffffffffffffffffffffffffffffffffffff1673ffffffffffffffffffffffffffffffffffffffff1681526020019081526020016000206001018054600181600116156101000203166002900480601f01602080910402602001604051908101604052809291908181526020018280546001816001161561010002031660029004801562001aca5780601f1062001a9e5761010080835404028352916020019162001aca565b820191906000526020600020905b81548152906001019060200180831162001aac57829003601f168201915b50505050509050919050565b60606000809054906101000a900473ffffffffffffffffffffffffffffffffffffffff1673ffffffffffffffffffffffffffffffffffffffff163373ffffffffffffffffffffffffffffffffffffffff161415801562001b845750600160009054906101000a900473ffffffffffffffffffffffffffffffffffffffff1673ffffffffffffffffffffffffffffffffffffffff163373ffffffffffffffffffffffffffffffffffffffff1614155b1562001b8f57600080fd5b600760008373ffffffffffffffffffffffffffffffffffffffff1673ffffffffffffffffffffffffffffffffffffffff1681526020019081526020016000206005018054600181600116156101000203166002900480601f01602080910402602001604051908101604052809291908181526020018280546001816001161561010002031660029004801562001c695780601f1062001c3d5761010080835404028352916020019162001c69565b820191906000526020600020905b81548152906001019060200180831162001c4b57829003601f168201915b50505050509050919050565b6000809054906101000a900473ffffffffffffffffffffffffffffffffffffffff1673ffffffffffffffffffffffffffffffffffffffff163373ffffffffffffffffffffffffffffffffffffffff161415801562001d215750600160009054906101000a900473ffffffffffffffffffffffffffffffffffffffff1673ffffffffffffffffffffffffffffffffffffffff163373ffffffffffffffffffffffffffffffffffffffff1614155b1562001d2c57600080fd5b80600560006101000a81548173ffffffffffffffffffffffffffffffffffffffff021916908373ffffffffffffffffffffffffffffffffffffffff16021790555050565b60606000809054906101000a900473ffffffffffffffffffffffffffffffffffffffff1673ffffffffffffffffffffffffffffffffffffffff163373ffffffffffffffffffffffffffffffffffffffff161415801562001e1e5750600160009054906101000a900473ffffffffffffffffffffffffffffffffffffffff1673ffffffffffffffffffffffffffffffffffffffff163373ffffffffffffffffffffffffffffffffffffffff1614155b1562001e2957600080fd5b600760008373ffffffffffffffffffffffffffffffffffffffff1673ffffffffffffffffffffffffffffffffffffffff1681526020019081526020016000206006018054600181600116156101000203166002900480601f01602080910402602001604051908101604052809291908181526020018280546001816001161561010002031660029004801562001f035780601f1062001ed75761010080835404028352916020019162001f03565b820191906000526020600020905b81548152906001019060200180831162001ee557829003601f168201915b50505050509050919050565b60008060008060009054906101000a900473ffffffffffffffffffffffffffffffffffffffff1673ffffffffffffffffffffffffffffffffffffffff163373ffffffffffffffffffffffffffffffffffffffff161415801562001fc05750600160009054906101000a900473ffffffffffffffffffffffffffffffffffffffff1673ffffffffffffffffffffffffffffffffffffffff163373ffffffffffffffffffffffffffffffffffffffff1614155b1562001fcb57600080fd5b62002029600760008773ffffffffffffffffffffffffffffffffffffffff1673ffffffffffffffffffffffffffffffffffffffff16815260200190815260200160002060040160009054906101000a900463ffffffff168562002707565b92508234101515620021f757600760008673ffffffffffffffffffffffffffffffffffffffff1673ffffffffffffffffffffffffffffffffffffffff1681526020019081526020016000206003015491508363ffffffff16600760008773ffffffffffffffffffffffffffffffffffffffff1673ffffffffffffffffffffffffffffffffffffffff1681526020019081526020016000206003015401600760008773ffffffffffffffffffffffffffffffffffffffff1673ffffffffffffffffffffffffffffffffffffffff168152602001908152602001600020600301819055508490508073ffffffffffffffffffffffffffffffffffffffff16635468233a348663ffffffff168501600560009054906101000a900473ffffffffffffffffffffffffffffffffffffffff166040518463ffffffff167c0100000000000000000000000000000000000000000000000000000000028152600401808381526020018273ffffffffffffffffffffffffffffffffffffffff1673ffffffffffffffffffffffffffffffffffffffff168152602001925050506000604051808303818588803b158015620021dc57600080fd5b505af1158015620021f1573d6000803e3d6000fd5b50505050505b5050505050565b60008060009054906101000a900473ffffffffffffffffffffffffffffffffffffffff1673ffffffffffffffffffffffffffffffffffffffff163373ffffffffffffffffffffffffffffffffffffffff1614158015620022ac5750600160009054906101000a900473ffffffffffffffffffffffffffffffffffffffff1673ffffffffffffffffffffffffffffffffffffffff163373ffffffffffffffffffffffffffffffffffffffff1614155b15620022b757600080fd5b8290508073ffffffffffffffffffffffffffffffffffffffff16639b89543e836040518263ffffffff167c01000000000000000000000000000000000000000000000000000000000281526004018080602001828103825283818151815260200191508051906020019080838360005b838110156200234457808201518184015260208101905062002327565b50505050905090810190601f168015620023725780820380516001836020036101000a031916815260200191505b5092505050600060405180830381600087803b1580156200239257600080fd5b505af1158015620023a7573d6000803e3d6000fd5b50505050505050565b60606000809054906101000a900473ffffffffffffffffffffffffffffffffffffffff1673ffffffffffffffffffffffffffffffffffffffff163373ffffffffffffffffffffffffffffffffffffffff16141580156200245e5750600160009054906101000a900473ffffffffffffffffffffffffffffffffffffffff1673ffffffffffffffffffffffffffffffffffffffff163373ffffffffffffffffffffffffffffffffffffffff1614155b156200246957600080fd5b600760008373ffffffffffffffffffffffffffffffffffffffff1673ffffffffffffffffffffffffffffffffffffffff1681526020019081526020016000206000018054600181600116156101000203166002900480601f016020809104026020016040519081016040528092919081815260200182805460018160011615610100020316600290048015620025435780601f10620025175761010080835404028352916020019162002543565b820191906000526020600020905b8154815290600101906020018083116200252557829003601f168201915b50505050509050919050565b60008290508073ffffffffffffffffffffffffffffffffffffffff16632637a477836040518263ffffffff167c0100000000000000000000000000000000000000000000000000000000028152600401808273ffffffffffffffffffffffffffffffffffffffff1673ffffffffffffffffffffffffffffffffffffffff168152602001915050600060405180830381600087803b158015620025f057600080fd5b505af115801562002605573d6000803e3d6000fd5b50505050600760008473ffffffffffffffffffffffffffffffffffffffff1673ffffffffffffffffffffffffffffffffffffffff168152602001908152602001600020600080820160006200265b919062002a05565b6001820160006200266d919062002a05565b600282016000905560038201600090556004820160006101000a81549063ffffffff0219169055600582016000620026a6919062002a05565b600682016000620026b8919062002a05565b5050620026c58462002858565b6005601481819054906101000a900463ffffffff16809291906001900391906101000a81548163ffffffff021916908363ffffffff1602179055505050505050565b600061b5ba8263ffffffff168115156200271d57fe5b0463ffffffff16600454621000008563ffffffff168115156200273c57fe5b0463ffffffff160202905092915050565b600080600090505b82604051808273ffffffffffffffffffffffffffffffffffffffff1673ffffffffffffffffffffffffffffffffffffffff166c01000000000000000000000000028152601401915050604051809103902060001916600682815481101515620027ba57fe5b9060005260206000200160009054906101000a900473ffffffffffffffffffffffffffffffffffffffff16604051808273ffffffffffffffffffffffffffffffffffffffff1673ffffffffffffffffffffffffffffffffffffffff166c010000000000000000000000000281526014019150506040518091039020600019161415156200284f57808060010191505062002755565b80915050919050565b5b8060016006805490500311156200290e576006600182018154811015156200287d57fe5b9060005260206000200160009054906101000a900473ffffffffffffffffffffffffffffffffffffffff16600682815481101515620028b857fe5b9060005260206000200160006101000a81548173ffffffffffffffffffffffffffffffffffffffff021916908373ffffffffffffffffffffffffffffffffffffffff160217905550808060010191505062002859565b600680548091906001900362002925919062002a51565b5050565b60e06040519081016040528060608152602001606081526020016000815260200160008152602001600063ffffffff16815260200160608152602001606081525090565b604051610cd58062002aa983390190565b828054600181600116156101000203166002900490600052602060002090601f016020900481019282601f10620029c157805160ff1916838001178555620029f2565b82800160010185558215620029f2579182015b82811115620029f1578251825591602001919060010190620029d4565b5b50905062002a01919062002a80565b5090565b50805460018160011615610100020316600290046000825580601f1062002a2d575062002a4e565b601f01602090049060005260206000209081019062002a4d919062002a80565b5b50565b81548183558181111562002a7b5781836000526020600020918201910162002a7a919062002a80565b5b505050565b62002aa591905b8082111562002aa157600081600090555060010162002a87565b5090565b9056006080604052604051610cd5380380610cd5833981018060405281019080805190602001909291908051820192919060200180519060200190929190805190602001909291908051906020019092919050505082600160006101000a81548173ffffffffffffffffffffffffffffffffffffffff021916908373ffffffffffffffffffffffffffffffffffffffff16021790555033600260006101000a81548173ffffffffffffffffffffffffffffffffffffffff021916908373ffffffffffffffffffffffffffffffffffffffff16021790555084600360006101000a81548173ffffffffffffffffffffffffffffffffffffffff021916908373ffffffffffffffffffffffffffffffffffffffff160217905550836000908051906020019061012a929190610158565b50816004819055508160058190555043600681905550436008819055508060078190555050505050506101fd565b828054600181600116156101000203166002900490600052602060002090601f016020900481019282601f1061019957805160ff19168380011785556101c7565b828001600101855582156101c7579182015b828111156101c65782518255916020019190600101906101ab565b5b5090506101d491906101d8565b5090565b6101fa91905b808211156101f65760008160009055506001016101de565b5090565b90565b610ac98061020c6000396000f30060806040526004361061008e576000357c0100000000000000000000000000000000000000000000000000000000900463ffffffff1680630b6d5098146100935780630e3f7334146100ea5780632637a4771461017a5780632804b2c0146101bd5780635468233a146102145780638a9a4137146102545780639b89543e14610297578063fd8ba93514610300575b600080fd5b34801561009f57600080fd5b506100a861032b565b604051808273ffffffffffffffffffffffffffffffffffffffff1673ffffffffffffffffffffffffffffffffffffffff16815260200191505060405180910390f35b3480156100f657600080fd5b506100ff610355565b6040518080602001828103825283818151815260200191508051906020019080838360005b8381101561013f578082015181840152602081019050610124565b50505050905090810190601f16801561016c5780820380516001836020036101000a031916815260200191505b509250505060405180910390f35b34801561018657600080fd5b506101bb600480360381019080803573ffffffffffffffffffffffffffffffffffffffff1690602001909291905050506103f3565b005b3480156101c957600080fd5b506101d26106bf565b604051808273ffffffffffffffffffffffffffffffffffffffff1673ffffffffffffffffffffffffffffffffffffffff16815260200191505060405180910390f35b61025260048036038101908080359060200190929190803573ffffffffffffffffffffffffffffffffffffffff1690602001909291905050506106e5565b005b34801561026057600080fd5b50610295600480360381019080803573ffffffffffffffffffffffffffffffffffffffff1690602001909291905050506107c8565b005b3480156102a357600080fd5b506102fe600480360381019080803590602001908201803590602001908080601f0160208091040260200160405190810160405280939291908181526020018383808284378201915050505050509192919290505050610893565b005b34801561030c57600080fd5b50610315610963565b6040518082815260200191505060405180910390f35b6000600160009054906101000a900473ffffffffffffffffffffffffffffffffffffffff16905090565b60008054600181600116156101000203166002900480601f0160208091040260200160405190810160405280929190818152602001828054600181600116156101000203166002900480156103eb5780601f106103c0576101008083540402835291602001916103eb565b820191906000526020600020905b8154815290600101906020018083116103ce57829003601f168201915b505050505081565b600260009054906101000a900473ffffffffffffffffffffffffffffffffffffffff1673ffffffffffffffffffffffffffffffffffffffff163373ffffffffffffffffffffffffffffffffffffffff161415801561049f5750600360009054906101000a900473ffffffffffffffffffffffffffffffffffffffff1673ffffffffffffffffffffffffffffffffffffffff163373ffffffffffffffffffffffffffffffffffffffff1614155b156104a957600080fd5b60075443101515610517578073ffffffffffffffffffffffffffffffffffffffff166108fc3073ffffffffffffffffffffffffffffffffffffffff16319081150290604051600060405180830381858888f19350505050158015610511573d6000803e3d6000fd5b5061059a565b6008546007541115610599578073ffffffffffffffffffffffffffffffffffffffff166108fc6008546007540360085443033073ffffffffffffffffffffffffffffffffffffffff16310281151561056b57fe5b049081150290604051600060405180830381858888f19350505050158015610597573d6000803e3d6000fd5b505b5b600360009054906101000a900473ffffffffffffffffffffffffffffffffffffffff1673ffffffffffffffffffffffffffffffffffffffff163373ffffffffffffffffffffffffffffffffffffffff16141561062b57600160009054906101000a900473ffffffffffffffffffffffffffffffffffffffff1673ffffffffffffffffffffffffffffffffffffffff16ff5b600260009054906101000a900473ffffffffffffffffffffffffffffffffffffffff1673ffffffffffffffffffffffffffffffffffffffff163373ffffffffffffffffffffffffffffffffffffffff1614156106bc57600160009054906101000a900473ffffffffffffffffffffffffffffffffffffffff1673ffffffffffffffffffffffffffffffffffffffff16ff5b50565b600160009054906101000a900473ffffffffffffffffffffffffffffffffffffffff1681565b600260009054906101000a900473ffffffffffffffffffffffffffffffffffffffff1673ffffffffffffffffffffffffffffffffffffffff163373ffffffffffffffffffffffffffffffffffffffff16141580156107915750600360009054906101000a900473ffffffffffffffffffffffffffffffffffffffff1673ffffffffffffffffffffffffffffffffffffffff163373ffffffffffffffffffffffffffffffffffffffff1614155b1561079b57600080fd5b6107ad60055460065460075484610969565b81600781905550346005600082825401925050819055505050565b600260009054906101000a900473ffffffffffffffffffffffffffffffffffffffff1673ffffffffffffffffffffffffffffffffffffffff163373ffffffffffffffffffffffffffffffffffffffff16141580156108745750600360009054906101000a900473ffffffffffffffffffffffffffffffffffffffff1673ffffffffffffffffffffffffffffffffffffffff163373ffffffffffffffffffffffffffffffffffffffff1614155b1561087e57600080fd5b61089060055460065460075484610969565b50565b600260009054906101000a900473ffffffffffffffffffffffffffffffffffffffff1673ffffffffffffffffffffffffffffffffffffffff163373ffffffffffffffffffffffffffffffffffffffff161415801561093f5750600360009054906101000a900473ffffffffffffffffffffffffffffffffffffffff1673ffffffffffffffffffffffffffffffffffffffff163373ffffffffffffffffffffffffffffffffffffffff1614155b1561094957600080fd5b806000908051906020019061095f9291906109f8565b5050565b60045481565b60085460075411156109f2578073ffffffffffffffffffffffffffffffffffffffff166108fc6008546007540360085443033073ffffffffffffffffffffffffffffffffffffffff1631028115156109bd57fe5b049081150290604051600060405180830381858888f193505050501580156109e9573d6000803e3d6000fd5b50436008819055505b50505050565b828054600181600116156101000203166002900490600052602060002090601f016020900481019282601f10610a3957805160ff1916838001178555610a67565b82800160010185558215610a67579182015b82811115610a66578251825591602001919060010190610a4b565b5b509050610a749190610a78565b5090565b610a9a91905b80821115610a96576000816000905550600101610a7e565b5090565b905600a165627a7a72305820f28c84bebd05d3c01230226f92729cba1e7dc105680d58c03cb6a2e5624dbb6b0029a165627a7a7230582045671c23623913fa240c0e3c90ccae3e0e5a251b6ca02c27ebe4ce76bc7a6e8b0029",
  "source": "pragma solidity ^0.4.21; \n\ncontract HostingContract {\n  \n    function deleteContract(address AccountCollectionAddress) public onlyOwnerOrOperator{\n        if(block.number >= expirationBlockHeight) {\n            AccountCollectionAddress.transfer(address(this).balance);\n        }else{\n            //uint256 collectAmount = ((block.number - deploymentBlockHeight) / (expirationBlockHeight - deploymentBlockHeight)) * (address(this).balance); \n            //AccountCollectionAddress.transfer(collectAmount);\n            if(expirationBlockHeight > billedBlockHeight){\n                AccountCollectionAddress.transfer((address(this).balance) * (block.number - billedBlockHeight) / (expirationBlockHeight - billedBlockHeight));\n            }\n            //customer.transfer(address(this).balance );\n        }\n        if (msg.sender == operator) selfdestruct(customer);\n        if (msg.sender == owner) selfdestruct(customer);\n    }\n\n    string public hostingContractName;\n    address public customer; // hosting contract customer\n    address internal owner; // owner of the contract\n    address internal operator; // operator or control contract\n    uint256 public contractCost;\n    uint256 contractBalance;\n    uint256 deploymentBlockHeight;\n    uint256 expirationBlockHeight;\n    uint256 billedBlockHeight;\n\n    function HostingContract (address OperatorAddress, string HostingContractName, address UserAddress, uint256 ContractCost, uint256 ExpirationBlockHeight) public payable{\n        customer = UserAddress;\n        owner = msg.sender;\n        operator = OperatorAddress;\n        hostingContractName = HostingContractName;\n        contractCost = ContractCost;\n        contractBalance = ContractCost;\n        deploymentBlockHeight = block.number;\n        billedBlockHeight = block.number;\n        expirationBlockHeight = ExpirationBlockHeight;\n    }\n    function GetCustomerAddress() public returns(address){\n        return customer;\n    }\n    function SetContractName(string NewContractName) public onlyOwnerOrOperator {\n        hostingContractName = NewContractName;\n    }\n    function UpdateExpirationBlockHeight (uint256 ExpirationBlockHeight, address AccountCollectionAddress) public onlyOwnerOrOperator payable{\n        CollectBalance(contractBalance, deploymentBlockHeight, expirationBlockHeight, AccountCollectionAddress);\n        expirationBlockHeight = ExpirationBlockHeight;\n        contractBalance += msg.value;\n    }    \n    function ContractPaymentCollection (address AccountCollectionAddress) public onlyOwnerOrOperator{\n         CollectBalance(contractBalance, deploymentBlockHeight, expirationBlockHeight, AccountCollectionAddress);\n    }\n    function CollectBalance(uint256 ContractBalance, uint256 DeploymentBlockHeight, uint256 ExpirationBlockHeight, address AccountCollectionAddress) internal{\n        //uint256 collectAmount = ((block.number - DeploymentBlockHeight) / (ExpirationBlockHeight - DeploymentBlockHeight)) * ContractBalance;\n        if(expirationBlockHeight >  billedBlockHeight){\n            AccountCollectionAddress.transfer((address(this).balance) * (block.number - billedBlockHeight) / (expirationBlockHeight - billedBlockHeight));\n            billedBlockHeight = block.number;\n        }\n        //AccountCollectionAddress.transfer(collectAmount);\n        //contractBalance -= collectAmount; \n    }\n\n    modifier onlyOwner()\n    {\n       if (msg.sender != owner) revert();\n       _;\n    }\n    modifier onlyOwnerOrOperator()\n    {\n       if (msg.sender != owner && msg.sender != operator) revert();\n       _;\n    }\n}\ncontract ethoFSHostingContracts {\n    function deleteHostingContracts() public onlyOwner {\n        selfdestruct(owner);\n    }\n\n    address internal owner; // owner of the contract\n    address internal operator; // operator or control contract\n    uint256 scrubTracker;\n    uint256 scrubLength;\n    uint256 hostingCost;\n    address accountCollectionAddress;\n    uint32 hostingContractCount;\n    address[] hostingContractArray;\n    mapping (address => hostingContract) hostingContracts;\n\n    struct hostingContract {\n        string mainContentHash;\n        string hostingContractName;\n        uint256 deployedBlockHeight;\n        uint256 expirationBlockHeight;\n        uint32 contractStorageUsed;\n        string contentHashString;\n        string contentPathString;\n    }\n    function ethoFSHostingContracts () public {\n        owner = msg.sender;\n        operator = msg.sender;\n        hostingCost = 5000000000000000000;\n        scrubTracker = 0;\n        scrubLength = 100;\n    }\n\n    function ScrubContractList() public {\n        uint i = scrubTracker;\n        uint upperBound = scrubTracker + scrubLength;\n        while (i < (hostingContractArray.length) && i < (upperBound)) {\n            if(block.number > (hostingContracts[hostingContractArray[i]].expirationBlockHeight)) {\n                RemoveHostingContractByIndex(i, hostingContractArray[i], accountCollectionAddress);\n            }else{\n\t        HostingContract contractToUpdate = HostingContract(hostingContractArray[i]); \n                contractToUpdate.ContractPaymentCollection(accountCollectionAddress);\n            }\n            i++;\n        }\n        if(i >= hostingContractArray.length){\n            scrubTracker = 0;\n        }else{\n            scrubTracker = i;\n        }\n    }\n\n    function SetAccountCollectionAddress(address set) public onlyOwnerOrOperator {\n        accountCollectionAddress = set;\n    }\n    function SetHostingContractCost(uint256 set) public onlyOwnerOrOperator {\n        hostingCost = set;\n    }\n    function SetScrubLength(uint256 set) public onlyOwnerOrOperator {\n        scrubLength = set;\n    }\n    function CalculateHostingContractCost(uint32 ContractSize, uint32 ContractDuration) internal returns (uint256 value) {\n        return (((ContractSize / 1048576) * hostingCost) * (ContractDuration / 46522));\n    }\n/*\n    function CreateHostingContract (string HostingContractName, uint256 contractCost, uint256 ExpirationBlockHeight) private payable returns(address value){\n        HostingContract newContractAddress = (new HostingContract).value(msg.value)(HostingContractName, msg.sender, contractCost, ExpirationBlockHeight);\n        return newContractAddress;\n    } \n*/ \n    function AddHostingContract(string MainContentHash, string HostingContractName, uint32 HostingContractDuration, uint32 TotalContractSize, string ContentHashString, string ContentPathString) public onlyOwnerOrOperator payable returns(address NewContractAddress){\n        uint256 calculatedHostingCost = CalculateHostingContractCost(TotalContractSize, HostingContractDuration);\n        if(msg.value >= calculatedHostingCost) {\n            HostingContract newContractAddress = (new HostingContract).value(msg.value)(address(this), HostingContractName, tx.origin, calculatedHostingCost, (block.number + HostingContractDuration));\n            //address newContractAddress = CreateHostingContract.value(msg.value)(address(this), HostingContractName, calculatedHostingCost, (block.number + HostingContractDuration));\n            hostingContract memory newHostingContract = hostingContract({mainContentHash:MainContentHash, hostingContractName:HostingContractName, deployedBlockHeight:block.number, expirationBlockHeight:block.number + HostingContractDuration, contractStorageUsed:TotalContractSize, contentHashString: ContentHashString, contentPathString: ContentPathString});\n            hostingContracts[newContractAddress] = newHostingContract;\n            hostingContractCount++;\n            hostingContractArray.push(newContractAddress);\n            return newContractAddress;\n        }else {\n            msg.sender.transfer(msg.value);\n            return address(0x0);\n        }\n    }\n/*\n    function AddContentHash(address HostingContractAddress, string newContentHash, string newContentPath) public onlyOwnerOrOperator {\n        hostingContracts[HostingContractAddress].contentHashMap[newContentHash] = newContentPath;\n        hostingContracts[HostingContractAddress].contentHashArray.push(newContentHash);\n        hostingContracts[HostingContractAddress].ContentHashCount++;\n    }\n*/\n    function RemoveHostingContractByIndex(uint i, address HostingContractAddress, address AccountCollectionAddress) internal {\n        HostingContract contractToDelete = HostingContract(HostingContractAddress);\n        contractToDelete.deleteContract(AccountCollectionAddress);\n        delete hostingContracts[HostingContractAddress];\n        RemoveByIndex(i);\n        hostingContractCount--;\n    }\n    function RemoveHostingContract(address customerAddress, address HostingContractAddress, address AccountCollectionAddress) public onlyOwnerOrOperator returns(bool) {\n        HostingContract contractToDelete = HostingContract(HostingContractAddress);\n        address compareAddress = contractToDelete.GetCustomerAddress();\n        if(customerAddress == compareAddress){\n            contractToDelete.deleteContract(AccountCollectionAddress);\n            delete hostingContracts[HostingContractAddress];\n            uint i = FindArrayKey(HostingContractAddress);\n            RemoveByIndex(i);\n            hostingContractCount--;\n            return true;\n        }else{\n            return false;\n        }\n    }\n    function ExtendHostingContract(address HostingContractAddress, uint32 HostingContractExtensionDuration) public onlyOwnerOrOperator payable {\n        uint256 calculatedHostingCost = CalculateHostingContractCost(hostingContracts[HostingContractAddress].contractStorageUsed, HostingContractExtensionDuration);\n        if(msg.value >= calculatedHostingCost) {\n            uint256 currentExpirationBlockHeight = hostingContracts[HostingContractAddress].expirationBlockHeight;\n            hostingContracts[HostingContractAddress].expirationBlockHeight = hostingContracts[HostingContractAddress].expirationBlockHeight + HostingContractExtensionDuration;\n            HostingContract contractToUpdate = HostingContract(HostingContractAddress); \n            contractToUpdate.UpdateExpirationBlockHeight.value(msg.value)(currentExpirationBlockHeight + HostingContractExtensionDuration, accountCollectionAddress);\n        }\n    }\n    function ChangeHostingContractName(address HostingContractAddress, string NewContractName) public onlyOwnerOrOperator {\n        HostingContract contractToUpdate = HostingContract(HostingContractAddress);\n        contractToUpdate.SetContractName(NewContractName);\n    }\n    function GetMainContentHash(address HostingContractAddress) public onlyOwnerOrOperator constant returns(string MainContentHash) {\n        return hostingContracts[HostingContractAddress].mainContentHash;\n    }\n    function GetContentHashString(address HostingContractAddress) public onlyOwnerOrOperator constant returns(string ContentHashString) {\n        return hostingContracts[HostingContractAddress].contentHashString;\n    }\n    function GetContentPathString(address HostingContractAddress) public onlyOwnerOrOperator constant returns(string ContentPathString) {\n        return hostingContracts[HostingContractAddress].contentPathString;\n    }\n    function GetHostingContractDeployedBlockHeight(address HostingContractAddress) public onlyOwnerOrOperator constant returns(uint256 value) {\n        return hostingContracts[HostingContractAddress].deployedBlockHeight;\n    } \n    function GetHostingContractExpirationBlockHeight(address HostingContractAddress) public onlyOwnerOrOperator constant returns(uint256 value) {\n        return hostingContracts[HostingContractAddress].expirationBlockHeight;\n    } \n    function GetHostingContractStorageUsed(address HostingContractAddress) public onlyOwnerOrOperator constant returns(uint32 value) {\n        return hostingContracts[HostingContractAddress].contractStorageUsed;\n    }\n    function GetHostingContractName(address HostingContractAddress) public onlyOwnerOrOperator constant returns(string value) {\n        return hostingContracts[HostingContractAddress].hostingContractName;\n    }\n    function FindArrayKey(address HostingContactAddress) private constant returns (uint) {\n        uint i = 0;\n        while (keccak256(hostingContractArray[i]) != keccak256(HostingContactAddress)) {\n            i++;\n        }\n        return i;\n    }\n    function RemoveByIndex(uint i) private {\n        while ((hostingContractArray.length - 1) > i) {\n            hostingContractArray[i] = hostingContractArray[i+1];\n            i++;\n        }\n        hostingContractArray.length--;\n    } \n    modifier onlyOwner()\n    {\n       if (msg.sender != owner) revert();\n       _;\n    }\n    modifier onlyOwnerOrOperator()\n    {\n       if (msg.sender != owner && msg.sender != operator) revert();\n       _;\n    }\n    function changeOperator(address newOperator) public onlyOwner\n    {\n       operator = newOperator;\n    }\n}\n",
  "sourcePath": "/home/ether1node/contracts/hostingcontracts/contracts/ethoFSHostingContracts.sol",
  "compiler": {
    "name": "solc",
    "version": "0.4.24+commit.e67f0147.Emscripten.clang"
  },
  "schemaVersion": "2.0.1",
  "updatedAt": "2019-03-02T20:03:15.308Z"
}