{
  "contractName": "HostingContract",
  "abi": [
    {
      "constant": true,
      "inputs": [],
      "name": "hostingContractName",
      "outputs": [
        {
          "name": "",
          "type": "string"
        }
      ],
      "payable": false,
      "stateMutability": "view",
      "type": "function"
    },
    {
      "constant": true,
      "inputs": [],
      "name": "customer",
      "outputs": [
        {
          "name": "",
          "type": "address"
        }
      ],
      "payable": false,
      "stateMutability": "view",
      "type": "function"
    },
    {
      "constant": true,
      "inputs": [],
      "name": "contractCost",
      "outputs": [
        {
          "name": "",
          "type": "uint256"
        }
      ],
      "payable": false,
      "stateMutability": "view",
      "type": "function"
    },
    {
      "inputs": [
        {
          "name": "OperatorAddress",
          "type": "address"
        },
        {
          "name": "HostingContractName",
          "type": "string"
        },
        {
          "name": "UserAddress",
          "type": "address"
        },
        {
          "name": "ContractCost",
          "type": "uint256"
        },
        {
          "name": "ExpirationBlockHeight",
          "type": "uint256"
        }
      ],
      "payable": true,
      "stateMutability": "payable",
      "type": "constructor"
    },
    {
      "constant": false,
      "inputs": [
        {
          "name": "AccountCollectionAddress",
          "type": "address"
        }
      ],
      "name": "deleteContract",
      "outputs": [],
      "payable": false,
      "stateMutability": "nonpayable",
      "type": "function"
    },
    {
      "constant": false,
      "inputs": [],
      "name": "GetCustomerAddress",
      "outputs": [
        {
          "name": "",
          "type": "address"
        }
      ],
      "payable": false,
      "stateMutability": "nonpayable",
      "type": "function"
    },
    {
      "constant": false,
      "inputs": [
        {
          "name": "NewContractName",
          "type": "string"
        }
      ],
      "name": "SetContractName",
      "outputs": [],
      "payable": false,
      "stateMutability": "nonpayable",
      "type": "function"
    },
    {
      "constant": false,
      "inputs": [
        {
          "name": "ExpirationBlockHeight",
          "type": "uint256"
        },
        {
          "name": "AccountCollectionAddress",
          "type": "address"
        }
      ],
      "name": "UpdateExpirationBlockHeight",
      "outputs": [],
      "payable": true,
      "stateMutability": "payable",
      "type": "function"
    },
    {
      "constant": false,
      "inputs": [
        {
          "name": "AccountCollectionAddress",
          "type": "address"
        }
      ],
      "name": "ContractPaymentCollection",
      "outputs": [],
      "payable": false,
      "stateMutability": "nonpayable",
      "type": "function"
    }
  ],
  "bytecode": "0x6080604052604051610cd5380380610cd5833981018060405281019080805190602001909291908051820192919060200180519060200190929190805190602001909291908051906020019092919050505082600160006101000a81548173ffffffffffffffffffffffffffffffffffffffff021916908373ffffffffffffffffffffffffffffffffffffffff16021790555033600260006101000a81548173ffffffffffffffffffffffffffffffffffffffff021916908373ffffffffffffffffffffffffffffffffffffffff16021790555084600360006101000a81548173ffffffffffffffffffffffffffffffffffffffff021916908373ffffffffffffffffffffffffffffffffffffffff160217905550836000908051906020019061012a929190610158565b50816004819055508160058190555043600681905550436008819055508060078190555050505050506101fd565b828054600181600116156101000203166002900490600052602060002090601f016020900481019282601f1061019957805160ff19168380011785556101c7565b828001600101855582156101c7579182015b828111156101c65782518255916020019190600101906101ab565b5b5090506101d491906101d8565b5090565b6101fa91905b808211156101f65760008160009055506001016101de565b5090565b90565b610ac98061020c6000396000f30060806040526004361061008e576000357c0100000000000000000000000000000000000000000000000000000000900463ffffffff1680630b6d5098146100935780630e3f7334146100ea5780632637a4771461017a5780632804b2c0146101bd5780635468233a146102145780638a9a4137146102545780639b89543e14610297578063fd8ba93514610300575b600080fd5b34801561009f57600080fd5b506100a861032b565b604051808273ffffffffffffffffffffffffffffffffffffffff1673ffffffffffffffffffffffffffffffffffffffff16815260200191505060405180910390f35b3480156100f657600080fd5b506100ff610355565b6040518080602001828103825283818151815260200191508051906020019080838360005b8381101561013f578082015181840152602081019050610124565b50505050905090810190601f16801561016c5780820380516001836020036101000a031916815260200191505b509250505060405180910390f35b34801561018657600080fd5b506101bb600480360381019080803573ffffffffffffffffffffffffffffffffffffffff1690602001909291905050506103f3565b005b3480156101c957600080fd5b506101d26106bf565b604051808273ffffffffffffffffffffffffffffffffffffffff1673ffffffffffffffffffffffffffffffffffffffff16815260200191505060405180910390f35b61025260048036038101908080359060200190929190803573ffffffffffffffffffffffffffffffffffffffff1690602001909291905050506106e5565b005b34801561026057600080fd5b50610295600480360381019080803573ffffffffffffffffffffffffffffffffffffffff1690602001909291905050506107c8565b005b3480156102a357600080fd5b506102fe600480360381019080803590602001908201803590602001908080601f0160208091040260200160405190810160405280939291908181526020018383808284378201915050505050509192919290505050610893565b005b34801561030c57600080fd5b50610315610963565b6040518082815260200191505060405180910390f35b6000600160009054906101000a900473ffffffffffffffffffffffffffffffffffffffff16905090565b60008054600181600116156101000203166002900480601f0160208091040260200160405190810160405280929190818152602001828054600181600116156101000203166002900480156103eb5780601f106103c0576101008083540402835291602001916103eb565b820191906000526020600020905b8154815290600101906020018083116103ce57829003601f168201915b505050505081565b600260009054906101000a900473ffffffffffffffffffffffffffffffffffffffff1673ffffffffffffffffffffffffffffffffffffffff163373ffffffffffffffffffffffffffffffffffffffff161415801561049f5750600360009054906101000a900473ffffffffffffffffffffffffffffffffffffffff1673ffffffffffffffffffffffffffffffffffffffff163373ffffffffffffffffffffffffffffffffffffffff1614155b156104a957600080fd5b60075443101515610517578073ffffffffffffffffffffffffffffffffffffffff166108fc3073ffffffffffffffffffffffffffffffffffffffff16319081150290604051600060405180830381858888f19350505050158015610511573d6000803e3d6000fd5b5061059a565b6008546007541115610599578073ffffffffffffffffffffffffffffffffffffffff166108fc6008546007540360085443033073ffffffffffffffffffffffffffffffffffffffff16310281151561056b57fe5b049081150290604051600060405180830381858888f19350505050158015610597573d6000803e3d6000fd5b505b5b600360009054906101000a900473ffffffffffffffffffffffffffffffffffffffff1673ffffffffffffffffffffffffffffffffffffffff163373ffffffffffffffffffffffffffffffffffffffff16141561062b57600160009054906101000a900473ffffffffffffffffffffffffffffffffffffffff1673ffffffffffffffffffffffffffffffffffffffff16ff5b600260009054906101000a900473ffffffffffffffffffffffffffffffffffffffff1673ffffffffffffffffffffffffffffffffffffffff163373ffffffffffffffffffffffffffffffffffffffff1614156106bc57600160009054906101000a900473ffffffffffffffffffffffffffffffffffffffff1673ffffffffffffffffffffffffffffffffffffffff16ff5b50565b600160009054906101000a900473ffffffffffffffffffffffffffffffffffffffff1681565b600260009054906101000a900473ffffffffffffffffffffffffffffffffffffffff1673ffffffffffffffffffffffffffffffffffffffff163373ffffffffffffffffffffffffffffffffffffffff16141580156107915750600360009054906101000a900473ffffffffffffffffffffffffffffffffffffffff1673ffffffffffffffffffffffffffffffffffffffff163373ffffffffffffffffffffffffffffffffffffffff1614155b1561079b57600080fd5b6107ad60055460065460075484610969565b81600781905550346005600082825401925050819055505050565b600260009054906101000a900473ffffffffffffffffffffffffffffffffffffffff1673ffffffffffffffffffffffffffffffffffffffff163373ffffffffffffffffffffffffffffffffffffffff16141580156108745750600360009054906101000a900473ffffffffffffffffffffffffffffffffffffffff1673ffffffffffffffffffffffffffffffffffffffff163373ffffffffffffffffffffffffffffffffffffffff1614155b1561087e57600080fd5b61089060055460065460075484610969565b50565b600260009054906101000a900473ffffffffffffffffffffffffffffffffffffffff1673ffffffffffffffffffffffffffffffffffffffff163373ffffffffffffffffffffffffffffffffffffffff161415801561093f5750600360009054906101000a900473ffffffffffffffffffffffffffffffffffffffff1673ffffffffffffffffffffffffffffffffffffffff163373ffffffffffffffffffffffffffffffffffffffff1614155b1561094957600080fd5b806000908051906020019061095f9291906109f8565b5050565b60045481565b60085460075411156109f2578073ffffffffffffffffffffffffffffffffffffffff166108fc6008546007540360085443033073ffffffffffffffffffffffffffffffffffffffff1631028115156109bd57fe5b049081150290604051600060405180830381858888f193505050501580156109e9573d6000803e3d6000fd5b50436008819055505b50505050565b828054600181600116156101000203166002900490600052602060002090601f016020900481019282601f10610a3957805160ff1916838001178555610a67565b82800160010185558215610a67579182015b82811115610a66578251825591602001919060010190610a4b565b5b509050610a749190610a78565b5090565b610a9a91905b80821115610a96576000816000905550600101610a7e565b5090565b905600a165627a7a72305820f28c84bebd05d3c01230226f92729cba1e7dc105680d58c03cb6a2e5624dbb6b0029",
  "source": "pragma solidity ^0.4.21; \n\ncontract HostingContract {\n  \n    function deleteContract(address AccountCollectionAddress) public onlyOwnerOrOperator{\n        if(block.number >= expirationBlockHeight) {\n            AccountCollectionAddress.transfer(address(this).balance);\n        }else{\n            //uint256 collectAmount = ((block.number - deploymentBlockHeight) / (expirationBlockHeight - deploymentBlockHeight)) * (address(this).balance); \n            //AccountCollectionAddress.transfer(collectAmount);\n            if(expirationBlockHeight > billedBlockHeight){\n                AccountCollectionAddress.transfer((address(this).balance) * (block.number - billedBlockHeight) / (expirationBlockHeight - billedBlockHeight));\n            }\n            //customer.transfer(address(this).balance );\n        }\n        if (msg.sender == operator) selfdestruct(customer);\n        if (msg.sender == owner) selfdestruct(customer);\n    }\n\n    string public hostingContractName;\n    address public customer; // hosting contract customer\n    address internal owner; // owner of the contract\n    address internal operator; // operator or control contract\n    uint256 public contractCost;\n    uint256 contractBalance;\n    uint256 deploymentBlockHeight;\n    uint256 expirationBlockHeight;\n    uint256 billedBlockHeight;\n\n    function HostingContract (address OperatorAddress, string HostingContractName, address UserAddress, uint256 ContractCost, uint256 ExpirationBlockHeight) public payable{\n        customer = UserAddress;\n        owner = msg.sender;\n        operator = OperatorAddress;\n        hostingContractName = HostingContractName;\n        contractCost = ContractCost;\n        contractBalance = ContractCost;\n        deploymentBlockHeight = block.number;\n        billedBlockHeight = block.number;\n        expirationBlockHeight = ExpirationBlockHeight;\n    }\n    function GetCustomerAddress() public returns(address){\n        return customer;\n    }\n    function SetContractName(string NewContractName) public onlyOwnerOrOperator {\n        hostingContractName = NewContractName;\n    }\n    function UpdateExpirationBlockHeight (uint256 ExpirationBlockHeight, address AccountCollectionAddress) public onlyOwnerOrOperator payable{\n        CollectBalance(contractBalance, deploymentBlockHeight, expirationBlockHeight, AccountCollectionAddress);\n        expirationBlockHeight = ExpirationBlockHeight;\n        contractBalance += msg.value;\n    }    \n    function ContractPaymentCollection (address AccountCollectionAddress) public onlyOwnerOrOperator{\n         CollectBalance(contractBalance, deploymentBlockHeight, expirationBlockHeight, AccountCollectionAddress);\n    }\n    function CollectBalance(uint256 ContractBalance, uint256 DeploymentBlockHeight, uint256 ExpirationBlockHeight, address AccountCollectionAddress) internal{\n        //uint256 collectAmount = ((block.number - DeploymentBlockHeight) / (ExpirationBlockHeight - DeploymentBlockHeight)) * ContractBalance;\n        if(expirationBlockHeight >  billedBlockHeight){\n            AccountCollectionAddress.transfer((address(this).balance) * (block.number - billedBlockHeight) / (expirationBlockHeight - billedBlockHeight));\n            billedBlockHeight = block.number;\n        }\n        //AccountCollectionAddress.transfer(collectAmount);\n        //contractBalance -= collectAmount; \n    }\n\n    modifier onlyOwner()\n    {\n       if (msg.sender != owner) revert();\n       _;\n    }\n    modifier onlyOwnerOrOperator()\n    {\n       if (msg.sender != owner && msg.sender != operator) revert();\n       _;\n    }\n}\ncontract ethoFSHostingContracts {\n    function deleteHostingContracts() public onlyOwner {\n        selfdestruct(owner);\n    }\n\n    address internal owner; // owner of the contract\n    address internal operator; // operator or control contract\n    uint256 scrubTracker;\n    uint256 scrubLength;\n    uint256 hostingCost;\n    address accountCollectionAddress;\n    uint32 hostingContractCount;\n    address[] hostingContractArray;\n    mapping (address => hostingContract) hostingContracts;\n\n    struct hostingContract {\n        string mainContentHash;\n        string hostingContractName;\n        uint256 deployedBlockHeight;\n        uint256 expirationBlockHeight;\n        uint32 contractStorageUsed;\n        string contentHashString;\n        string contentPathString;\n    }\n    function ethoFSHostingContracts () public {\n        owner = msg.sender;\n        operator = msg.sender;\n        hostingCost = 5000000000000000000;\n        scrubTracker = 0;\n        scrubLength = 100;\n    }\n\n    function ScrubContractList() public {\n        uint i = scrubTracker;\n        uint upperBound = scrubTracker + scrubLength;\n        while (i < (hostingContractArray.length) && i < (upperBound)) {\n            if(block.number > (hostingContracts[hostingContractArray[i]].expirationBlockHeight)) {\n                RemoveHostingContractByIndex(i, hostingContractArray[i], accountCollectionAddress);\n            }else{\n\t        HostingContract contractToUpdate = HostingContract(hostingContractArray[i]); \n                contractToUpdate.ContractPaymentCollection(accountCollectionAddress);\n            }\n            i++;\n        }\n        if(i >= hostingContractArray.length){\n            scrubTracker = 0;\n        }else{\n            scrubTracker = i;\n        }\n    }\n\n    function SetAccountCollectionAddress(address set) public onlyOwnerOrOperator {\n        accountCollectionAddress = set;\n    }\n    function SetHostingContractCost(uint256 set) public onlyOwnerOrOperator {\n        hostingCost = set;\n    }\n    function SetScrubLength(uint256 set) public onlyOwnerOrOperator {\n        scrubLength = set;\n    }\n    function CalculateHostingContractCost(uint32 ContractSize, uint32 ContractDuration) internal returns (uint256 value) {\n        return (((ContractSize / 1048576) * hostingCost) * (ContractDuration / 46522));\n    }\n/*\n    function CreateHostingContract (string HostingContractName, uint256 contractCost, uint256 ExpirationBlockHeight) private payable returns(address value){\n        HostingContract newContractAddress = (new HostingContract).value(msg.value)(HostingContractName, msg.sender, contractCost, ExpirationBlockHeight);\n        return newContractAddress;\n    } \n*/ \n    function AddHostingContract(string MainContentHash, string HostingContractName, uint32 HostingContractDuration, uint32 TotalContractSize, string ContentHashString, string ContentPathString) public onlyOwnerOrOperator payable returns(address NewContractAddress){\n        uint256 calculatedHostingCost = CalculateHostingContractCost(TotalContractSize, HostingContractDuration);\n        if(msg.value >= calculatedHostingCost) {\n            HostingContract newContractAddress = (new HostingContract).value(msg.value)(address(this), HostingContractName, tx.origin, calculatedHostingCost, (block.number + HostingContractDuration));\n            //address newContractAddress = CreateHostingContract.value(msg.value)(address(this), HostingContractName, calculatedHostingCost, (block.number + HostingContractDuration));\n            hostingContract memory newHostingContract = hostingContract({mainContentHash:MainContentHash, hostingContractName:HostingContractName, deployedBlockHeight:block.number, expirationBlockHeight:block.number + HostingContractDuration, contractStorageUsed:TotalContractSize, contentHashString: ContentHashString, contentPathString: ContentPathString});\n            hostingContracts[newContractAddress] = newHostingContract;\n            hostingContractCount++;\n            hostingContractArray.push(newContractAddress);\n            return newContractAddress;\n        }else {\n            msg.sender.transfer(msg.value);\n            return address(0x0);\n        }\n    }\n/*\n    function AddContentHash(address HostingContractAddress, string newContentHash, string newContentPath) public onlyOwnerOrOperator {\n        hostingContracts[HostingContractAddress].contentHashMap[newContentHash] = newContentPath;\n        hostingContracts[HostingContractAddress].contentHashArray.push(newContentHash);\n        hostingContracts[HostingContractAddress].ContentHashCount++;\n    }\n*/\n    function RemoveHostingContractByIndex(uint i, address HostingContractAddress, address AccountCollectionAddress) internal {\n        HostingContract contractToDelete = HostingContract(HostingContractAddress);\n        contractToDelete.deleteContract(AccountCollectionAddress);\n        delete hostingContracts[HostingContractAddress];\n        RemoveByIndex(i);\n        hostingContractCount--;\n    }\n    function RemoveHostingContract(address customerAddress, address HostingContractAddress, address AccountCollectionAddress) public onlyOwnerOrOperator returns(bool) {\n        HostingContract contractToDelete = HostingContract(HostingContractAddress);\n        address compareAddress = contractToDelete.GetCustomerAddress();\n        if(customerAddress == compareAddress){\n            contractToDelete.deleteContract(AccountCollectionAddress);\n            delete hostingContracts[HostingContractAddress];\n            uint i = FindArrayKey(HostingContractAddress);\n            RemoveByIndex(i);\n            hostingContractCount--;\n            return true;\n        }else{\n            return false;\n        }\n    }\n    function ExtendHostingContract(address HostingContractAddress, uint32 HostingContractExtensionDuration) public onlyOwnerOrOperator payable {\n        uint256 calculatedHostingCost = CalculateHostingContractCost(hostingContracts[HostingContractAddress].contractStorageUsed, HostingContractExtensionDuration);\n        if(msg.value >= calculatedHostingCost) {\n            uint256 currentExpirationBlockHeight = hostingContracts[HostingContractAddress].expirationBlockHeight;\n            hostingContracts[HostingContractAddress].expirationBlockHeight = hostingContracts[HostingContractAddress].expirationBlockHeight + HostingContractExtensionDuration;\n            HostingContract contractToUpdate = HostingContract(HostingContractAddress); \n            contractToUpdate.UpdateExpirationBlockHeight.value(msg.value)(currentExpirationBlockHeight + HostingContractExtensionDuration, accountCollectionAddress);\n        }\n    }\n    function ChangeHostingContractName(address HostingContractAddress, string NewContractName) public onlyOwnerOrOperator {\n        HostingContract contractToUpdate = HostingContract(HostingContractAddress);\n        contractToUpdate.SetContractName(NewContractName);\n    }\n    function GetMainContentHash(address HostingContractAddress) public onlyOwnerOrOperator constant returns(string MainContentHash) {\n        return hostingContracts[HostingContractAddress].mainContentHash;\n    }\n    function GetContentHashString(address HostingContractAddress) public onlyOwnerOrOperator constant returns(string ContentHashString) {\n        return hostingContracts[HostingContractAddress].contentHashString;\n    }\n    function GetContentPathString(address HostingContractAddress) public onlyOwnerOrOperator constant returns(string ContentPathString) {\n        return hostingContracts[HostingContractAddress].contentPathString;\n    }\n    function GetHostingContractDeployedBlockHeight(address HostingContractAddress) public onlyOwnerOrOperator constant returns(uint256 value) {\n        return hostingContracts[HostingContractAddress].deployedBlockHeight;\n    } \n    function GetHostingContractExpirationBlockHeight(address HostingContractAddress) public onlyOwnerOrOperator constant returns(uint256 value) {\n        return hostingContracts[HostingContractAddress].expirationBlockHeight;\n    } \n    function GetHostingContractStorageUsed(address HostingContractAddress) public onlyOwnerOrOperator constant returns(uint32 value) {\n        return hostingContracts[HostingContractAddress].contractStorageUsed;\n    }\n    function GetHostingContractName(address HostingContractAddress) public onlyOwnerOrOperator constant returns(string value) {\n        return hostingContracts[HostingContractAddress].hostingContractName;\n    }\n    function FindArrayKey(address HostingContactAddress) private constant returns (uint) {\n        uint i = 0;\n        while (keccak256(hostingContractArray[i]) != keccak256(HostingContactAddress)) {\n            i++;\n        }\n        return i;\n    }\n    function RemoveByIndex(uint i) private {\n        while ((hostingContractArray.length - 1) > i) {\n            hostingContractArray[i] = hostingContractArray[i+1];\n            i++;\n        }\n        hostingContractArray.length--;\n    } \n    modifier onlyOwner()\n    {\n       if (msg.sender != owner) revert();\n       _;\n    }\n    modifier onlyOwnerOrOperator()\n    {\n       if (msg.sender != owner && msg.sender != operator) revert();\n       _;\n    }\n    function changeOperator(address newOperator) public onlyOwner\n    {\n       operator = newOperator;\n    }\n}\n",
  "sourcePath": "/home/ether1node/contracts/hostingcontracts/contracts/ethoFSHostingContracts.sol",
  "compiler": {
    "name": "solc",
    "version": "0.4.24+commit.e67f0147.Emscripten.clang"
  },
  "schemaVersion": "2.0.1",
  "updatedAt": "2019-03-02T20:02:12.335Z"
}